{
  "_format": "hh-sol-artifact-1",
  "contractName": "TwitterV1",
  "sourceName": "contracts/TwitterV1.sol",
  "abi": [
    {
      "inputs": [],
      "stateMutability": "nonpayable",
      "type": "constructor"
    },
    {
      "anonymous": false,
      "inputs": [
        {
          "indexed": true,
          "internalType": "address",
          "name": "owner",
          "type": "address"
        },
        {
          "indexed": true,
          "internalType": "address",
          "name": "approved",
          "type": "address"
        },
        {
          "indexed": true,
          "internalType": "uint256",
          "name": "tokenId",
          "type": "uint256"
        }
      ],
      "name": "Approval",
      "type": "event"
    },
    {
      "anonymous": false,
      "inputs": [
        {
          "indexed": true,
          "internalType": "address",
          "name": "owner",
          "type": "address"
        },
        {
          "indexed": true,
          "internalType": "address",
          "name": "operator",
          "type": "address"
        },
        {
          "indexed": false,
          "internalType": "bool",
          "name": "approved",
          "type": "bool"
        }
      ],
      "name": "ApprovalForAll",
      "type": "event"
    },
    {
      "anonymous": false,
      "inputs": [
        {
          "indexed": true,
          "internalType": "address",
          "name": "from",
          "type": "address"
        },
        {
          "indexed": true,
          "internalType": "address",
          "name": "to",
          "type": "address"
        },
        {
          "indexed": true,
          "internalType": "uint256",
          "name": "tokenId",
          "type": "uint256"
        }
      ],
      "name": "Transfer",
      "type": "event"
    },
    {
      "anonymous": false,
      "inputs": [
        {
          "indexed": true,
          "internalType": "address",
          "name": "sender",
          "type": "address"
        },
        {
          "indexed": false,
          "internalType": "string",
          "name": "tweet",
          "type": "string"
        }
      ],
      "name": "Tweeted",
      "type": "event"
    },
    {
      "inputs": [
        {
          "internalType": "uint256",
          "name": "_tokenId",
          "type": "uint256"
        }
      ],
      "name": "addLike",
      "outputs": [],
      "stateMutability": "nonpayable",
      "type": "function"
    },
    {
      "inputs": [
        {
          "internalType": "address",
          "name": "to",
          "type": "address"
        },
        {
          "internalType": "uint256",
          "name": "tokenId",
          "type": "uint256"
        }
      ],
      "name": "approve",
      "outputs": [],
      "stateMutability": "nonpayable",
      "type": "function"
    },
    {
      "inputs": [
        {
          "internalType": "address",
          "name": "owner",
          "type": "address"
        }
      ],
      "name": "balanceOf",
      "outputs": [
        {
          "internalType": "uint256",
          "name": "",
          "type": "uint256"
        }
      ],
      "stateMutability": "view",
      "type": "function"
    },
    {
      "inputs": [
        {
          "internalType": "uint256",
          "name": "_tokenId",
          "type": "uint256"
        }
      ],
      "name": "buildMetaData",
      "outputs": [
        {
          "internalType": "string",
          "name": "",
          "type": "string"
        }
      ],
      "stateMutability": "view",
      "type": "function"
    },
    {
      "inputs": [
        {
          "internalType": "address",
          "name": "_address",
          "type": "address"
        }
      ],
      "name": "follow",
      "outputs": [],
      "stateMutability": "nonpayable",
      "type": "function"
    },
    {
      "inputs": [
        {
          "internalType": "address",
          "name": "",
          "type": "address"
        },
        {
          "internalType": "uint256",
          "name": "",
          "type": "uint256"
        }
      ],
      "name": "followers",
      "outputs": [
        {
          "internalType": "address",
          "name": "id",
          "type": "address"
        }
      ],
      "stateMutability": "view",
      "type": "function"
    },
    {
      "inputs": [
        {
          "internalType": "address",
          "name": "",
          "type": "address"
        },
        {
          "internalType": "uint256",
          "name": "",
          "type": "uint256"
        }
      ],
      "name": "followings",
      "outputs": [
        {
          "internalType": "address",
          "name": "id",
          "type": "address"
        }
      ],
      "stateMutability": "view",
      "type": "function"
    },
    {
      "inputs": [
        {
          "internalType": "uint256",
          "name": "tokenId",
          "type": "uint256"
        }
      ],
      "name": "getApproved",
      "outputs": [
        {
          "internalType": "address",
          "name": "",
          "type": "address"
        }
      ],
      "stateMutability": "view",
      "type": "function"
    },
    {
      "inputs": [
        {
          "internalType": "address",
          "name": "_address",
          "type": "address"
        }
      ],
      "name": "getFollowers",
      "outputs": [
        {
          "components": [
            {
              "internalType": "address",
              "name": "id",
              "type": "address"
            }
          ],
          "internalType": "struct TwitterV1.User[]",
          "name": "",
          "type": "tuple[]"
        }
      ],
      "stateMutability": "view",
      "type": "function"
    },
    {
      "inputs": [
        {
          "internalType": "address",
          "name": "_address",
          "type": "address"
        }
      ],
      "name": "getFollowings",
      "outputs": [
        {
          "components": [
            {
              "internalType": "address",
              "name": "id",
              "type": "address"
            }
          ],
          "internalType": "struct TwitterV1.User[]",
          "name": "",
          "type": "tuple[]"
        }
      ],
      "stateMutability": "view",
      "type": "function"
    },
    {
      "inputs": [],
      "name": "getLikes",
      "outputs": [
        {
          "components": [
            {
              "internalType": "uint256",
              "name": "tokenId",
              "type": "uint256"
            },
            {
              "internalType": "string",
              "name": "content",
              "type": "string"
            },
            {
              "internalType": "address",
              "name": "author",
              "type": "address"
            },
            {
              "internalType": "uint256",
              "name": "timestamp",
              "type": "uint256"
            },
            {
              "internalType": "string",
              "name": "attachment",
              "type": "string"
            },
            {
              "internalType": "address[]",
              "name": "likes",
              "type": "address[]"
            }
          ],
          "internalType": "struct TwitterV1.Tweet[]",
          "name": "",
          "type": "tuple[]"
        }
      ],
      "stateMutability": "view",
      "type": "function"
    },
    {
      "inputs": [
        {
          "internalType": "int256",
          "name": "offset",
          "type": "int256"
        },
        {
          "internalType": "int256",
          "name": "limit",
          "type": "int256"
        }
      ],
      "name": "getTimeline",
      "outputs": [
        {
          "components": [
            {
              "internalType": "uint256",
              "name": "tokenId",
              "type": "uint256"
            },
            {
              "internalType": "string",
              "name": "content",
              "type": "string"
            },
            {
              "internalType": "address",
              "name": "author",
              "type": "address"
            },
            {
              "internalType": "uint256",
              "name": "timestamp",
              "type": "uint256"
            },
            {
              "internalType": "string",
              "name": "attachment",
              "type": "string"
            },
            {
              "internalType": "address[]",
              "name": "likes",
              "type": "address[]"
            }
          ],
          "internalType": "struct TwitterV1.Tweet[]",
          "name": "",
          "type": "tuple[]"
        }
      ],
      "stateMutability": "view",
      "type": "function"
    },
    {
      "inputs": [
        {
          "internalType": "address",
          "name": "_address",
          "type": "address"
        }
      ],
      "name": "getUserTweets",
      "outputs": [
        {
          "components": [
            {
              "internalType": "uint256",
              "name": "tokenId",
              "type": "uint256"
            },
            {
              "internalType": "string",
              "name": "content",
              "type": "string"
            },
            {
              "internalType": "address",
              "name": "author",
              "type": "address"
            },
            {
              "internalType": "uint256",
              "name": "timestamp",
              "type": "uint256"
            },
            {
              "internalType": "string",
              "name": "attachment",
              "type": "string"
            },
            {
              "internalType": "address[]",
              "name": "likes",
              "type": "address[]"
            }
          ],
          "internalType": "struct TwitterV1.Tweet[]",
          "name": "",
          "type": "tuple[]"
        }
      ],
      "stateMutability": "view",
      "type": "function"
    },
    {
      "inputs": [],
      "name": "initialize",
      "outputs": [],
      "stateMutability": "nonpayable",
      "type": "function"
    },
    {
      "inputs": [
        {
          "internalType": "address",
          "name": "owner",
          "type": "address"
        },
        {
          "internalType": "address",
          "name": "operator",
          "type": "address"
        }
      ],
      "name": "isApprovedForAll",
      "outputs": [
        {
          "internalType": "bool",
          "name": "",
          "type": "bool"
        }
      ],
      "stateMutability": "view",
      "type": "function"
    },
    {
      "inputs": [
        {
          "internalType": "address",
          "name": "_address",
          "type": "address"
        }
      ],
      "name": "isFollowing",
      "outputs": [
        {
          "internalType": "bool",
          "name": "",
          "type": "bool"
        }
      ],
      "stateMutability": "view",
      "type": "function"
    },
    {
      "inputs": [
        {
          "internalType": "address",
          "name": "",
          "type": "address"
        },
        {
          "internalType": "uint256",
          "name": "",
          "type": "uint256"
        }
      ],
      "name": "likes",
      "outputs": [
        {
          "internalType": "uint256",
          "name": "tokenId",
          "type": "uint256"
        },
        {
          "internalType": "string",
          "name": "content",
          "type": "string"
        },
        {
          "internalType": "address",
          "name": "author",
          "type": "address"
        },
        {
          "internalType": "uint256",
          "name": "timestamp",
          "type": "uint256"
        },
        {
          "internalType": "string",
          "name": "attachment",
          "type": "string"
        }
      ],
      "stateMutability": "view",
      "type": "function"
    },
    {
      "inputs": [],
      "name": "name",
      "outputs": [
        {
          "internalType": "string",
          "name": "",
          "type": "string"
        }
      ],
      "stateMutability": "view",
      "type": "function"
    },
    {
      "inputs": [
        {
          "internalType": "uint256",
          "name": "tokenId",
          "type": "uint256"
        }
      ],
      "name": "ownerOf",
      "outputs": [
        {
          "internalType": "address",
          "name": "",
          "type": "address"
        }
      ],
      "stateMutability": "view",
      "type": "function"
    },
    {
      "inputs": [
        {
          "internalType": "address",
          "name": "from",
          "type": "address"
        },
        {
          "internalType": "address",
          "name": "to",
          "type": "address"
        },
        {
          "internalType": "uint256",
          "name": "tokenId",
          "type": "uint256"
        }
      ],
      "name": "safeTransferFrom",
      "outputs": [],
      "stateMutability": "nonpayable",
      "type": "function"
    },
    {
      "inputs": [
        {
          "internalType": "address",
          "name": "from",
          "type": "address"
        },
        {
          "internalType": "address",
          "name": "to",
          "type": "address"
        },
        {
          "internalType": "uint256",
          "name": "tokenId",
          "type": "uint256"
        },
        {
          "internalType": "bytes",
          "name": "_data",
          "type": "bytes"
        }
      ],
      "name": "safeTransferFrom",
      "outputs": [],
      "stateMutability": "nonpayable",
      "type": "function"
    },
    {
      "inputs": [
        {
          "internalType": "address",
          "name": "operator",
          "type": "address"
        },
        {
          "internalType": "bool",
          "name": "approved",
          "type": "bool"
        }
      ],
      "name": "setApprovalForAll",
      "outputs": [],
      "stateMutability": "nonpayable",
      "type": "function"
    },
    {
      "inputs": [
        {
          "internalType": "string",
          "name": "_tweet",
          "type": "string"
        },
        {
          "internalType": "string",
          "name": "_imageData",
          "type": "string"
        }
      ],
      "name": "setTweet",
      "outputs": [],
      "stateMutability": "nonpayable",
      "type": "function"
    },
    {
      "inputs": [
        {
          "internalType": "bytes4",
          "name": "interfaceId",
          "type": "bytes4"
        }
      ],
      "name": "supportsInterface",
      "outputs": [
        {
          "internalType": "bool",
          "name": "",
          "type": "bool"
        }
      ],
      "stateMutability": "view",
      "type": "function"
    },
    {
      "inputs": [],
      "name": "symbol",
      "outputs": [
        {
          "internalType": "string",
          "name": "",
          "type": "string"
        }
      ],
      "stateMutability": "view",
      "type": "function"
    },
    {
      "inputs": [
        {
          "internalType": "uint256",
          "name": "index",
          "type": "uint256"
        }
      ],
      "name": "tokenByIndex",
      "outputs": [
        {
          "internalType": "uint256",
          "name": "",
          "type": "uint256"
        }
      ],
      "stateMutability": "view",
      "type": "function"
    },
    {
      "inputs": [
        {
          "internalType": "address",
          "name": "owner",
          "type": "address"
        },
        {
          "internalType": "uint256",
          "name": "index",
          "type": "uint256"
        }
      ],
      "name": "tokenOfOwnerByIndex",
      "outputs": [
        {
          "internalType": "uint256",
          "name": "",
          "type": "uint256"
        }
      ],
      "stateMutability": "view",
      "type": "function"
    },
    {
      "inputs": [
        {
          "internalType": "uint256",
          "name": "_tokenId",
          "type": "uint256"
        }
      ],
      "name": "tokenURI",
      "outputs": [
        {
          "internalType": "string",
          "name": "",
          "type": "string"
        }
      ],
      "stateMutability": "view",
      "type": "function"
    },
    {
      "inputs": [],
      "name": "totalSupply",
      "outputs": [
        {
          "internalType": "uint256",
          "name": "",
          "type": "uint256"
        }
      ],
      "stateMutability": "view",
      "type": "function"
    },
    {
      "inputs": [
        {
          "internalType": "address",
          "name": "from",
          "type": "address"
        },
        {
          "internalType": "address",
          "name": "to",
          "type": "address"
        },
        {
          "internalType": "uint256",
          "name": "tokenId",
          "type": "uint256"
        }
      ],
      "name": "transferFrom",
      "outputs": [],
      "stateMutability": "nonpayable",
      "type": "function"
    },
    {
      "inputs": [
        {
          "internalType": "uint256",
          "name": "",
          "type": "uint256"
        }
      ],
      "name": "tweets",
      "outputs": [
        {
          "internalType": "uint256",
          "name": "tokenId",
          "type": "uint256"
        },
        {
          "internalType": "string",
          "name": "content",
          "type": "string"
        },
        {
          "internalType": "address",
          "name": "author",
          "type": "address"
        },
        {
          "internalType": "uint256",
          "name": "timestamp",
          "type": "uint256"
        },
        {
          "internalType": "string",
          "name": "attachment",
          "type": "string"
        }
      ],
      "stateMutability": "view",
      "type": "function"
    },
    {
      "inputs": [
        {
          "internalType": "address",
          "name": "_address",
          "type": "address"
        }
      ],
      "name": "unfollow",
      "outputs": [],
      "stateMutability": "nonpayable",
      "type": "function"
    }
  ],
  "bytecode": "0x60806040523480156200001157600080fd5b50600054610100900460ff16806200002c575060005460ff16155b620000845760405162461bcd60e51b815260206004820152602e60248201526000805160206200469083398151915260448201526d191e481a5b9a5d1a585b1a5e995960921b60648201526084015b60405180910390fd5b600054610100900460ff16158015620000a7576000805461ffff19166101011790555b620000f76040518060400160405280600a8152602001690a8eed2e8e8cae48aa8960b31b815250604051806040016040528060048152602001635457544560e01b8152506200011160201b60201c565b80156200010a576000805461ff00191690555b5062000438565b600054610100900460ff16806200012b575060005460ff16155b6200017f5760405162461bcd60e51b815260206004820152602e60248201526000805160206200469083398151915260448201526d191e481a5b9a5d1a585b1a5e995960921b60648201526084016200007b565b600054610100900460ff16158015620001a2576000805461ffff19166101011790555b620001ac620001da565b620001b6620001da565b620001c2838362000281565b8015620001d5576000805461ff00191690555b505050565b600054610100900460ff1680620001f4575060005460ff16155b620002485760405162461bcd60e51b815260206004820152602e60248201526000805160206200469083398151915260448201526d191e481a5b9a5d1a585b1a5e995960921b60648201526084016200007b565b600054610100900460ff161580156200026b576000805461ffff19166101011790555b80156200027e576000805461ff00191690555b50565b600054610100900460ff16806200029b575060005460ff16155b620002ef5760405162461bcd60e51b815260206004820152602e60248201526000805160206200469083398151915260448201526d191e481a5b9a5d1a585b1a5e995960921b60648201526084016200007b565b600054610100900460ff1615801562000312576000805461ffff19166101011790555b82516200032790606590602086019062000355565b5081516200033d90606690602085019062000355565b508015620001d5576000805461ff0019169055505050565b8280546200036390620003fb565b90600052602060002090601f016020900481019282620003875760008555620003d2565b82601f10620003a257805160ff1916838001178555620003d2565b82800160010185558215620003d2579182015b82811115620003d2578251825591602001919060010190620003b5565b50620003e0929150620003e4565b5090565b5b80821115620003e05760008155600101620003e5565b600181811c908216806200041057607f821691505b602082108114156200043257634e487b7160e01b600052602260045260246000fd5b50919050565b61424880620004486000396000f3fe608060405234801561001057600080fd5b50600436106101f05760003560e01c80636352211e1161010f578063c87b56dd116100a2578063dedf1b4a11610071578063dedf1b4a14610443578063e8d857b014610456578063e985e9c514610469578063ebd009d3146104a557600080fd5b8063c87b56dd146103f7578063cca22f791461040a578063d8384b8a1461041d578063de440e0e1461043057600080fd5b8063a22cb465116100de578063a22cb4651461038d578063a2898a30146103a0578063b88d4fde146103c4578063c2fe2022146103d757600080fd5b80636352211e1461035757806370a082311461036a5780638129fc1c1461037d57806395d89b411461038557600080fd5b80632f5899d71161018757806342842e0e1161015657806342842e0e146103165780634dbf27cc146103295780634f6ccce71461033c57806362a1c5831461034f57600080fd5b80632f5899d7146102bd5780632f745c59146102dd578063378a35cd146102f057806340c184af1461030357600080fd5b8063095ea7b3116101c3578063095ea7b31461027257806309d4d7961461028557806318160ddd1461029857806323b872dd146102aa57600080fd5b8063015a4ead146101f557806301ffc9a71461020a57806306fdde0314610232578063081812fc14610247575b600080fd5b610208610203366004613a33565b6104b8565b005b61021d610218366004613b96565b6108b3565b60405190151581526020015b60405180910390f35b61023a6108f7565b6040516102299190613f78565b61025a610255366004613c50565b610989565b6040516001600160a01b039091168152602001610229565b610208610280366004613b6d565b610a1e565b61021d610293366004613a33565b610b50565b6099545b604051908152602001610229565b6102086102b8366004613a7f565b610be5565b6102d06102cb366004613a33565b610c6c565b6040516102299190613e3e565b61029c6102eb366004613b6d565b611039565b6102086102fe366004613c50565b6110e1565b6102d0610311366004613bce565b6112ef565b610208610324366004613a7f565b611771565b610208610337366004613a33565b61178c565b61029c61034a366004613c50565b6119ac565b6102d0611a5e565b61025a610365366004613c50565b611c79565b61029c610378366004613a33565b611d04565b610208611d9e565b61023a611e60565b61020861039b366004613b33565b611e6f565b6103b36103ae366004613b6d565b611e7a565b604051610229959493929190613f8b565b6102086103d2366004613aba565b611feb565b6103ea6103e5366004613a33565b612079565b6040516102299190613f36565b61023a610405366004613c50565b6120f6565b6103ea610418366004613a33565b61218c565b61023a61042b366004613c50565b6121fb565b61020861043e366004613bef565b612554565b61025a610451366004613b6d565b6128d4565b6103b3610464366004613c50565b61290c565b61021d610477366004613a4d565b6001600160a01b039182166000908152606a6020908152604080832093909416825291909152205460ff1690565b61025a6104b3366004613b6d565b612941565b6001600160a01b0381163314156105165760405162461bcd60e51b815260206004820152601d60248201527f596f752063616e6e6f7420756e666f6c6c6f7720796f757273656c662e00000060448201526064015b60405180910390fd5b60005b33600090815260ca60205260409020548110156106d05733600090815260ca6020526040902080546001600160a01b03841691908390811061056b57634e487b7160e01b600052603260045260246000fd5b6000918252602090912001546001600160a01b031614156106be57805b33600090815260ca60205260409020546105a49060019061407a565b81101561066e5733600090815260ca602052604090206105c5826001613fd7565b815481106105e357634e487b7160e01b600052603260045260246000fd5b9060005260206000200160ca6000336001600160a01b03166001600160a01b03168152602001908152602001600020828154811061063157634e487b7160e01b600052603260045260246000fd5b600091825260209091209154910180546001600160a01b0319166001600160a01b039092169190911790558061066681614116565b915050610588565b5033600090815260ca6020526040902080548061069b57634e487b7160e01b600052603160045260246000fd5b600082815260209020810160001990810180546001600160a01b03191690550190555b806106c881614116565b915050610519565b5060005b6001600160a01b038216600090815260cb60205260409020548110156108af576001600160a01b038216600090815260cb6020526040902080543391908390811061072f57634e487b7160e01b600052603260045260246000fd5b6000918252602090912001546001600160a01b0316141561089d57805b6001600160a01b038316600090815260cb60205260409020546107719060019061407a565b811015610844576001600160a01b038316600090815260cb6020526040902061079b826001613fd7565b815481106107b957634e487b7160e01b600052603260045260246000fd5b9060005260206000200160cb6000856001600160a01b03166001600160a01b03168152602001908152602001600020828154811061080757634e487b7160e01b600052603260045260246000fd5b600091825260209091209154910180546001600160a01b0319166001600160a01b039092169190911790558061083c81614116565b91505061074c565b506001600160a01b038216600090815260cb6020526040902080548061087a57634e487b7160e01b600052603160045260246000fd5b600082815260209020810160001990810180546001600160a01b03191690550190555b806108a781614116565b9150506106d4565b5050565b60006001600160e01b031982167f780e9d630000000000000000000000000000000000000000000000000000000014806108f157506108f18261295d565b92915050565b606060658054610906906140db565b80601f0160208091040260200160405190810160405280929190818152602001828054610932906140db565b801561097f5780601f106109545761010080835404028352916020019161097f565b820191906000526020600020905b81548152906001019060200180831161096257829003601f168201915b5050505050905090565b6000818152606760205260408120546001600160a01b0316610a025760405162461bcd60e51b815260206004820152602c60248201527f4552433732313a20617070726f76656420717565727920666f72206e6f6e657860448201526b34b9ba32b73a103a37b5b2b760a11b606482015260840161050d565b506000908152606960205260409020546001600160a01b031690565b6000610a2982611c79565b9050806001600160a01b0316836001600160a01b03161415610ab35760405162461bcd60e51b815260206004820152602160248201527f4552433732313a20617070726f76616c20746f2063757272656e74206f776e6560448201527f7200000000000000000000000000000000000000000000000000000000000000606482015260840161050d565b336001600160a01b0382161480610acf5750610acf8133610477565b610b415760405162461bcd60e51b815260206004820152603860248201527f4552433732313a20617070726f76652063616c6c6572206973206e6f74206f7760448201527f6e6572206e6f7220617070726f76656420666f7220616c6c0000000000000000606482015260840161050d565b610b4b83836129f8565b505050565b600080805b33600090815260ca6020526040902054811015610bde5733600090815260ca6020526040902080546001600160a01b038616919083908110610ba757634e487b7160e01b600052603260045260246000fd5b6000918252602090912001546001600160a01b03161415610bcc575060019392505050565b80610bd681614116565b915050610b55565b5092915050565b610bef3382612a66565b610c615760405162461bcd60e51b815260206004820152603160248201527f4552433732313a207472616e736665722063616c6c6572206973206e6f74206f60448201527f776e6572206e6f7220617070726f766564000000000000000000000000000000606482015260840161050d565b610b4b838383612b5d565b60606000805b60c954811015610cea57836001600160a01b031660c98281548110610ca757634e487b7160e01b600052603260045260246000fd5b60009182526020909120600260069092020101546001600160a01b03161415610cd85781610cd481614116565b9250505b80610ce281614116565b915050610c72565b5060008167ffffffffffffffff811115610d1457634e487b7160e01b600052604160045260246000fd5b604051908082528060200260200182016040528015610d8757816020015b610d746040518060c00160405280600081526020016060815260200160006001600160a01b031681526020016000815260200160608152602001606081525090565b815260200190600190039081610d325790505b509050600080600160c980549050610d9f919061407a565b90505b8060001361102f57856001600160a01b031660c98281548110610dd557634e487b7160e01b600052603260045260246000fd5b60009182526020909120600260069092020101546001600160a01b0316141561101d5760c98181548110610e1957634e487b7160e01b600052603260045260246000fd5b90600052602060002090600602016040518060c001604052908160008201548152602001600182018054610e4c906140db565b80601f0160208091040260200160405190810160405280929190818152602001828054610e78906140db565b8015610ec55780601f10610e9a57610100808354040283529160200191610ec5565b820191906000526020600020905b815481529060010190602001808311610ea857829003601f168201915b505050918352505060028201546001600160a01b0316602082015260038201546040820152600482018054606090920191610eff906140db565b80601f0160208091040260200160405190810160405280929190818152602001828054610f2b906140db565b8015610f785780601f10610f4d57610100808354040283529160200191610f78565b820191906000526020600020905b815481529060010190602001808311610f5b57829003601f168201915b5050505050815260200160058201805480602002602001604051908101604052809291908181526020018280548015610fda57602002820191906000526020600020905b81546001600160a01b03168152600190910190602001808311610fbc575b50505050508152505083838151811061100357634e487b7160e01b600052603260045260246000fd5b6020026020010181905250818061101990614116565b9250505b80611027816140bd565b915050610da2565b5090949350505050565b600061104483611d04565b82106110b85760405162461bcd60e51b815260206004820152602b60248201527f455243373231456e756d657261626c653a206f776e657220696e646578206f7560448201527f74206f6620626f756e6473000000000000000000000000000000000000000000606482015260840161050d565b506001600160a01b03919091166000908152609760209081526040808320938352929052205490565b60005b33600090815260cc602052604090205481101561115b5733600090815260cc6020526040902080548391908390811061112d57634e487b7160e01b600052603260045260246000fd5b9060005260206000209060060201600001541415611149575050565b8061115381614116565b9150506110e4565b5060005b60c9548110156108af578160c9828154811061118b57634e487b7160e01b600052603260045260246000fd5b90600052602060002090600602016000015414156112dd5760c981815481106111c457634e487b7160e01b600052603260045260246000fd5b6000918252602080832060056006909302019190910180546001810182559083528183200180546001600160a01b03191633908117909155825260cc90526040902060c980548390811061122857634e487b7160e01b600052603260045260246000fd5b6000918252602080832084546001818101875595855291909320600692830290930180549190920290920191825582810180549193830191611269906140db565b6112749291906137d3565b5060028281015490820180546001600160a01b0319166001600160a01b039092169190911790556003808301549082015560048083018054918301916112b9906140db565b6112c49291906137d3565b50600582810180546112d9928401919061385e565b5050505b806112e781614116565b91505061115f565b606060008312156113685760405162461bcd60e51b815260206004820152602a60248201527f4f6666736574206d7573742062652067726561746572207468616e206f72206560448201527f7175616c20746f20302e00000000000000000000000000000000000000000000606482015260840161050d565b60c9548311156113e55760408051600080825260208201909252906113dd565b6113ca6040518060c00160405280600081526020016060815260200160006001600160a01b031681526020016000815260200160608152602001606081525090565b8152602001906001900390816113885790505b5090506108f1565b60c9546000836113f58684614022565b13611409576114048583614022565b61140b565b835b905060008167ffffffffffffffff81111561143657634e487b7160e01b600052604160045260246000fd5b6040519080825280602002602001820160405280156114a957816020015b6114966040518060c00160405280600081526020016060815260200160006001600160a01b031681526020016000815260200160608152602001606081525090565b8152602001906001900390816114545790505b50905060008060016114bb8986614022565b6114c59190614022565b90505b80876114d48a87614022565b6114de9190614022565b136117655760016114ef8986614022565b6114f99190614022565b811315801561151c5750808761150f8a87614022565b6115199190614022565b13155b8015611529575060008112155b156117535760c9818154811061154f57634e487b7160e01b600052603260045260246000fd5b90600052602060002090600602016040518060c001604052908160008201548152602001600182018054611582906140db565b80601f01602080910402602001604051908101604052809291908181526020018280546115ae906140db565b80156115fb5780601f106115d0576101008083540402835291602001916115fb565b820191906000526020600020905b8154815290600101906020018083116115de57829003601f168201915b505050918352505060028201546001600160a01b0316602082015260038201546040820152600482018054606090920191611635906140db565b80601f0160208091040260200160405190810160405280929190818152602001828054611661906140db565b80156116ae5780601f10611683576101008083540402835291602001916116ae565b820191906000526020600020905b81548152906001019060200180831161169157829003601f168201915b505050505081526020016005820180548060200260200160405190810160405280929190818152602001828054801561171057602002820191906000526020600020905b81546001600160a01b031681526001909101906020018083116116f2575b50505050508152505083838151811061173957634e487b7160e01b600052603260045260246000fd5b6020026020010181905250818061174f90614116565b9250505b8061175d816140bd565b9150506114c8565b50909695505050505050565b610b4b83838360405180602001604052806000815250611feb565b6001600160a01b0381163314156117e55760405162461bcd60e51b815260206004820152601b60248201527f596f752063616e6e6f7420666f6c6c6f7720796f757273656c662e0000000000604482015260640161050d565b6000805b33600090815260ca602052604090205481101561186d5733600090815260ca6020526040902080546001600160a01b03851691908390811061183b57634e487b7160e01b600052603260045260246000fd5b6000918252602090912001546001600160a01b0316141561185b57600191505b8061186581614116565b9150506117e9565b50806118c45733600090815260ca6020908152604080832081518084019092526001600160a01b0386811683528154600181018355918552929093209051920180546001600160a01b031916929091169190911790555b506000805b6001600160a01b038316600090815260cb6020526040902054811015611956576001600160a01b038316600090815260cb6020526040902080543391908390811061192457634e487b7160e01b600052603260045260246000fd5b6000918252602090912001546001600160a01b0316141561194457600191505b8061194e81614116565b9150506118c9565b50806108af57506001600160a01b03908116600090815260cb6020908152604080832081518084019092523382528054600181018255908452919092209151910180546001600160a01b03191691909216179055565b60006119b760995490565b8210611a2b5760405162461bcd60e51b815260206004820152602c60248201527f455243373231456e756d657261626c653a20676c6f62616c20696e646578206f60448201527f7574206f6620626f756e64730000000000000000000000000000000000000000606482015260840161050d565b60998281548110611a4c57634e487b7160e01b600052603260045260246000fd5b90600052602060002001549050919050565b33600090815260cc60209081526040808320805482518185028101850190935280835260609492939192909184015b82821015611c7057838290600052602060002090600602016040518060c001604052908160008201548152602001600182018054611aca906140db565b80601f0160208091040260200160405190810160405280929190818152602001828054611af6906140db565b8015611b435780601f10611b1857610100808354040283529160200191611b43565b820191906000526020600020905b815481529060010190602001808311611b2657829003601f168201915b505050918352505060028201546001600160a01b0316602082015260038201546040820152600482018054606090920191611b7d906140db565b80601f0160208091040260200160405190810160405280929190818152602001828054611ba9906140db565b8015611bf65780601f10611bcb57610100808354040283529160200191611bf6565b820191906000526020600020905b815481529060010190602001808311611bd957829003601f168201915b5050505050815260200160058201805480602002602001604051908101604052809291908181526020018280548015611c5857602002820191906000526020600020905b81546001600160a01b03168152600190910190602001808311611c3a575b50505050508152505081526020019060010190611a8d565b50505050905090565b6000818152606760205260408120546001600160a01b0316806108f15760405162461bcd60e51b815260206004820152602960248201527f4552433732313a206f776e657220717565727920666f72206e6f6e657869737460448201527f656e7420746f6b656e0000000000000000000000000000000000000000000000606482015260840161050d565b60006001600160a01b038216611d825760405162461bcd60e51b815260206004820152602a60248201527f4552433732313a2062616c616e636520717565727920666f7220746865207a6560448201527f726f206164647265737300000000000000000000000000000000000000000000606482015260840161050d565b506001600160a01b031660009081526068602052604090205490565b600054610100900460ff1680611db7575060005460ff16155b611e295760405162461bcd60e51b815260206004820152602e60248201527f496e697469616c697a61626c653a20636f6e747261637420697320616c72656160448201527f647920696e697469616c697a6564000000000000000000000000000000000000606482015260840161050d565b600054610100900460ff16158015611e4b576000805461ffff19166101011790555b8015611e5d576000805461ff00191690555b50565b606060668054610906906140db565b6108af338383612d35565b60cc6020528160005260406000208181548110611e9657600080fd5b906000526020600020906006020160009150915050806000015490806001018054611ec0906140db565b80601f0160208091040260200160405190810160405280929190818152602001828054611eec906140db565b8015611f395780601f10611f0e57610100808354040283529160200191611f39565b820191906000526020600020905b815481529060010190602001808311611f1c57829003601f168201915b505050506002830154600384015460048501805494956001600160a01b039093169491935090611f68906140db565b80601f0160208091040260200160405190810160405280929190818152602001828054611f94906140db565b8015611fe15780601f10611fb657610100808354040283529160200191611fe1565b820191906000526020600020905b815481529060010190602001808311611fc457829003601f168201915b5050505050905085565b611ff53383612a66565b6120675760405162461bcd60e51b815260206004820152603160248201527f4552433732313a207472616e736665722063616c6c6572206973206e6f74206f60448201527f776e6572206e6f7220617070726f766564000000000000000000000000000000606482015260840161050d565b61207384848484612e04565b50505050565b6001600160a01b038116600090815260cb60209081526040808320805482518185028101850190935280835260609492939192909184015b828210156120eb57600084815260209081902060408051808401909152908401546001600160a01b031681528252600190920191016120b1565b505050509050919050565b6000818152606760205260409020546060906001600160a01b03166121835760405162461bcd60e51b815260206004820152602f60248201527f4552433732314d657461646174613a2055524920717565727920666f72206e6f60448201527f6e6578697374656e7420746f6b656e0000000000000000000000000000000000606482015260840161050d565b6108f1826121fb565b6001600160a01b038116600090815260ca602090815260408083208054825181850281018501909352808352606094929391929091840182156120eb57600084815260209081902060408051808401909152908401546001600160a01b031681528252600190920191016120b1565b606061223f6040518060c00160405280600081526020016060815260200160006001600160a01b031681526020016000815260200160608152602001606081525090565b60005b60c954811015612486578360c9828154811061226e57634e487b7160e01b600052603260045260246000fd5b90600052602060002090600602016000015414156124745760c981815481106122a757634e487b7160e01b600052603260045260246000fd5b90600052602060002090600602016040518060c0016040529081600082015481526020016001820180546122da906140db565b80601f0160208091040260200160405190810160405280929190818152602001828054612306906140db565b80156123535780601f1061232857610100808354040283529160200191612353565b820191906000526020600020905b81548152906001019060200180831161233657829003601f168201915b505050918352505060028201546001600160a01b031660208201526003820154604082015260048201805460609092019161238d906140db565b80601f01602080910402602001604051908101604052809291908181526020018280546123b9906140db565b80156124065780601f106123db57610100808354040283529160200191612406565b820191906000526020600020905b8154815290600101906020018083116123e957829003601f168201915b505050505081526020016005820180548060200260200160405190810160405280929190818152602001828054801561246857602002820191906000526020600020905b81546001600160a01b0316815260019091019060200180831161244a575b50505050508152505091505b8061247e81614116565b915050612242565b50805183146124d75760405162461bcd60e51b815260206004820152601060248201527f5477656574206e6f7420666f756e642e00000000000000000000000000000000604482015260640161050d565b61252d6124e384612e82565b826020015160405180606001604052806035815260200161419e6035913984608001516040516020016125199493929190613c94565b604051602081830303815290604052612fd0565b60405160200161253d9190613dbd565b604051602081830303815290604052915050919050565b600061255f60995490565b9050600061256e826001613fd7565b90506125b26040518060c00160405280600081526020016060815260200160006001600160a01b031681526020016000815260200160608152602001606081525090565b8351156126cf5781815260208082018681523360408401524260608401526080830186905260c9805460018101825560009190915283517f66be4f155c5ef2ebd3772b228f2f00681e4ed5826cdb3b1943cc11ad15ad1d286006909202918201908155915180518594612649937f66be4f155c5ef2ebd3772b228f2f00681e4ed5826cdb3b1943cc11ad15ad1d290192019061389d565b5060408201516002820180546001600160a01b0319166001600160a01b03909216919091179055606082015160038201556080820151805161269591600484019160209091019061389d565b5060a082015180516126b1916005840191602090910190613911565b5050506126ca338460016126c59190613fd7565b61317d565b61288c565b845161271d5760405162461bcd60e51b815260206004820152601260248201527f547765657420697320746f6f2073686f72740000000000000000000000000000604482015260640161050d565b61272685613197565b6127725760405162461bcd60e51b815260206004820181905260248201527f5370616365206f6e6c79207477656574206973206e6f7420616c6c6f7765642e604482015260640161050d565b81815260208082018681523360408085019190915242606085015280518084019091526000808252608085019190915260c98054600181018255915283517f66be4f155c5ef2ebd3772b228f2f00681e4ed5826cdb3b1943cc11ad15ad1d286006909202918201908155915180518594612810937f66be4f155c5ef2ebd3772b228f2f00681e4ed5826cdb3b1943cc11ad15ad1d290192019061389d565b5060408201516002820180546001600160a01b0319166001600160a01b03909216919091179055606082015160038201556080820151805161285c91600484019160209091019061389d565b5060a08201518051612878916005840191602090910190613911565b50505061288c338460016126c59190613fd7565b336001600160a01b03167fed917e0e51bb528b7fef2750065cd119dddd8e8fa54f38a656d4107e7c14f37a866040516128c59190613f78565b60405180910390a25050505050565b60ca60205281600052604060002081815481106128f057600080fd5b6000918252602090912001546001600160a01b03169150829050565b60c9818154811061291c57600080fd5b60009182526020909120600690910201805460018201805491935090611ec0906140db565b60cb60205281600052604060002081815481106128f057600080fd5b60006001600160e01b031982167f80ac58cd0000000000000000000000000000000000000000000000000000000014806129c057506001600160e01b031982167f5b5e139f00000000000000000000000000000000000000000000000000000000145b806108f157507f01ffc9a7000000000000000000000000000000000000000000000000000000006001600160e01b03198316146108f1565b600081815260696020526040902080546001600160a01b0319166001600160a01b0384169081179091558190612a2d82611c79565b6001600160a01b03167f8c5be1e5ebec7d5bd14f71427d1e84f3dd0314c0f7b2291e5b200ac8c7c3b92560405160405180910390a45050565b6000818152606760205260408120546001600160a01b0316612adf5760405162461bcd60e51b815260206004820152602c60248201527f4552433732313a206f70657261746f7220717565727920666f72206e6f6e657860448201526b34b9ba32b73a103a37b5b2b760a11b606482015260840161050d565b6000612aea83611c79565b9050806001600160a01b0316846001600160a01b03161480612b255750836001600160a01b0316612b1a84610989565b6001600160a01b0316145b80612b5557506001600160a01b038082166000908152606a602090815260408083209388168352929052205460ff165b949350505050565b826001600160a01b0316612b7082611c79565b6001600160a01b031614612bec5760405162461bcd60e51b815260206004820152602960248201527f4552433732313a207472616e73666572206f6620746f6b656e2074686174206960448201527f73206e6f74206f776e0000000000000000000000000000000000000000000000606482015260840161050d565b6001600160a01b038216612c675760405162461bcd60e51b8152602060048201526024808201527f4552433732313a207472616e7366657220746f20746865207a65726f2061646460448201527f7265737300000000000000000000000000000000000000000000000000000000606482015260840161050d565b612c7283838361323d565b612c7d6000826129f8565b6001600160a01b0383166000908152606860205260408120805460019290612ca690849061407a565b90915550506001600160a01b0382166000908152606860205260408120805460019290612cd4908490613fd7565b909155505060008181526067602052604080822080546001600160a01b0319166001600160a01b0386811691821790925591518493918716917fddf252ad1be2c89b69c2b068fc378daa952ba7f163c4a11628f55a4df523b3ef91a4505050565b816001600160a01b0316836001600160a01b03161415612d975760405162461bcd60e51b815260206004820152601960248201527f4552433732313a20617070726f766520746f2063616c6c657200000000000000604482015260640161050d565b6001600160a01b038381166000818152606a6020908152604080832094871680845294825291829020805460ff191686151590811790915591519182527f17307eab39ab6107e8899845ad3d59bd9653f200f220920489ca2b5937696c31910160405180910390a3505050565b612e0f848484612b5d565b612e1b848484846132f5565b6120735760405162461bcd60e51b815260206004820152603260248201527f4552433732313a207472616e7366657220746f206e6f6e20455243373231526560448201527131b2b4bb32b91034b6b83632b6b2b73a32b960711b606482015260840161050d565b606081612ec257505060408051808201909152600181527f3000000000000000000000000000000000000000000000000000000000000000602082015290565b8160005b8115612eec5780612ed681614116565b9150612ee59050600a83613fef565b9150612ec6565b60008167ffffffffffffffff811115612f1557634e487b7160e01b600052604160045260246000fd5b6040519080825280601f01601f191660200182016040528015612f3f576020820181803683370190505b5090505b8415612b5557612f5460018361407a565b9150612f61600a86614131565b612f6c906030613fd7565b60f81b818381518110612f8f57634e487b7160e01b600052603260045260246000fd5b60200101907effffffffffffffffffffffffffffffffffffffffffffffffffffffffffffff1916908160001a905350612fc9600a86613fef565b9450612f43565b6060815160001415612ff057505060408051602081019091526000815290565b60006040518060600160405280604081526020016141d3604091399050600060038451600261301f9190613fd7565b6130299190613fef565b613034906004614003565b90506000613043826020613fd7565b67ffffffffffffffff81111561306957634e487b7160e01b600052604160045260246000fd5b6040519080825280601f01601f191660200182016040528015613093576020820181803683370190505b509050818152600183018586518101602084015b818310156131015760039283018051603f601282901c811687015160f890811b8552600c83901c8216880151811b6001860152600683901c8216880151811b60028601529116860151901b938201939093526004016130a7565b60038951066001811461311b57600281146131475761316f565b7f3d3d00000000000000000000000000000000000000000000000000000000000060011983015261316f565b7f3d000000000000000000000000000000000000000000000000000000000000006000198301525b509398975050505050505050565b6108af82826040518060200160405280600081525061344d565b60006001815b83518110156132355760008482815181106131c857634e487b7160e01b600052603260045260246000fd5b01602001517fff000000000000000000000000000000000000000000000000000000000000001690507f20000000000000000000000000000000000000000000000000000000000000008114613222576000925050613235565b508061322d81614116565b91505061319d565b501592915050565b6001600160a01b0383166132985761329381609980546000838152609a60205260408120829055600182018355919091527f72a152ddfb8e864297c917af52ea6c1c68aead0fee1a62673fcc7e0c94979d000155565b6132bb565b816001600160a01b0316836001600160a01b0316146132bb576132bb83826134cb565b6001600160a01b0382166132d257610b4b81613568565b826001600160a01b0316826001600160a01b031614610b4b57610b4b8282613641565b60006001600160a01b0384163b1561344257604051630a85bd0160e11b81526001600160a01b0385169063150b7a0290613339903390899088908890600401613e02565b602060405180830381600087803b15801561335357600080fd5b505af1925050508015613383575060408051601f3d908101601f1916820190925261338091810190613bb2565b60015b613428573d8080156133b1576040519150601f19603f3d011682016040523d82523d6000602084013e6133b6565b606091505b5080516134205760405162461bcd60e51b815260206004820152603260248201527f4552433732313a207472616e7366657220746f206e6f6e20455243373231526560448201527131b2b4bb32b91034b6b83632b6b2b73a32b960711b606482015260840161050d565b805181602001fd5b6001600160e01b031916630a85bd0160e11b149050612b55565b506001949350505050565b6134578383613685565b61346460008484846132f5565b610b4b5760405162461bcd60e51b815260206004820152603260248201527f4552433732313a207472616e7366657220746f206e6f6e20455243373231526560448201527131b2b4bb32b91034b6b83632b6b2b73a32b960711b606482015260840161050d565b600060016134d884611d04565b6134e2919061407a565b600083815260986020526040902054909150808214613535576001600160a01b03841660009081526097602090815260408083208584528252808320548484528184208190558352609890915290208190555b5060009182526098602090815260408084208490556001600160a01b039094168352609781528383209183525290812055565b60995460009061357a9060019061407a565b6000838152609a6020526040812054609980549394509092849081106135b057634e487b7160e01b600052603260045260246000fd5b9060005260206000200154905080609983815481106135df57634e487b7160e01b600052603260045260246000fd5b6000918252602080832090910192909255828152609a9091526040808220849055858252812055609980548061362557634e487b7160e01b600052603160045260246000fd5b6001900381819060005260206000200160009055905550505050565b600061364c83611d04565b6001600160a01b039093166000908152609760209081526040808320868452825280832085905593825260989052919091209190915550565b6001600160a01b0382166136db5760405162461bcd60e51b815260206004820181905260248201527f4552433732313a206d696e7420746f20746865207a65726f2061646472657373604482015260640161050d565b6000818152606760205260409020546001600160a01b0316156137405760405162461bcd60e51b815260206004820152601c60248201527f4552433732313a20746f6b656e20616c7265616479206d696e74656400000000604482015260640161050d565b61374c6000838361323d565b6001600160a01b0382166000908152606860205260408120805460019290613775908490613fd7565b909155505060008181526067602052604080822080546001600160a01b0319166001600160a01b03861690811790915590518392907fddf252ad1be2c89b69c2b068fc378daa952ba7f163c4a11628f55a4df523b3ef908290a45050565b8280546137df906140db565b90600052602060002090601f016020900481019282613801576000855561384e565b82601f10613812578054855561384e565b8280016001018555821561384e57600052602060002091601f016020900482015b8281111561384e578254825591600101919060010190613833565b5061385a929150613966565b5090565b82805482825590600052602060002090810192821561384e5760005260206000209182018281111561384e578254825591600101919060010190613833565b8280546138a9906140db565b90600052602060002090601f0160209004810192826138cb576000855561384e565b82601f106138e457805160ff191683800117855561384e565b8280016001018555821561384e579182015b8281111561384e5782518255916020019190600101906138f6565b82805482825590600052602060002090810192821561384e579160200282015b8281111561384e57825182546001600160a01b0319166001600160a01b03909116178255602090920191600190910190613931565b5b8082111561385a5760008155600101613967565b600067ffffffffffffffff8084111561399657613996614171565b604051601f8501601f19908116603f011681019082821181831017156139be576139be614171565b816040528093508581528686860111156139d757600080fd5b858560208301376000602087830101525050509392505050565b80356001600160a01b0381168114613a0857600080fd5b919050565b600082601f830112613a1d578081fd5b613a2c8383356020850161397b565b9392505050565b600060208284031215613a44578081fd5b613a2c826139f1565b60008060408385031215613a5f578081fd5b613a68836139f1565b9150613a76602084016139f1565b90509250929050565b600080600060608486031215613a93578081fd5b613a9c846139f1565b9250613aaa602085016139f1565b9150604084013590509250925092565b60008060008060808587031215613acf578081fd5b613ad8856139f1565b9350613ae6602086016139f1565b925060408501359150606085013567ffffffffffffffff811115613b08578182fd5b8501601f81018713613b18578182fd5b613b278782356020840161397b565b91505092959194509250565b60008060408385031215613b45578182fd5b613b4e836139f1565b915060208301358015158114613b62578182fd5b809150509250929050565b60008060408385031215613b7f578182fd5b613b88836139f1565b946020939093013593505050565b600060208284031215613ba7578081fd5b8135613a2c81614187565b600060208284031215613bc3578081fd5b8151613a2c81614187565b60008060408385031215613be0578182fd5b50508035926020909101359150565b60008060408385031215613c01578182fd5b823567ffffffffffffffff80821115613c18578384fd5b613c2486838701613a0d565b93506020850135915080821115613c39578283fd5b50613c4685828601613a0d565b9150509250929050565b600060208284031215613c61578081fd5b5035919050565b60008151808452613c80816020860160208601614091565b601f01601f19169290920160200192915050565b7f7b226e616d65223a225477656574202300000000000000000000000000000000815260008551613ccc816010850160208a01614091565b7f222c20226465736372697074696f6e223a2200000000000000000000000000006010918401918201528551613d09816022840160208a01614091565b7f222c2022696d616765223a202200000000000000000000000000000000000000602292909101918201528451613d4781602f840160208901614091565b7f222c2022696d6167655f64617461223a20220000000000000000000000000000602f92909101918201528351613d85816041840160208801614091565b7f227d000000000000000000000000000000000000000000000000000000000000604192909101918201526043019695505050505050565b7f646174613a6170706c69636174696f6e2f6a736f6e3b6261736536342c000000815260008251613df581601d850160208701614091565b91909101601d0192915050565b60006001600160a01b03808716835280861660208401525083604083015260806060830152613e346080830184613c68565b9695505050505050565b60006020808301818452808551808352604092508286019150828160051b870101848801865b83811015613f2857603f19898403018552815160c08151855288820151818a870152613e9282870182613c68565b838a01516001600160a01b03908116888c015260608086015190890152608080860151898403828b0152929450925090613ecc8482613c68565b60a095860151898203968a01969096528551808252958d01958e9550908d01935090505b80841015613f1257845182168352938b019360019390930192918b0191613ef0565b5050968901969450505090860190600101613e64565b509098975050505050505050565b6020808252825182820181905260009190848201906040850190845b81811015611765578351516001600160a01b031683529284019291840191600101613f52565b602081526000613a2c6020830184613c68565b85815260a060208201526000613fa460a0830187613c68565b6001600160a01b03861660408401528460608401528281036080840152613fcb8185613c68565b98975050505050505050565b60008219821115613fea57613fea614145565b500190565b600082613ffe57613ffe61415b565b500490565b600081600019048311821515161561401d5761401d614145565b500290565b600080831283600160ff1b0183128115161561404057614040614145565b837f7fffffffffffffffffffffffffffffffffffffffffffffffffffffffffffffff01831381161561407457614074614145565b50500390565b60008282101561408c5761408c614145565b500390565b60005b838110156140ac578181015183820152602001614094565b838111156120735750506000910152565b6000600160ff1b8214156140d3576140d3614145565b506000190190565b600181811c908216806140ef57607f821691505b6020821081141561411057634e487b7160e01b600052602260045260246000fd5b50919050565b600060001982141561412a5761412a614145565b5060010190565b6000826141405761414061415b565b500690565b634e487b7160e01b600052601160045260246000fd5b634e487b7160e01b600052601260045260246000fd5b634e487b7160e01b600052604160045260246000fd5b6001600160e01b031981168114611e5d57600080fdfe697066733a2f2f516d57566647316d48635973345139484753484a59656468454566554d684551396d51484b4646545761793831754142434445464748494a4b4c4d4e4f505152535455565758595a6162636465666768696a6b6c6d6e6f707172737475767778797a303132333435363738392b2fa2646970667358221220f74241b2b41f6f0c6b6bcb5aaf8ef049a0bec86f9cc5f429e7faae7a0c160d0b64736f6c63430008040033496e697469616c697a61626c653a20636f6e747261637420697320616c726561",
  "linkReferences": {},
  "deployedLinkReferences": {}
}