{
  "_format": "hh-sol-artifact-1",
  "contractName": "TwitterV1",
  "sourceName": "contracts/TwitterV1.sol",
  "abi": [
    {
      "inputs": [],
      "stateMutability": "nonpayable",
      "type": "constructor"
    },
    {
      "anonymous": false,
      "inputs": [
        {
          "indexed": true,
          "internalType": "address",
          "name": "owner",
          "type": "address"
        },
        {
          "indexed": true,
          "internalType": "address",
          "name": "approved",
          "type": "address"
        },
        {
          "indexed": true,
          "internalType": "uint256",
          "name": "tokenId",
          "type": "uint256"
        }
      ],
      "name": "Approval",
      "type": "event"
    },
    {
      "anonymous": false,
      "inputs": [
        {
          "indexed": true,
          "internalType": "address",
          "name": "owner",
          "type": "address"
        },
        {
          "indexed": true,
          "internalType": "address",
          "name": "operator",
          "type": "address"
        },
        {
          "indexed": false,
          "internalType": "bool",
          "name": "approved",
          "type": "bool"
        }
      ],
      "name": "ApprovalForAll",
      "type": "event"
    },
    {
      "anonymous": false,
      "inputs": [
        {
          "indexed": true,
          "internalType": "address",
          "name": "from",
          "type": "address"
        },
        {
          "indexed": true,
          "internalType": "address",
          "name": "to",
          "type": "address"
        },
        {
          "indexed": true,
          "internalType": "uint256",
          "name": "tokenId",
          "type": "uint256"
        }
      ],
      "name": "Transfer",
      "type": "event"
    },
    {
      "anonymous": false,
      "inputs": [
        {
          "indexed": true,
          "internalType": "address",
          "name": "sender",
          "type": "address"
        },
        {
          "indexed": false,
          "internalType": "string",
          "name": "tweet",
          "type": "string"
        }
      ],
      "name": "Tweeted",
      "type": "event"
    },
    {
      "inputs": [
        {
          "internalType": "uint256",
          "name": "_tokenId",
          "type": "uint256"
        }
      ],
      "name": "addLike",
      "outputs": [],
      "stateMutability": "nonpayable",
      "type": "function"
    },
    {
      "inputs": [
        {
          "internalType": "address",
          "name": "to",
          "type": "address"
        },
        {
          "internalType": "uint256",
          "name": "tokenId",
          "type": "uint256"
        }
      ],
      "name": "approve",
      "outputs": [],
      "stateMutability": "nonpayable",
      "type": "function"
    },
    {
      "inputs": [
        {
          "internalType": "address",
          "name": "owner",
          "type": "address"
        }
      ],
      "name": "balanceOf",
      "outputs": [
        {
          "internalType": "uint256",
          "name": "",
          "type": "uint256"
        }
      ],
      "stateMutability": "view",
      "type": "function"
    },
    {
      "inputs": [
        {
          "internalType": "uint256",
          "name": "_tokenId",
          "type": "uint256"
        }
      ],
      "name": "buildMetaData",
      "outputs": [
        {
          "internalType": "string",
          "name": "",
          "type": "string"
        }
      ],
      "stateMutability": "view",
      "type": "function"
    },
    {
      "inputs": [
        {
          "internalType": "string",
          "name": "_url",
          "type": "string"
        }
      ],
      "name": "changeIconUrl",
      "outputs": [],
      "stateMutability": "nonpayable",
      "type": "function"
    },
    {
      "inputs": [
        {
          "internalType": "address",
          "name": "_address",
          "type": "address"
        }
      ],
      "name": "follow",
      "outputs": [],
      "stateMutability": "nonpayable",
      "type": "function"
    },
    {
      "inputs": [
        {
          "internalType": "address",
          "name": "",
          "type": "address"
        },
        {
          "internalType": "uint256",
          "name": "",
          "type": "uint256"
        }
      ],
      "name": "followers",
      "outputs": [
        {
          "internalType": "address",
          "name": "id",
          "type": "address"
        },
        {
          "internalType": "string",
          "name": "iconUrl",
          "type": "string"
        }
      ],
      "stateMutability": "view",
      "type": "function"
    },
    {
      "inputs": [
        {
          "internalType": "address",
          "name": "",
          "type": "address"
        },
        {
          "internalType": "uint256",
          "name": "",
          "type": "uint256"
        }
      ],
      "name": "followings",
      "outputs": [
        {
          "internalType": "address",
          "name": "id",
          "type": "address"
        },
        {
          "internalType": "string",
          "name": "iconUrl",
          "type": "string"
        }
      ],
      "stateMutability": "view",
      "type": "function"
    },
    {
      "inputs": [
        {
          "internalType": "uint256",
          "name": "tokenId",
          "type": "uint256"
        }
      ],
      "name": "getApproved",
      "outputs": [
        {
          "internalType": "address",
          "name": "",
          "type": "address"
        }
      ],
      "stateMutability": "view",
      "type": "function"
    },
    {
      "inputs": [
        {
          "internalType": "address",
          "name": "_address",
          "type": "address"
        }
      ],
      "name": "getFollowers",
      "outputs": [
        {
          "components": [
            {
              "internalType": "address",
              "name": "id",
              "type": "address"
            },
            {
              "internalType": "string",
              "name": "iconUrl",
              "type": "string"
            }
          ],
          "internalType": "struct TwitterV1.User[]",
          "name": "",
          "type": "tuple[]"
        }
      ],
      "stateMutability": "view",
      "type": "function"
    },
    {
      "inputs": [
        {
          "internalType": "address",
          "name": "_address",
          "type": "address"
        }
      ],
      "name": "getFollowings",
      "outputs": [
        {
          "components": [
            {
              "internalType": "address",
              "name": "id",
              "type": "address"
            },
            {
              "internalType": "string",
              "name": "iconUrl",
              "type": "string"
            }
          ],
          "internalType": "struct TwitterV1.User[]",
          "name": "",
          "type": "tuple[]"
        }
      ],
      "stateMutability": "view",
      "type": "function"
    },
    {
      "inputs": [
        {
          "internalType": "address",
          "name": "_address",
          "type": "address"
        }
      ],
      "name": "getLikes",
      "outputs": [
        {
          "components": [
            {
              "internalType": "uint256",
              "name": "tokenId",
              "type": "uint256"
            },
            {
              "internalType": "string",
              "name": "content",
              "type": "string"
            },
            {
              "internalType": "address",
              "name": "author",
              "type": "address"
            },
            {
              "internalType": "uint256",
              "name": "timestamp",
              "type": "uint256"
            },
            {
              "internalType": "string",
              "name": "attachment",
              "type": "string"
            },
            {
              "internalType": "address[]",
              "name": "likes",
              "type": "address[]"
            },
            {
              "internalType": "string",
              "name": "iconUrl",
              "type": "string"
            }
          ],
          "internalType": "struct TwitterV1.Tweet[]",
          "name": "",
          "type": "tuple[]"
        }
      ],
      "stateMutability": "view",
      "type": "function"
    },
    {
      "inputs": [
        {
          "internalType": "int256",
          "name": "offset",
          "type": "int256"
        },
        {
          "internalType": "int256",
          "name": "limit",
          "type": "int256"
        }
      ],
      "name": "getTimeline",
      "outputs": [
        {
          "components": [
            {
              "internalType": "uint256",
              "name": "tokenId",
              "type": "uint256"
            },
            {
              "internalType": "string",
              "name": "content",
              "type": "string"
            },
            {
              "internalType": "address",
              "name": "author",
              "type": "address"
            },
            {
              "internalType": "uint256",
              "name": "timestamp",
              "type": "uint256"
            },
            {
              "internalType": "string",
              "name": "attachment",
              "type": "string"
            },
            {
              "internalType": "address[]",
              "name": "likes",
              "type": "address[]"
            },
            {
              "internalType": "string",
              "name": "iconUrl",
              "type": "string"
            }
          ],
          "internalType": "struct TwitterV1.Tweet[]",
          "name": "",
          "type": "tuple[]"
        }
      ],
      "stateMutability": "view",
      "type": "function"
    },
    {
      "inputs": [
        {
          "internalType": "address",
          "name": "_address",
          "type": "address"
        }
      ],
      "name": "getUserIcon",
      "outputs": [
        {
          "internalType": "string",
          "name": "",
          "type": "string"
        }
      ],
      "stateMutability": "view",
      "type": "function"
    },
    {
      "inputs": [
        {
          "internalType": "address",
          "name": "_address",
          "type": "address"
        }
      ],
      "name": "getUserTweets",
      "outputs": [
        {
          "components": [
            {
              "internalType": "uint256",
              "name": "tokenId",
              "type": "uint256"
            },
            {
              "internalType": "string",
              "name": "content",
              "type": "string"
            },
            {
              "internalType": "address",
              "name": "author",
              "type": "address"
            },
            {
              "internalType": "uint256",
              "name": "timestamp",
              "type": "uint256"
            },
            {
              "internalType": "string",
              "name": "attachment",
              "type": "string"
            },
            {
              "internalType": "address[]",
              "name": "likes",
              "type": "address[]"
            },
            {
              "internalType": "string",
              "name": "iconUrl",
              "type": "string"
            }
          ],
          "internalType": "struct TwitterV1.Tweet[]",
          "name": "",
          "type": "tuple[]"
        }
      ],
      "stateMutability": "view",
      "type": "function"
    },
    {
      "inputs": [],
      "name": "initialize",
      "outputs": [],
      "stateMutability": "nonpayable",
      "type": "function"
    },
    {
      "inputs": [
        {
          "internalType": "address",
          "name": "owner",
          "type": "address"
        },
        {
          "internalType": "address",
          "name": "operator",
          "type": "address"
        }
      ],
      "name": "isApprovedForAll",
      "outputs": [
        {
          "internalType": "bool",
          "name": "",
          "type": "bool"
        }
      ],
      "stateMutability": "view",
      "type": "function"
    },
    {
      "inputs": [
        {
          "internalType": "address",
          "name": "_address",
          "type": "address"
        }
      ],
      "name": "isFollowing",
      "outputs": [
        {
          "internalType": "bool",
          "name": "",
          "type": "bool"
        }
      ],
      "stateMutability": "view",
      "type": "function"
    },
    {
      "inputs": [
        {
          "internalType": "address",
          "name": "",
          "type": "address"
        },
        {
          "internalType": "uint256",
          "name": "",
          "type": "uint256"
        }
      ],
      "name": "likes",
      "outputs": [
        {
          "internalType": "uint256",
          "name": "tokenId",
          "type": "uint256"
        },
        {
          "internalType": "string",
          "name": "content",
          "type": "string"
        },
        {
          "internalType": "address",
          "name": "author",
          "type": "address"
        },
        {
          "internalType": "uint256",
          "name": "timestamp",
          "type": "uint256"
        },
        {
          "internalType": "string",
          "name": "attachment",
          "type": "string"
        },
        {
          "internalType": "string",
          "name": "iconUrl",
          "type": "string"
        }
      ],
      "stateMutability": "view",
      "type": "function"
    },
    {
      "inputs": [],
      "name": "name",
      "outputs": [
        {
          "internalType": "string",
          "name": "",
          "type": "string"
        }
      ],
      "stateMutability": "view",
      "type": "function"
    },
    {
      "inputs": [
        {
          "internalType": "uint256",
          "name": "tokenId",
          "type": "uint256"
        }
      ],
      "name": "ownerOf",
      "outputs": [
        {
          "internalType": "address",
          "name": "",
          "type": "address"
        }
      ],
      "stateMutability": "view",
      "type": "function"
    },
    {
      "inputs": [
        {
          "internalType": "address",
          "name": "from",
          "type": "address"
        },
        {
          "internalType": "address",
          "name": "to",
          "type": "address"
        },
        {
          "internalType": "uint256",
          "name": "tokenId",
          "type": "uint256"
        }
      ],
      "name": "safeTransferFrom",
      "outputs": [],
      "stateMutability": "nonpayable",
      "type": "function"
    },
    {
      "inputs": [
        {
          "internalType": "address",
          "name": "from",
          "type": "address"
        },
        {
          "internalType": "address",
          "name": "to",
          "type": "address"
        },
        {
          "internalType": "uint256",
          "name": "tokenId",
          "type": "uint256"
        },
        {
          "internalType": "bytes",
          "name": "_data",
          "type": "bytes"
        }
      ],
      "name": "safeTransferFrom",
      "outputs": [],
      "stateMutability": "nonpayable",
      "type": "function"
    },
    {
      "inputs": [
        {
          "internalType": "address",
          "name": "operator",
          "type": "address"
        },
        {
          "internalType": "bool",
          "name": "approved",
          "type": "bool"
        }
      ],
      "name": "setApprovalForAll",
      "outputs": [],
      "stateMutability": "nonpayable",
      "type": "function"
    },
    {
      "inputs": [
        {
          "internalType": "string",
          "name": "_tweet",
          "type": "string"
        },
        {
          "internalType": "string",
          "name": "_imageData",
          "type": "string"
        }
      ],
      "name": "setTweet",
      "outputs": [],
      "stateMutability": "nonpayable",
      "type": "function"
    },
    {
      "inputs": [
        {
          "internalType": "bytes4",
          "name": "interfaceId",
          "type": "bytes4"
        }
      ],
      "name": "supportsInterface",
      "outputs": [
        {
          "internalType": "bool",
          "name": "",
          "type": "bool"
        }
      ],
      "stateMutability": "view",
      "type": "function"
    },
    {
      "inputs": [],
      "name": "symbol",
      "outputs": [
        {
          "internalType": "string",
          "name": "",
          "type": "string"
        }
      ],
      "stateMutability": "view",
      "type": "function"
    },
    {
      "inputs": [
        {
          "internalType": "uint256",
          "name": "index",
          "type": "uint256"
        }
      ],
      "name": "tokenByIndex",
      "outputs": [
        {
          "internalType": "uint256",
          "name": "",
          "type": "uint256"
        }
      ],
      "stateMutability": "view",
      "type": "function"
    },
    {
      "inputs": [
        {
          "internalType": "address",
          "name": "owner",
          "type": "address"
        },
        {
          "internalType": "uint256",
          "name": "index",
          "type": "uint256"
        }
      ],
      "name": "tokenOfOwnerByIndex",
      "outputs": [
        {
          "internalType": "uint256",
          "name": "",
          "type": "uint256"
        }
      ],
      "stateMutability": "view",
      "type": "function"
    },
    {
      "inputs": [
        {
          "internalType": "uint256",
          "name": "_tokenId",
          "type": "uint256"
        }
      ],
      "name": "tokenURI",
      "outputs": [
        {
          "internalType": "string",
          "name": "",
          "type": "string"
        }
      ],
      "stateMutability": "view",
      "type": "function"
    },
    {
      "inputs": [],
      "name": "totalSupply",
      "outputs": [
        {
          "internalType": "uint256",
          "name": "",
          "type": "uint256"
        }
      ],
      "stateMutability": "view",
      "type": "function"
    },
    {
      "inputs": [
        {
          "internalType": "address",
          "name": "from",
          "type": "address"
        },
        {
          "internalType": "address",
          "name": "to",
          "type": "address"
        },
        {
          "internalType": "uint256",
          "name": "tokenId",
          "type": "uint256"
        }
      ],
      "name": "transferFrom",
      "outputs": [],
      "stateMutability": "nonpayable",
      "type": "function"
    },
    {
      "inputs": [
        {
          "internalType": "uint256",
          "name": "",
          "type": "uint256"
        }
      ],
      "name": "tweets",
      "outputs": [
        {
          "internalType": "uint256",
          "name": "tokenId",
          "type": "uint256"
        },
        {
          "internalType": "string",
          "name": "content",
          "type": "string"
        },
        {
          "internalType": "address",
          "name": "author",
          "type": "address"
        },
        {
          "internalType": "uint256",
          "name": "timestamp",
          "type": "uint256"
        },
        {
          "internalType": "string",
          "name": "attachment",
          "type": "string"
        },
        {
          "internalType": "string",
          "name": "iconUrl",
          "type": "string"
        }
      ],
      "stateMutability": "view",
      "type": "function"
    },
    {
      "inputs": [
        {
          "internalType": "address",
          "name": "_address",
          "type": "address"
        }
      ],
      "name": "unfollow",
      "outputs": [],
      "stateMutability": "nonpayable",
      "type": "function"
    },
    {
      "inputs": [
        {
          "internalType": "address",
          "name": "",
          "type": "address"
        }
      ],
      "name": "users",
      "outputs": [
        {
          "internalType": "address",
          "name": "id",
          "type": "address"
        },
        {
          "internalType": "string",
          "name": "iconUrl",
          "type": "string"
        }
      ],
      "stateMutability": "view",
      "type": "function"
    }
  ],
  "bytecode": "0x60806040523480156200001157600080fd5b50600054610100900460ff16806200002c575060005460ff16155b620000845760405162461bcd60e51b815260206004820152602e6024820152600080516020620052b883398151915260448201526d191e481a5b9a5d1a585b1a5e995960921b60648201526084015b60405180910390fd5b600054610100900460ff16158015620000a7576000805461ffff19166101011790555b620000f76040518060400160405280600a8152602001690a8eed2e8e8cae48aa8960b31b815250604051806040016040528060048152602001635457544560e01b8152506200011160201b60201c565b80156200010a576000805461ff00191690555b5062000438565b600054610100900460ff16806200012b575060005460ff16155b6200017f5760405162461bcd60e51b815260206004820152602e6024820152600080516020620052b883398151915260448201526d191e481a5b9a5d1a585b1a5e995960921b60648201526084016200007b565b600054610100900460ff16158015620001a2576000805461ffff19166101011790555b620001ac620001da565b620001b6620001da565b620001c2838362000281565b8015620001d5576000805461ff00191690555b505050565b600054610100900460ff1680620001f4575060005460ff16155b620002485760405162461bcd60e51b815260206004820152602e6024820152600080516020620052b883398151915260448201526d191e481a5b9a5d1a585b1a5e995960921b60648201526084016200007b565b600054610100900460ff161580156200026b576000805461ffff19166101011790555b80156200027e576000805461ff00191690555b50565b600054610100900460ff16806200029b575060005460ff16155b620002ef5760405162461bcd60e51b815260206004820152602e6024820152600080516020620052b883398151915260448201526d191e481a5b9a5d1a585b1a5e995960921b60648201526084016200007b565b600054610100900460ff1615801562000312576000805461ffff19166101011790555b82516200032790606590602086019062000355565b5081516200033d90606690602085019062000355565b508015620001d5576000805461ff0019169055505050565b8280546200036390620003fb565b90600052602060002090601f016020900481019282620003875760008555620003d2565b82601f10620003a257805160ff1916838001178555620003d2565b82800160010185558215620003d2579182015b82811115620003d2578251825591602001919060010190620003b5565b50620003e0929150620003e4565b5090565b5b80821115620003e05760008155600101620003e5565b600181811c908216806200041057607f821691505b602082108114156200043257634e487b7160e01b600052602260045260246000fd5b50919050565b614e7080620004486000396000f3fe608060405234801561001057600080fd5b50600436106102415760003560e01c806370a0823111610145578063c87b56dd116100bd578063de440e0e1161008c578063e8d857b011610071578063e8d857b0146104fa578063e985e9c51461050d578063ebd009d31461054957600080fd5b8063de440e0e146104d4578063dedf1b4a146104e757600080fd5b8063c87b56dd14610488578063cc18513f1461049b578063cca22f79146104ae578063d8384b8a146104c157600080fd5b8063a22cb46511610114578063a87430ba116100f9578063a87430ba14610434578063b88d4fde14610455578063c2fe20221461046857600080fd5b8063a22cb465146103fc578063a2898a301461040f57600080fd5b806370a08231146103c65780638129fc1c146103d95780638d51cc28146103e157806395d89b41146103f457600080fd5b80632f5899d7116101d857806342842e0e116101a75780634dbf27cc1161018c5780634dbf27cc1461038d5780634f6ccce7146103a05780636352211e146103b357600080fd5b806342842e0e14610367578063447d93691461037a57600080fd5b80632f5899d71461030e5780632f745c591461032e578063378a35cd1461034157806340c184af1461035457600080fd5b8063095ea7b311610214578063095ea7b3146102c357806309d4d796146102d657806318160ddd146102e957806323b872dd146102fb57600080fd5b8063015a4ead1461024657806301ffc9a71461025b57806306fdde0314610283578063081812fc14610298575b600080fd5b610259610254366004614595565b61055c565b005b61026e6102693660046146f8565b6109df565b60405190151581526020015b60405180910390f35b61028b610a23565b60405161027a9190614b8b565b6102ab6102a63660046147e5565b610ab5565b6040516001600160a01b03909116815260200161027a565b6102596102d13660046146cf565b610b4a565b61026e6102e4366004614595565b610c7c565b6099545b60405190815260200161027a565b6102596103093660046145e1565b610d16565b61032161031c366004614595565b610d9d565b60405161027a9190614a38565b6102ed61033c3660046146cf565b611283565b61025961034f3660046147e5565b61132b565b610321610362366004614730565b611559565b6102596103753660046145e1565b611a7b565b61028b610388366004614595565b611a96565b61025961039b366004614595565b611b45565b6102ed6103ae3660046147e5565b611fe5565b6102ab6103c13660046147e5565b612097565b6102ed6103d4366004614595565b612122565b6102596121bc565b6102596103ef366004614751565b61227e565b61028b6122b3565b61025961040a366004614695565b6122c2565b61042261041d3660046146cf565b6122cd565b60405161027a96959493929190614b9e565b610447610442366004614595565b6124cc565b60405161027a929190614a16565b61025961046336600461461c565b61257b565b61047b610476366004614595565b612603565b60405161027a9190614b1d565b61028b6104963660046147e5565b61271f565b6103216104a9366004614595565b6127b5565b61047b6104bc366004614595565b612a62565b61028b6104cf3660046147e5565b612b73565b6102596104e2366004614784565b612f65565b6104476104f53660046146cf565b6133e7565b6104226105083660046147e5565b613434565b61026e61051b3660046145af565b6001600160a01b039182166000908152606a6020908152604080832093909416825291909152205460ff1690565b6104476105573660046146cf565b613469565b6001600160a01b0381163314156105ba5760405162461bcd60e51b815260206004820152601d60248201527f596f752063616e6e6f7420756e666f6c6c6f7720796f757273656c662e00000060448201526064015b60405180910390fd5b60005b33600090815260cb60205260409020548110156107b85733600090815260cb6020526040902080546001600160a01b03841691908390811061060f57634e487b7160e01b600052603260045260246000fd5b60009182526020909120600290910201546001600160a01b031614156107a657805b33600090815260cb602052604090205461064d90600190614ca2565b8110156107435733600090815260cb6020526040902061066e826001614bff565b8154811061068c57634e487b7160e01b600052603260045260246000fd5b906000526020600020906002020160cb6000336001600160a01b03166001600160a01b0316815260200190815260200160002082815481106106de57634e487b7160e01b600052603260045260246000fd5b60009182526020909120825460029092020180546001600160a01b0319166001600160a01b03909216919091178155600180830180549183019161072190614d03565b61072c9291906142fb565b50905050808061073b90614d3e565b915050610631565b5033600090815260cb6020526040902080548061077057634e487b7160e01b600052603160045260246000fd5b60008281526020812060026000199093019283020180546001600160a01b0319168155906107a16001830182614386565b505090555b806107b081614d3e565b9150506105bd565b5060005b6001600160a01b038216600090815260cc60205260409020548110156109db576001600160a01b038216600090815260cc6020526040902080543391908390811061081757634e487b7160e01b600052603260045260246000fd5b60009182526020909120600290910201546001600160a01b031614156109c957805b6001600160a01b038316600090815260cc602052604090205461085e90600190614ca2565b81101561095d576001600160a01b038316600090815260cc60205260409020610888826001614bff565b815481106108a657634e487b7160e01b600052603260045260246000fd5b906000526020600020906002020160cc6000856001600160a01b03166001600160a01b0316815260200190815260200160002082815481106108f857634e487b7160e01b600052603260045260246000fd5b60009182526020909120825460029092020180546001600160a01b0319166001600160a01b03909216919091178155600180830180549183019161093b90614d03565b6109469291906142fb565b50905050808061095590614d3e565b915050610839565b506001600160a01b038216600090815260cc6020526040902080548061099357634e487b7160e01b600052603160045260246000fd5b60008281526020812060026000199093019283020180546001600160a01b0319168155906109c46001830182614386565b505090555b806109d381614d3e565b9150506107bc565b5050565b60006001600160e01b031982167f780e9d63000000000000000000000000000000000000000000000000000000001480610a1d5750610a1d82613485565b92915050565b606060658054610a3290614d03565b80601f0160208091040260200160405190810160405280929190818152602001828054610a5e90614d03565b8015610aab5780601f10610a8057610100808354040283529160200191610aab565b820191906000526020600020905b815481529060010190602001808311610a8e57829003601f168201915b5050505050905090565b6000818152606760205260408120546001600160a01b0316610b2e5760405162461bcd60e51b815260206004820152602c60248201527f4552433732313a20617070726f76656420717565727920666f72206e6f6e657860448201526b34b9ba32b73a103a37b5b2b760a11b60648201526084016105b1565b506000908152606960205260409020546001600160a01b031690565b6000610b5582612097565b9050806001600160a01b0316836001600160a01b03161415610bdf5760405162461bcd60e51b815260206004820152602160248201527f4552433732313a20617070726f76616c20746f2063757272656e74206f776e6560448201527f720000000000000000000000000000000000000000000000000000000000000060648201526084016105b1565b336001600160a01b0382161480610bfb5750610bfb813361051b565b610c6d5760405162461bcd60e51b815260206004820152603860248201527f4552433732313a20617070726f76652063616c6c6572206973206e6f74206f7760448201527f6e6572206e6f7220617070726f76656420666f7220616c6c000000000000000060648201526084016105b1565b610c778383613520565b505050565b600080805b33600090815260cb6020526040902054811015610d0f5733600090815260cb6020526040902080546001600160a01b038616919083908110610cd357634e487b7160e01b600052603260045260246000fd5b60009182526020909120600290910201546001600160a01b03161415610cfd575060019392505050565b80610d0781614d3e565b915050610c81565b5092915050565b610d20338261358e565b610d925760405162461bcd60e51b815260206004820152603160248201527f4552433732313a207472616e736665722063616c6c6572206973206e6f74206f60448201527f776e6572206e6f7220617070726f76656400000000000000000000000000000060648201526084016105b1565b610c77838383613685565b60c954606090610e1f576040805160008082526020820190925290610d0f565b610e066040518060e00160405280600081526020016060815260200160006001600160a01b03168152602001600081526020016060815260200160608152602001606081525090565b815260200190600190039081610dbd5790505092915050565b6000805b60c954811015610e9b57836001600160a01b031660c98281548110610e5857634e487b7160e01b600052603260045260246000fd5b60009182526020909120600260079092020101546001600160a01b03161415610e895781610e8581614d3e565b9250505b80610e9381614d3e565b915050610e23565b5060008167ffffffffffffffff811115610ec557634e487b7160e01b600052604160045260246000fd5b604051908082528060200260200182016040528015610f3f57816020015b610f2c6040518060e00160405280600081526020016060815260200160006001600160a01b03168152602001600081526020016060815260200160608152602001606081525090565b815260200190600190039081610ee35790505b509050600080600160c980549050610f579190614ca2565b90505b8060001361127957856001600160a01b031660c98281548110610f8d57634e487b7160e01b600052603260045260246000fd5b60009182526020909120600260079092020101546001600160a01b031614156112675760c98181548110610fd157634e487b7160e01b600052603260045260246000fd5b90600052602060002090600702016040518060e00160405290816000820154815260200160018201805461100490614d03565b80601f016020809104026020016040519081016040528092919081815260200182805461103090614d03565b801561107d5780601f106110525761010080835404028352916020019161107d565b820191906000526020600020905b81548152906001019060200180831161106057829003601f168201915b505050918352505060028201546001600160a01b03166020820152600382015460408201526004820180546060909201916110b790614d03565b80601f01602080910402602001604051908101604052809291908181526020018280546110e390614d03565b80156111305780601f1061110557610100808354040283529160200191611130565b820191906000526020600020905b81548152906001019060200180831161111357829003601f168201915b505050505081526020016005820180548060200260200160405190810160405280929190818152602001828054801561119257602002820191906000526020600020905b81546001600160a01b03168152600190910190602001808311611174575b505050505081526020016006820180546111ab90614d03565b80601f01602080910402602001604051908101604052809291908181526020018280546111d790614d03565b80156112245780601f106111f957610100808354040283529160200191611224565b820191906000526020600020905b81548152906001019060200180831161120757829003601f168201915b50505050508152505083838151811061124d57634e487b7160e01b600052603260045260246000fd5b6020026020010181905250818061126390614d3e565b9250505b8061127181614ce5565b915050610f5a565b5090949350505050565b600061128e83612122565b82106113025760405162461bcd60e51b815260206004820152602b60248201527f455243373231456e756d657261626c653a206f776e657220696e646578206f7560448201527f74206f6620626f756e647300000000000000000000000000000000000000000060648201526084016105b1565b506001600160a01b03919091166000908152609760209081526040808320938352929052205490565b60005b33600090815260cd60205260409020548110156113a55733600090815260cd6020526040902080548391908390811061137757634e487b7160e01b600052603260045260246000fd5b9060005260206000209060070201600001541415611393575050565b8061139d81614d3e565b91505061132e565b5060005b60c9548110156109db578160c982815481106113d557634e487b7160e01b600052603260045260246000fd5b90600052602060002090600702016000015414156115475760c9818154811061140e57634e487b7160e01b600052603260045260246000fd5b6000918252602080832060056007909302019190910180546001810182559083528183200180546001600160a01b03191633908117909155825260cd90526040902060c980548390811061147257634e487b7160e01b600052603260045260246000fd5b60009182526020808320845460018181018755958552919093206007928302909301805491909202909201918255828101805491938301916114b390614d03565b6114be9291906142fb565b5060028281015490820180546001600160a01b0319166001600160a01b0390921691909117905560038083015490820155600480830180549183019161150390614d03565b61150e9291906142fb565b506005828101805461152392840191906143c0565b50600682018160060190805461153890614d03565b6115439291906142fb565b5050505b8061155181614d3e565b9150506113a9565b606060008312156115d25760405162461bcd60e51b815260206004820152602a60248201527f4f6666736574206d7573742062652067726561746572207468616e206f72206560448201527f7175616c20746f20302e0000000000000000000000000000000000000000000060648201526084016105b1565b60c95483111561165657604080516000808252602082019092529061164e565b61163b6040518060e00160405280600081526020016060815260200160006001600160a01b03168152602001600081526020016060815260200160608152602001606081525090565b8152602001906001900390816115f25790505b509050610a1d565b60c9546000836116668684614c4a565b1361167a576116758583614c4a565b61167c565b835b905060008167ffffffffffffffff8111156116a757634e487b7160e01b600052604160045260246000fd5b60405190808252806020026020018201604052801561172157816020015b61170e6040518060e00160405280600081526020016060815260200160006001600160a01b03168152602001600081526020016060815260200160608152602001606081525090565b8152602001906001900390816116c55790505b50905060008060016117338986614c4a565b61173d9190614c4a565b90505b808761174c8a87614c4a565b6117569190614c4a565b13611a6f5760016117678986614c4a565b6117719190614c4a565b8113158015611794575080876117878a87614c4a565b6117919190614c4a565b13155b80156117a1575060008112155b15611a5d5760c981815481106117c757634e487b7160e01b600052603260045260246000fd5b90600052602060002090600702016040518060e0016040529081600082015481526020016001820180546117fa90614d03565b80601f016020809104026020016040519081016040528092919081815260200182805461182690614d03565b80156118735780601f1061184857610100808354040283529160200191611873565b820191906000526020600020905b81548152906001019060200180831161185657829003601f168201915b505050918352505060028201546001600160a01b03166020820152600382015460408201526004820180546060909201916118ad90614d03565b80601f01602080910402602001604051908101604052809291908181526020018280546118d990614d03565b80156119265780601f106118fb57610100808354040283529160200191611926565b820191906000526020600020905b81548152906001019060200180831161190957829003601f168201915b505050505081526020016005820180548060200260200160405190810160405280929190818152602001828054801561198857602002820191906000526020600020905b81546001600160a01b0316815260019091019060200180831161196a575b505050505081526020016006820180546119a190614d03565b80601f01602080910402602001604051908101604052809291908181526020018280546119cd90614d03565b8015611a1a5780601f106119ef57610100808354040283529160200191611a1a565b820191906000526020600020905b8154815290600101906020018083116119fd57829003601f168201915b505050505081525050838381518110611a4357634e487b7160e01b600052603260045260246000fd5b60200260200101819052508180611a5990614d3e565b9250505b80611a6781614ce5565b915050611740565b50909695505050505050565b610c778383836040518060200160405280600081525061257b565b6001600160a01b038116600090815260ca60205260409020600101805460609190611ac090614d03565b80601f0160208091040260200160405190810160405280929190818152602001828054611aec90614d03565b8015611b395780601f10611b0e57610100808354040283529160200191611b39565b820191906000526020600020905b815481529060010190602001808311611b1c57829003601f168201915b50505050509050919050565b6001600160a01b038116331415611b9e5760405162461bcd60e51b815260206004820152601b60248201527f596f752063616e6e6f7420666f6c6c6f7720796f757273656c662e000000000060448201526064016105b1565b33600090815260ca6020526040902060010180546060918291611c499190611bc590614d03565b80601f0160208091040260200160405190810160405280929190818152602001828054611bf190614d03565b8015611c3e5780601f10611c1357610100808354040283529160200191611c3e565b820191906000526020600020905b815481529060010190602001808311611c2157829003601f168201915b505050505051151590565b15611cec5733600090815260ca602052604090206001018054611c6b90614d03565b80601f0160208091040260200160405190810160405280929190818152602001828054611c9790614d03565b8015611ce45780601f10611cb957610100808354040283529160200191611ce4565b820191906000526020600020905b815481529060010190602001808311611cc757829003601f168201915b505050505091505b6001600160a01b038316600090815260ca602052604090206001018054611d179190611bc590614d03565b15611dc3576001600160a01b038316600090815260ca602052604090206001018054611d4290614d03565b80601f0160208091040260200160405190810160405280929190818152602001828054611d6e90614d03565b8015611dbb5780601f10611d9057610100808354040283529160200191611dbb565b820191906000526020600020905b815481529060010190602001808311611d9e57829003601f168201915b505050505090505b6000805b33600090815260cb6020526040902054811015611e505733600090815260cb6020526040902080546001600160a01b038716919083908110611e1957634e487b7160e01b600052603260045260246000fd5b60009182526020909120600290910201546001600160a01b03161415611e3e57600191505b80611e4881614d3e565b915050611dc7565b5080611ecc5733600090815260cb6020908152604080832081518083019092526001600160a01b03888116835282840187815282546001808201855593875295859020845160029097020180546001600160a01b0319169690921695909517815593518051929493611ec893928501929101906143ff565b5050505b506000805b6001600160a01b038516600090815260cc6020526040902054811015611f63576001600160a01b038516600090815260cc60205260409020805433919083908110611f2c57634e487b7160e01b600052603260045260246000fd5b60009182526020909120600290910201546001600160a01b03161415611f5157600191505b80611f5b81614d3e565b915050611ed1565b5080611fdf576001600160a01b03848116600090815260cc60209081526040808320815180830190925233825281830188815281546001808201845592865294849020835160029096020180546001600160a01b0319169590961694909417855592518051919493611fdb93908501929101906143ff565b5050505b50505050565b6000611ff060995490565b82106120645760405162461bcd60e51b815260206004820152602c60248201527f455243373231456e756d657261626c653a20676c6f62616c20696e646578206f60448201527f7574206f6620626f756e6473000000000000000000000000000000000000000060648201526084016105b1565b6099828154811061208557634e487b7160e01b600052603260045260246000fd5b90600052602060002001549050919050565b6000818152606760205260408120546001600160a01b031680610a1d5760405162461bcd60e51b815260206004820152602960248201527f4552433732313a206f776e657220717565727920666f72206e6f6e657869737460448201527f656e7420746f6b656e000000000000000000000000000000000000000000000060648201526084016105b1565b60006001600160a01b0382166121a05760405162461bcd60e51b815260206004820152602a60248201527f4552433732313a2062616c616e636520717565727920666f7220746865207a6560448201527f726f20616464726573730000000000000000000000000000000000000000000060648201526084016105b1565b506001600160a01b031660009081526068602052604090205490565b600054610100900460ff16806121d5575060005460ff16155b6122475760405162461bcd60e51b815260206004820152602e60248201527f496e697469616c697a61626c653a20636f6e747261637420697320616c72656160448201527f647920696e697469616c697a656400000000000000000000000000000000000060648201526084016105b1565b600054610100900460ff16158015612269576000805461ffff19166101011790555b801561227b576000805461ff00191690555b50565b33600081815260ca6020908152604090912080546001600160a01b031916909217825582516109db92600101918401906143ff565b606060668054610a3290614d03565b6109db33838361385d565b60cd60205281600052604060002081815481106122e957600080fd5b90600052602060002090600702016000915091505080600001549080600101805461231390614d03565b80601f016020809104026020016040519081016040528092919081815260200182805461233f90614d03565b801561238c5780601f106123615761010080835404028352916020019161238c565b820191906000526020600020905b81548152906001019060200180831161236f57829003601f168201915b505050506002830154600384015460048501805494956001600160a01b0390931694919350906123bb90614d03565b80601f01602080910402602001604051908101604052809291908181526020018280546123e790614d03565b80156124345780601f1061240957610100808354040283529160200191612434565b820191906000526020600020905b81548152906001019060200180831161241757829003601f168201915b50505050509080600601805461244990614d03565b80601f016020809104026020016040519081016040528092919081815260200182805461247590614d03565b80156124c25780601f10612497576101008083540402835291602001916124c2565b820191906000526020600020905b8154815290600101906020018083116124a557829003601f168201915b5050505050905086565b60ca60205260009081526040902080546001820180546001600160a01b0390921692916124f890614d03565b80601f016020809104026020016040519081016040528092919081815260200182805461252490614d03565b80156125715780601f1061254657610100808354040283529160200191612571565b820191906000526020600020905b81548152906001019060200180831161255457829003601f168201915b5050505050905082565b612585338361358e565b6125f75760405162461bcd60e51b815260206004820152603160248201527f4552433732313a207472616e736665722063616c6c6572206973206e6f74206f60448201527f776e6572206e6f7220617070726f76656400000000000000000000000000000060648201526084016105b1565b611fdf8484848461392c565b6001600160a01b038116600090815260cc60209081526040808320805482518185028101850190935280835260609492939192909184015b82821015612714576000848152602090819020604080518082019091526002850290910180546001600160a01b03168252600181018054929391929184019161268390614d03565b80601f01602080910402602001604051908101604052809291908181526020018280546126af90614d03565b80156126fc5780601f106126d1576101008083540402835291602001916126fc565b820191906000526020600020905b8154815290600101906020018083116126df57829003601f168201915b5050505050815250508152602001906001019061263b565b505050509050919050565b6000818152606760205260409020546060906001600160a01b03166127ac5760405162461bcd60e51b815260206004820152602f60248201527f4552433732314d657461646174613a2055524920717565727920666f72206e6f60448201527f6e6578697374656e7420746f6b656e000000000000000000000000000000000060648201526084016105b1565b610a1d82612b73565b6001600160a01b038116600090815260cd60209081526040808320805482518185028101850190935280835260609492939192909184015b8282101561271457838290600052602060002090600702016040518060e00160405290816000820154815260200160018201805461282a90614d03565b80601f016020809104026020016040519081016040528092919081815260200182805461285690614d03565b80156128a35780601f10612878576101008083540402835291602001916128a3565b820191906000526020600020905b81548152906001019060200180831161288657829003601f168201915b505050918352505060028201546001600160a01b03166020820152600382015460408201526004820180546060909201916128dd90614d03565b80601f016020809104026020016040519081016040528092919081815260200182805461290990614d03565b80156129565780601f1061292b57610100808354040283529160200191612956565b820191906000526020600020905b81548152906001019060200180831161293957829003601f168201915b50505050508152602001600582018054806020026020016040519081016040528092919081815260200182805480156129b857602002820191906000526020600020905b81546001600160a01b0316815260019091019060200180831161299a575b505050505081526020016006820180546129d190614d03565b80601f01602080910402602001604051908101604052809291908181526020018280546129fd90614d03565b8015612a4a5780601f10612a1f57610100808354040283529160200191612a4a565b820191906000526020600020905b815481529060010190602001808311612a2d57829003601f168201915b505050505081525050815260200190600101906127ed565b6001600160a01b038116600090815260cb60209081526040808320805482518185028101850190935280835260609492939192909184015b82821015612714576000848152602090819020604080518082019091526002850290910180546001600160a01b031682526001810180549293919291840191612ae290614d03565b80601f0160208091040260200160405190810160405280929190818152602001828054612b0e90614d03565b8015612b5b5780601f10612b3057610100808354040283529160200191612b5b565b820191906000526020600020905b815481529060010190602001808311612b3e57829003601f168201915b50505050508152505081526020019060010190612a9a565b6060612bbe6040518060e00160405280600081526020016060815260200160006001600160a01b03168152602001600081526020016060815260200160608152602001606081525090565b60005b60c954811015612e97578360c98281548110612bed57634e487b7160e01b600052603260045260246000fd5b9060005260206000209060070201600001541415612e855760c98181548110612c2657634e487b7160e01b600052603260045260246000fd5b90600052602060002090600702016040518060e001604052908160008201548152602001600182018054612c5990614d03565b80601f0160208091040260200160405190810160405280929190818152602001828054612c8590614d03565b8015612cd25780601f10612ca757610100808354040283529160200191612cd2565b820191906000526020600020905b815481529060010190602001808311612cb557829003601f168201915b505050918352505060028201546001600160a01b0316602082015260038201546040820152600482018054606090920191612d0c90614d03565b80601f0160208091040260200160405190810160405280929190818152602001828054612d3890614d03565b8015612d855780601f10612d5a57610100808354040283529160200191612d85565b820191906000526020600020905b815481529060010190602001808311612d6857829003601f168201915b5050505050815260200160058201805480602002602001604051908101604052809291908181526020018280548015612de757602002820191906000526020600020905b81546001600160a01b03168152600190910190602001808311612dc9575b50505050508152602001600682018054612e0090614d03565b80601f0160208091040260200160405190810160405280929190818152602001828054612e2c90614d03565b8015612e795780601f10612e4e57610100808354040283529160200191612e79565b820191906000526020600020905b815481529060010190602001808311612e5c57829003601f168201915b50505050508152505091505b80612e8f81614d3e565b915050612bc1565b5080518314612ee85760405162461bcd60e51b815260206004820152601060248201527f5477656574206e6f7420666f756e642e0000000000000000000000000000000060448201526064016105b1565b612f3e612ef4846139aa565b8260200151604051806060016040528060358152602001614dc6603591398460800151604051602001612f2a949392919061486c565b604051602081830303815290604052613af8565b604051602001612f4e9190614995565b604051602081830303815290604052915050919050565b6000612f7060995490565b90506000612f7f826001614bff565b33600090815260ca602052604090206001018054919250606091612fa79190611bc590614d03565b1561304a5733600090815260ca602052604090206001018054612fc990614d03565b80601f0160208091040260200160405190810160405280929190818152602001828054612ff590614d03565b80156130425780601f1061301757610100808354040283529160200191613042565b820191906000526020600020905b81548152906001019060200180831161302557829003601f168201915b505050505090505b6130936040518060e00160405280600081526020016060815260200160006001600160a01b03168152602001600081526020016060815260200160608152602001606081525090565b8451156131d35782815260208082018781523360408401524260608401526080830187905260c0830184905260c9805460018101825560009190915283517f66be4f155c5ef2ebd3772b228f2f00681e4ed5826cdb3b1943cc11ad15ad1d286007909202918201908155915180518594613131937f66be4f155c5ef2ebd3772b228f2f00681e4ed5826cdb3b1943cc11ad15ad1d29019201906143ff565b5060408201516002820180546001600160a01b0319166001600160a01b03909216919091179055606082015160038201556080820151805161317d9160048401916020909101906143ff565b5060a08201518051613199916005840191602090910190614473565b5060c082015180516131b59160068401916020909101906143ff565b5050506131ce338560016131c99190614bff565b613ca5565b61339e565b85516132215760405162461bcd60e51b815260206004820152601260248201527f547765657420697320746f6f2073686f7274000000000000000000000000000060448201526064016105b1565b61322a86613cbf565b6132765760405162461bcd60e51b815260206004820181905260248201527f5370616365206f6e6c79207477656574206973206e6f7420616c6c6f7765642e60448201526064016105b1565b828152602080820187815233604084015242606084015260c0830184905260c9805460018101825560009190915283517f66be4f155c5ef2ebd3772b228f2f00681e4ed5826cdb3b1943cc11ad15ad1d286007909202918201908155915180518594613306937f66be4f155c5ef2ebd3772b228f2f00681e4ed5826cdb3b1943cc11ad15ad1d29019201906143ff565b5060408201516002820180546001600160a01b0319166001600160a01b0390921691909117905560608201516003820155608082015180516133529160048401916020909101906143ff565b5060a0820151805161336e916005840191602090910190614473565b5060c0820151805161338a9160068401916020909101906143ff565b50505061339e338560016131c99190614bff565b336001600160a01b03167fed917e0e51bb528b7fef2750065cd119dddd8e8fa54f38a656d4107e7c14f37a876040516133d79190614b8b565b60405180910390a2505050505050565b60cb602052816000526040600020818154811061340357600080fd5b6000918252602090912060029091020180546001820180546001600160a01b0390921694509192506124f890614d03565b60c9818154811061344457600080fd5b6000918252602090912060079091020180546001820180549193509061231390614d03565b60cc602052816000526040600020818154811061340357600080fd5b60006001600160e01b031982167f80ac58cd0000000000000000000000000000000000000000000000000000000014806134e857506001600160e01b031982167f5b5e139f00000000000000000000000000000000000000000000000000000000145b80610a1d57507f01ffc9a7000000000000000000000000000000000000000000000000000000006001600160e01b0319831614610a1d565b600081815260696020526040902080546001600160a01b0319166001600160a01b038416908117909155819061355582612097565b6001600160a01b03167f8c5be1e5ebec7d5bd14f71427d1e84f3dd0314c0f7b2291e5b200ac8c7c3b92560405160405180910390a45050565b6000818152606760205260408120546001600160a01b03166136075760405162461bcd60e51b815260206004820152602c60248201527f4552433732313a206f70657261746f7220717565727920666f72206e6f6e657860448201526b34b9ba32b73a103a37b5b2b760a11b60648201526084016105b1565b600061361283612097565b9050806001600160a01b0316846001600160a01b0316148061364d5750836001600160a01b031661364284610ab5565b6001600160a01b0316145b8061367d57506001600160a01b038082166000908152606a602090815260408083209388168352929052205460ff165b949350505050565b826001600160a01b031661369882612097565b6001600160a01b0316146137145760405162461bcd60e51b815260206004820152602960248201527f4552433732313a207472616e73666572206f6620746f6b656e2074686174206960448201527f73206e6f74206f776e000000000000000000000000000000000000000000000060648201526084016105b1565b6001600160a01b03821661378f5760405162461bcd60e51b8152602060048201526024808201527f4552433732313a207472616e7366657220746f20746865207a65726f2061646460448201527f726573730000000000000000000000000000000000000000000000000000000060648201526084016105b1565b61379a838383613d65565b6137a5600082613520565b6001600160a01b03831660009081526068602052604081208054600192906137ce908490614ca2565b90915550506001600160a01b03821660009081526068602052604081208054600192906137fc908490614bff565b909155505060008181526067602052604080822080546001600160a01b0319166001600160a01b0386811691821790925591518493918716917fddf252ad1be2c89b69c2b068fc378daa952ba7f163c4a11628f55a4df523b3ef91a4505050565b816001600160a01b0316836001600160a01b031614156138bf5760405162461bcd60e51b815260206004820152601960248201527f4552433732313a20617070726f766520746f2063616c6c65720000000000000060448201526064016105b1565b6001600160a01b038381166000818152606a6020908152604080832094871680845294825291829020805460ff191686151590811790915591519182527f17307eab39ab6107e8899845ad3d59bd9653f200f220920489ca2b5937696c31910160405180910390a3505050565b613937848484613685565b61394384848484613e1d565b611fdf5760405162461bcd60e51b815260206004820152603260248201527f4552433732313a207472616e7366657220746f206e6f6e20455243373231526560448201527131b2b4bb32b91034b6b83632b6b2b73a32b960711b60648201526084016105b1565b6060816139ea57505060408051808201909152600181527f3000000000000000000000000000000000000000000000000000000000000000602082015290565b8160005b8115613a1457806139fe81614d3e565b9150613a0d9050600a83614c17565b91506139ee565b60008167ffffffffffffffff811115613a3d57634e487b7160e01b600052604160045260246000fd5b6040519080825280601f01601f191660200182016040528015613a67576020820181803683370190505b5090505b841561367d57613a7c600183614ca2565b9150613a89600a86614d59565b613a94906030614bff565b60f81b818381518110613ab757634e487b7160e01b600052603260045260246000fd5b60200101907effffffffffffffffffffffffffffffffffffffffffffffffffffffffffffff1916908160001a905350613af1600a86614c17565b9450613a6b565b6060815160001415613b1857505060408051602081019091526000815290565b6000604051806060016040528060408152602001614dfb6040913990506000600384516002613b479190614bff565b613b519190614c17565b613b5c906004614c2b565b90506000613b6b826020614bff565b67ffffffffffffffff811115613b9157634e487b7160e01b600052604160045260246000fd5b6040519080825280601f01601f191660200182016040528015613bbb576020820181803683370190505b509050818152600183018586518101602084015b81831015613c295760039283018051603f601282901c811687015160f890811b8552600c83901c8216880151811b6001860152600683901c8216880151811b60028601529116860151901b93820193909352600401613bcf565b600389510660018114613c435760028114613c6f57613c97565b7f3d3d000000000000000000000000000000000000000000000000000000000000600119830152613c97565b7f3d000000000000000000000000000000000000000000000000000000000000006000198301525b509398975050505050505050565b6109db828260405180602001604052806000815250613f75565b60006001815b8351811015613d5d576000848281518110613cf057634e487b7160e01b600052603260045260246000fd5b01602001517fff000000000000000000000000000000000000000000000000000000000000001690507f20000000000000000000000000000000000000000000000000000000000000008114613d4a576000925050613d5d565b5080613d5581614d3e565b915050613cc5565b501592915050565b6001600160a01b038316613dc057613dbb81609980546000838152609a60205260408120829055600182018355919091527f72a152ddfb8e864297c917af52ea6c1c68aead0fee1a62673fcc7e0c94979d000155565b613de3565b816001600160a01b0316836001600160a01b031614613de357613de38382613ff3565b6001600160a01b038216613dfa57610c7781614090565b826001600160a01b0316826001600160a01b031614610c7757610c778282614169565b60006001600160a01b0384163b15613f6a57604051630a85bd0160e11b81526001600160a01b0385169063150b7a0290613e619033908990889088906004016149da565b602060405180830381600087803b158015613e7b57600080fd5b505af1925050508015613eab575060408051601f3d908101601f19168201909252613ea891810190614714565b60015b613f50573d808015613ed9576040519150601f19603f3d011682016040523d82523d6000602084013e613ede565b606091505b508051613f485760405162461bcd60e51b815260206004820152603260248201527f4552433732313a207472616e7366657220746f206e6f6e20455243373231526560448201527131b2b4bb32b91034b6b83632b6b2b73a32b960711b60648201526084016105b1565b805181602001fd5b6001600160e01b031916630a85bd0160e11b14905061367d565b506001949350505050565b613f7f83836141ad565b613f8c6000848484613e1d565b610c775760405162461bcd60e51b815260206004820152603260248201527f4552433732313a207472616e7366657220746f206e6f6e20455243373231526560448201527131b2b4bb32b91034b6b83632b6b2b73a32b960711b60648201526084016105b1565b6000600161400084612122565b61400a9190614ca2565b60008381526098602052604090205490915080821461405d576001600160a01b03841660009081526097602090815260408083208584528252808320548484528184208190558352609890915290208190555b5060009182526098602090815260408084208490556001600160a01b039094168352609781528383209183525290812055565b6099546000906140a290600190614ca2565b6000838152609a6020526040812054609980549394509092849081106140d857634e487b7160e01b600052603260045260246000fd5b90600052602060002001549050806099838154811061410757634e487b7160e01b600052603260045260246000fd5b6000918252602080832090910192909255828152609a9091526040808220849055858252812055609980548061414d57634e487b7160e01b600052603160045260246000fd5b6001900381819060005260206000200160009055905550505050565b600061417483612122565b6001600160a01b039093166000908152609760209081526040808320868452825280832085905593825260989052919091209190915550565b6001600160a01b0382166142035760405162461bcd60e51b815260206004820181905260248201527f4552433732313a206d696e7420746f20746865207a65726f206164647265737360448201526064016105b1565b6000818152606760205260409020546001600160a01b0316156142685760405162461bcd60e51b815260206004820152601c60248201527f4552433732313a20746f6b656e20616c7265616479206d696e7465640000000060448201526064016105b1565b61427460008383613d65565b6001600160a01b038216600090815260686020526040812080546001929061429d908490614bff565b909155505060008181526067602052604080822080546001600160a01b0319166001600160a01b03861690811790915590518392907fddf252ad1be2c89b69c2b068fc378daa952ba7f163c4a11628f55a4df523b3ef908290a45050565b82805461430790614d03565b90600052602060002090601f0160209004810192826143295760008555614376565b82601f1061433a5780548555614376565b8280016001018555821561437657600052602060002091601f016020900482015b8281111561437657825482559160010191906001019061435b565b506143829291506144c8565b5090565b50805461439290614d03565b6000825580601f106143a2575050565b601f01602090049060005260206000209081019061227b91906144c8565b8280548282559060005260206000209081019282156143765760005260206000209182018281111561437657825482559160010191906001019061435b565b82805461440b90614d03565b90600052602060002090601f01602090048101928261442d5760008555614376565b82601f1061444657805160ff1916838001178555614376565b82800160010185558215614376579182015b82811115614376578251825591602001919060010190614458565b828054828255906000526020600020908101928215614376579160200282015b8281111561437657825182546001600160a01b0319166001600160a01b03909116178255602090920191600190910190614493565b5b8082111561438257600081556001016144c9565b600067ffffffffffffffff808411156144f8576144f8614d99565b604051601f8501601f19908116603f0116810190828211818310171561452057614520614d99565b8160405280935085815286868601111561453957600080fd5b858560208301376000602087830101525050509392505050565b80356001600160a01b038116811461456a57600080fd5b919050565b600082601f83011261457f578081fd5b61458e838335602085016144dd565b9392505050565b6000602082840312156145a6578081fd5b61458e82614553565b600080604083850312156145c1578081fd5b6145ca83614553565b91506145d860208401614553565b90509250929050565b6000806000606084860312156145f5578081fd5b6145fe84614553565b925061460c60208501614553565b9150604084013590509250925092565b60008060008060808587031215614631578081fd5b61463a85614553565b935061464860208601614553565b925060408501359150606085013567ffffffffffffffff81111561466a578182fd5b8501601f8101871361467a578182fd5b614689878235602084016144dd565b91505092959194509250565b600080604083850312156146a7578182fd5b6146b083614553565b9150602083013580151581146146c4578182fd5b809150509250929050565b600080604083850312156146e1578182fd5b6146ea83614553565b946020939093013593505050565b600060208284031215614709578081fd5b813561458e81614daf565b600060208284031215614725578081fd5b815161458e81614daf565b60008060408385031215614742578182fd5b50508035926020909101359150565b600060208284031215614762578081fd5b813567ffffffffffffffff811115614778578182fd5b61367d8482850161456f565b60008060408385031215614796578182fd5b823567ffffffffffffffff808211156147ad578384fd5b6147b98683870161456f565b935060208501359150808211156147ce578283fd5b506147db8582860161456f565b9150509250929050565b6000602082840312156147f6578081fd5b5035919050565b6000815180845260208085019450808401835b838110156148355781516001600160a01b031687529582019590820190600101614810565b509495945050505050565b60008151808452614858816020860160208601614cb9565b601f01601f19169290920160200192915050565b7f7b226e616d65223a2254776565742023000000000000000000000000000000008152600085516148a4816010850160208a01614cb9565b7f222c20226465736372697074696f6e223a22000000000000000000000000000060109184019182015285516148e1816022840160208a01614cb9565b7f222c2022696d616765223a20220000000000000000000000000000000000000060229290910191820152845161491f81602f840160208901614cb9565b7f222c2022696d6167655f64617461223a20220000000000000000000000000000602f9290910191820152835161495d816041840160208801614cb9565b7f227d000000000000000000000000000000000000000000000000000000000000604192909101918201526043019695505050505050565b7f646174613a6170706c69636174696f6e2f6a736f6e3b6261736536342c0000008152600082516149cd81601d850160208701614cb9565b91909101601d0192915050565b60006001600160a01b03808716835280861660208401525083604083015260806060830152614a0c6080830184614840565b9695505050505050565b6001600160a01b038316815260406020820152600061367d6040830184614840565b60006020808301818452808551808352604092508286019150828160051b870101848801865b83811015614b0f57603f19898403018552815160e08151855288820151818a870152614a8c82870182614840565b9150506001600160a01b03888301511688860152606080830151818701525060808083015186830382880152614ac28382614840565b9250505060a08083015186830382880152614add83826147fd565b9250505060c08083015192508582038187015250614afb8183614840565b968901969450505090860190600101614a5e565b509098975050505050505050565b60006020808301818452808551808352604092508286019150828160051b870101848801865b83811015614b0f57888303603f19018552815180516001600160a01b03168452870151878401879052614b7887850182614840565b9588019593505090860190600101614b43565b60208152600061458e6020830184614840565b86815260c060208201526000614bb760c0830188614840565b6001600160a01b03871660408401528560608401528281036080840152614bde8186614840565b905082810360a0840152614bf28185614840565b9998505050505050505050565b60008219821115614c1257614c12614d6d565b500190565b600082614c2657614c26614d83565b500490565b6000816000190483118215151615614c4557614c45614d6d565b500290565b600080831283600160ff1b01831281151615614c6857614c68614d6d565b837f7fffffffffffffffffffffffffffffffffffffffffffffffffffffffffffffff018313811615614c9c57614c9c614d6d565b50500390565b600082821015614cb457614cb4614d6d565b500390565b60005b83811015614cd4578181015183820152602001614cbc565b83811115611fdf5750506000910152565b6000600160ff1b821415614cfb57614cfb614d6d565b506000190190565b600181811c90821680614d1757607f821691505b60208210811415614d3857634e487b7160e01b600052602260045260246000fd5b50919050565b6000600019821415614d5257614d52614d6d565b5060010190565b600082614d6857614d68614d83565b500690565b634e487b7160e01b600052601160045260246000fd5b634e487b7160e01b600052601260045260246000fd5b634e487b7160e01b600052604160045260246000fd5b6001600160e01b03198116811461227b57600080fdfe697066733a2f2f516d57566647316d48635973345139484753484a59656468454566554d684551396d51484b4646545761793831754142434445464748494a4b4c4d4e4f505152535455565758595a6162636465666768696a6b6c6d6e6f707172737475767778797a303132333435363738392b2fa26469706673582212206e7e4bc4fc0e2e88b142902a631e77e11105dc6c21b12b2192f3268f0ba6dce764736f6c63430008040033496e697469616c697a61626c653a20636f6e747261637420697320616c726561",
  "linkReferences": {},
  "deployedLinkReferences": {}
}