{
  "_format": "hh-sol-artifact-1",
  "contractName": "TwitterV1",
  "sourceName": "contracts/TwitterV1.sol",
  "abi": [
    {
      "inputs": [],
      "stateMutability": "nonpayable",
      "type": "constructor"
    },
    {
      "anonymous": false,
      "inputs": [
        {
          "indexed": true,
          "internalType": "address",
          "name": "owner",
          "type": "address"
        },
        {
          "indexed": true,
          "internalType": "address",
          "name": "approved",
          "type": "address"
        },
        {
          "indexed": true,
          "internalType": "uint256",
          "name": "tokenId",
          "type": "uint256"
        }
      ],
      "name": "Approval",
      "type": "event"
    },
    {
      "anonymous": false,
      "inputs": [
        {
          "indexed": true,
          "internalType": "address",
          "name": "owner",
          "type": "address"
        },
        {
          "indexed": true,
          "internalType": "address",
          "name": "operator",
          "type": "address"
        },
        {
          "indexed": false,
          "internalType": "bool",
          "name": "approved",
          "type": "bool"
        }
      ],
      "name": "ApprovalForAll",
      "type": "event"
    },
    {
      "anonymous": false,
      "inputs": [
        {
          "indexed": true,
          "internalType": "address",
          "name": "from",
          "type": "address"
        },
        {
          "indexed": true,
          "internalType": "address",
          "name": "to",
          "type": "address"
        },
        {
          "indexed": true,
          "internalType": "uint256",
          "name": "tokenId",
          "type": "uint256"
        }
      ],
      "name": "Transfer",
      "type": "event"
    },
    {
      "anonymous": false,
      "inputs": [
        {
          "indexed": true,
          "internalType": "address",
          "name": "sender",
          "type": "address"
        },
        {
          "indexed": false,
          "internalType": "string",
          "name": "tweet",
          "type": "string"
        }
      ],
      "name": "Tweeted",
      "type": "event"
    },
    {
      "inputs": [
        {
          "internalType": "uint256",
          "name": "_tokenId",
          "type": "uint256"
        }
      ],
      "name": "addLike",
      "outputs": [],
      "stateMutability": "nonpayable",
      "type": "function"
    },
    {
      "inputs": [
        {
          "internalType": "address",
          "name": "to",
          "type": "address"
        },
        {
          "internalType": "uint256",
          "name": "tokenId",
          "type": "uint256"
        }
      ],
      "name": "approve",
      "outputs": [],
      "stateMutability": "nonpayable",
      "type": "function"
    },
    {
      "inputs": [
        {
          "internalType": "address",
          "name": "owner",
          "type": "address"
        }
      ],
      "name": "balanceOf",
      "outputs": [
        {
          "internalType": "uint256",
          "name": "",
          "type": "uint256"
        }
      ],
      "stateMutability": "view",
      "type": "function"
    },
    {
      "inputs": [
        {
          "internalType": "uint256",
          "name": "_tokenId",
          "type": "uint256"
        }
      ],
      "name": "buildMetaData",
      "outputs": [
        {
          "internalType": "string",
          "name": "",
          "type": "string"
        }
      ],
      "stateMutability": "view",
      "type": "function"
    },
    {
      "inputs": [
        {
          "internalType": "address",
          "name": "_address",
          "type": "address"
        }
      ],
      "name": "follow",
      "outputs": [],
      "stateMutability": "nonpayable",
      "type": "function"
    },
    {
      "inputs": [
        {
          "internalType": "address",
          "name": "",
          "type": "address"
        },
        {
          "internalType": "uint256",
          "name": "",
          "type": "uint256"
        }
      ],
      "name": "followers",
      "outputs": [
        {
          "internalType": "address",
          "name": "id",
          "type": "address"
        }
      ],
      "stateMutability": "view",
      "type": "function"
    },
    {
      "inputs": [
        {
          "internalType": "address",
          "name": "",
          "type": "address"
        },
        {
          "internalType": "uint256",
          "name": "",
          "type": "uint256"
        }
      ],
      "name": "followings",
      "outputs": [
        {
          "internalType": "address",
          "name": "id",
          "type": "address"
        }
      ],
      "stateMutability": "view",
      "type": "function"
    },
    {
      "inputs": [
        {
          "internalType": "uint256",
          "name": "tokenId",
          "type": "uint256"
        }
      ],
      "name": "getApproved",
      "outputs": [
        {
          "internalType": "address",
          "name": "",
          "type": "address"
        }
      ],
      "stateMutability": "view",
      "type": "function"
    },
    {
      "inputs": [
        {
          "internalType": "address",
          "name": "_address",
          "type": "address"
        }
      ],
      "name": "getFollowers",
      "outputs": [
        {
          "components": [
            {
              "internalType": "address",
              "name": "id",
              "type": "address"
            }
          ],
          "internalType": "struct TwitterV1.User[]",
          "name": "",
          "type": "tuple[]"
        }
      ],
      "stateMutability": "view",
      "type": "function"
    },
    {
      "inputs": [
        {
          "internalType": "address",
          "name": "_address",
          "type": "address"
        }
      ],
      "name": "getFollowings",
      "outputs": [
        {
          "components": [
            {
              "internalType": "address",
              "name": "id",
              "type": "address"
            }
          ],
          "internalType": "struct TwitterV1.User[]",
          "name": "",
          "type": "tuple[]"
        }
      ],
      "stateMutability": "view",
      "type": "function"
    },
    {
      "inputs": [
        {
          "internalType": "address",
          "name": "_address",
          "type": "address"
        }
      ],
      "name": "getLikes",
      "outputs": [
        {
          "components": [
            {
              "internalType": "uint256",
              "name": "tokenId",
              "type": "uint256"
            },
            {
              "internalType": "string",
              "name": "content",
              "type": "string"
            },
            {
              "internalType": "address",
              "name": "author",
              "type": "address"
            },
            {
              "internalType": "uint256",
              "name": "timestamp",
              "type": "uint256"
            },
            {
              "internalType": "string",
              "name": "attachment",
              "type": "string"
            },
            {
              "internalType": "address[]",
              "name": "likes",
              "type": "address[]"
            }
          ],
          "internalType": "struct TwitterV1.Tweet[]",
          "name": "",
          "type": "tuple[]"
        }
      ],
      "stateMutability": "view",
      "type": "function"
    },
    {
      "inputs": [
        {
          "internalType": "int256",
          "name": "offset",
          "type": "int256"
        },
        {
          "internalType": "int256",
          "name": "limit",
          "type": "int256"
        }
      ],
      "name": "getTimeline",
      "outputs": [
        {
          "components": [
            {
              "internalType": "uint256",
              "name": "tokenId",
              "type": "uint256"
            },
            {
              "internalType": "string",
              "name": "content",
              "type": "string"
            },
            {
              "internalType": "address",
              "name": "author",
              "type": "address"
            },
            {
              "internalType": "uint256",
              "name": "timestamp",
              "type": "uint256"
            },
            {
              "internalType": "string",
              "name": "attachment",
              "type": "string"
            },
            {
              "internalType": "address[]",
              "name": "likes",
              "type": "address[]"
            }
          ],
          "internalType": "struct TwitterV1.Tweet[]",
          "name": "",
          "type": "tuple[]"
        }
      ],
      "stateMutability": "view",
      "type": "function"
    },
    {
      "inputs": [
        {
          "internalType": "address",
          "name": "_address",
          "type": "address"
        }
      ],
      "name": "getUserTweets",
      "outputs": [
        {
          "components": [
            {
              "internalType": "uint256",
              "name": "tokenId",
              "type": "uint256"
            },
            {
              "internalType": "string",
              "name": "content",
              "type": "string"
            },
            {
              "internalType": "address",
              "name": "author",
              "type": "address"
            },
            {
              "internalType": "uint256",
              "name": "timestamp",
              "type": "uint256"
            },
            {
              "internalType": "string",
              "name": "attachment",
              "type": "string"
            },
            {
              "internalType": "address[]",
              "name": "likes",
              "type": "address[]"
            }
          ],
          "internalType": "struct TwitterV1.Tweet[]",
          "name": "",
          "type": "tuple[]"
        }
      ],
      "stateMutability": "view",
      "type": "function"
    },
    {
      "inputs": [],
      "name": "initialize",
      "outputs": [],
      "stateMutability": "nonpayable",
      "type": "function"
    },
    {
      "inputs": [
        {
          "internalType": "address",
          "name": "owner",
          "type": "address"
        },
        {
          "internalType": "address",
          "name": "operator",
          "type": "address"
        }
      ],
      "name": "isApprovedForAll",
      "outputs": [
        {
          "internalType": "bool",
          "name": "",
          "type": "bool"
        }
      ],
      "stateMutability": "view",
      "type": "function"
    },
    {
      "inputs": [
        {
          "internalType": "address",
          "name": "_address",
          "type": "address"
        }
      ],
      "name": "isFollowing",
      "outputs": [
        {
          "internalType": "bool",
          "name": "",
          "type": "bool"
        }
      ],
      "stateMutability": "view",
      "type": "function"
    },
    {
      "inputs": [
        {
          "internalType": "address",
          "name": "",
          "type": "address"
        },
        {
          "internalType": "uint256",
          "name": "",
          "type": "uint256"
        }
      ],
      "name": "likes",
      "outputs": [
        {
          "internalType": "uint256",
          "name": "tokenId",
          "type": "uint256"
        },
        {
          "internalType": "string",
          "name": "content",
          "type": "string"
        },
        {
          "internalType": "address",
          "name": "author",
          "type": "address"
        },
        {
          "internalType": "uint256",
          "name": "timestamp",
          "type": "uint256"
        },
        {
          "internalType": "string",
          "name": "attachment",
          "type": "string"
        }
      ],
      "stateMutability": "view",
      "type": "function"
    },
    {
      "inputs": [],
      "name": "name",
      "outputs": [
        {
          "internalType": "string",
          "name": "",
          "type": "string"
        }
      ],
      "stateMutability": "view",
      "type": "function"
    },
    {
      "inputs": [
        {
          "internalType": "uint256",
          "name": "tokenId",
          "type": "uint256"
        }
      ],
      "name": "ownerOf",
      "outputs": [
        {
          "internalType": "address",
          "name": "",
          "type": "address"
        }
      ],
      "stateMutability": "view",
      "type": "function"
    },
    {
      "inputs": [
        {
          "internalType": "address",
          "name": "from",
          "type": "address"
        },
        {
          "internalType": "address",
          "name": "to",
          "type": "address"
        },
        {
          "internalType": "uint256",
          "name": "tokenId",
          "type": "uint256"
        }
      ],
      "name": "safeTransferFrom",
      "outputs": [],
      "stateMutability": "nonpayable",
      "type": "function"
    },
    {
      "inputs": [
        {
          "internalType": "address",
          "name": "from",
          "type": "address"
        },
        {
          "internalType": "address",
          "name": "to",
          "type": "address"
        },
        {
          "internalType": "uint256",
          "name": "tokenId",
          "type": "uint256"
        },
        {
          "internalType": "bytes",
          "name": "_data",
          "type": "bytes"
        }
      ],
      "name": "safeTransferFrom",
      "outputs": [],
      "stateMutability": "nonpayable",
      "type": "function"
    },
    {
      "inputs": [
        {
          "internalType": "address",
          "name": "operator",
          "type": "address"
        },
        {
          "internalType": "bool",
          "name": "approved",
          "type": "bool"
        }
      ],
      "name": "setApprovalForAll",
      "outputs": [],
      "stateMutability": "nonpayable",
      "type": "function"
    },
    {
      "inputs": [
        {
          "internalType": "string",
          "name": "_tweet",
          "type": "string"
        },
        {
          "internalType": "string",
          "name": "_imageData",
          "type": "string"
        }
      ],
      "name": "setTweet",
      "outputs": [],
      "stateMutability": "nonpayable",
      "type": "function"
    },
    {
      "inputs": [
        {
          "internalType": "bytes4",
          "name": "interfaceId",
          "type": "bytes4"
        }
      ],
      "name": "supportsInterface",
      "outputs": [
        {
          "internalType": "bool",
          "name": "",
          "type": "bool"
        }
      ],
      "stateMutability": "view",
      "type": "function"
    },
    {
      "inputs": [],
      "name": "symbol",
      "outputs": [
        {
          "internalType": "string",
          "name": "",
          "type": "string"
        }
      ],
      "stateMutability": "view",
      "type": "function"
    },
    {
      "inputs": [
        {
          "internalType": "uint256",
          "name": "index",
          "type": "uint256"
        }
      ],
      "name": "tokenByIndex",
      "outputs": [
        {
          "internalType": "uint256",
          "name": "",
          "type": "uint256"
        }
      ],
      "stateMutability": "view",
      "type": "function"
    },
    {
      "inputs": [
        {
          "internalType": "address",
          "name": "owner",
          "type": "address"
        },
        {
          "internalType": "uint256",
          "name": "index",
          "type": "uint256"
        }
      ],
      "name": "tokenOfOwnerByIndex",
      "outputs": [
        {
          "internalType": "uint256",
          "name": "",
          "type": "uint256"
        }
      ],
      "stateMutability": "view",
      "type": "function"
    },
    {
      "inputs": [
        {
          "internalType": "uint256",
          "name": "_tokenId",
          "type": "uint256"
        }
      ],
      "name": "tokenURI",
      "outputs": [
        {
          "internalType": "string",
          "name": "",
          "type": "string"
        }
      ],
      "stateMutability": "view",
      "type": "function"
    },
    {
      "inputs": [],
      "name": "totalSupply",
      "outputs": [
        {
          "internalType": "uint256",
          "name": "",
          "type": "uint256"
        }
      ],
      "stateMutability": "view",
      "type": "function"
    },
    {
      "inputs": [
        {
          "internalType": "address",
          "name": "from",
          "type": "address"
        },
        {
          "internalType": "address",
          "name": "to",
          "type": "address"
        },
        {
          "internalType": "uint256",
          "name": "tokenId",
          "type": "uint256"
        }
      ],
      "name": "transferFrom",
      "outputs": [],
      "stateMutability": "nonpayable",
      "type": "function"
    },
    {
      "inputs": [
        {
          "internalType": "uint256",
          "name": "",
          "type": "uint256"
        }
      ],
      "name": "tweets",
      "outputs": [
        {
          "internalType": "uint256",
          "name": "tokenId",
          "type": "uint256"
        },
        {
          "internalType": "string",
          "name": "content",
          "type": "string"
        },
        {
          "internalType": "address",
          "name": "author",
          "type": "address"
        },
        {
          "internalType": "uint256",
          "name": "timestamp",
          "type": "uint256"
        },
        {
          "internalType": "string",
          "name": "attachment",
          "type": "string"
        }
      ],
      "stateMutability": "view",
      "type": "function"
    },
    {
      "inputs": [
        {
          "internalType": "address",
          "name": "_address",
          "type": "address"
        }
      ],
      "name": "unfollow",
      "outputs": [],
      "stateMutability": "nonpayable",
      "type": "function"
    }
  ],
  "bytecode": "0x60806040523480156200001157600080fd5b50600054610100900460ff16806200002c575060005460ff16155b620000845760405162461bcd60e51b815260206004820152602e60248201526000805160206200469b83398151915260448201526d191e481a5b9a5d1a585b1a5e995960921b60648201526084015b60405180910390fd5b600054610100900460ff16158015620000a7576000805461ffff19166101011790555b620000f76040518060400160405280600a8152602001690a8eed2e8e8cae48aa8960b31b815250604051806040016040528060048152602001635457544560e01b8152506200011160201b60201c565b80156200010a576000805461ff00191690555b5062000438565b600054610100900460ff16806200012b575060005460ff16155b6200017f5760405162461bcd60e51b815260206004820152602e60248201526000805160206200469b83398151915260448201526d191e481a5b9a5d1a585b1a5e995960921b60648201526084016200007b565b600054610100900460ff16158015620001a2576000805461ffff19166101011790555b620001ac620001da565b620001b6620001da565b620001c2838362000281565b8015620001d5576000805461ff00191690555b505050565b600054610100900460ff1680620001f4575060005460ff16155b620002485760405162461bcd60e51b815260206004820152602e60248201526000805160206200469b83398151915260448201526d191e481a5b9a5d1a585b1a5e995960921b60648201526084016200007b565b600054610100900460ff161580156200026b576000805461ffff19166101011790555b80156200027e576000805461ff00191690555b50565b600054610100900460ff16806200029b575060005460ff16155b620002ef5760405162461bcd60e51b815260206004820152602e60248201526000805160206200469b83398151915260448201526d191e481a5b9a5d1a585b1a5e995960921b60648201526084016200007b565b600054610100900460ff1615801562000312576000805461ffff19166101011790555b82516200032790606590602086019062000355565b5081516200033d90606690602085019062000355565b508015620001d5576000805461ff0019169055505050565b8280546200036390620003fb565b90600052602060002090601f016020900481019282620003875760008555620003d2565b82601f10620003a257805160ff1916838001178555620003d2565b82800160010185558215620003d2579182015b82811115620003d2578251825591602001919060010190620003b5565b50620003e0929150620003e4565b5090565b5b80821115620003e05760008155600101620003e5565b600181811c908216806200041057607f821691505b602082108114156200043257634e487b7160e01b600052602260045260246000fd5b50919050565b61425380620004486000396000f3fe608060405234801561001057600080fd5b50600436106101f05760003560e01c806370a082311161010f578063cc18513f116100a2578063dedf1b4a11610071578063dedf1b4a1461044e578063e8d857b014610461578063e985e9c514610474578063ebd009d3146104b057600080fd5b8063cc18513f14610402578063cca22f7914610415578063d8384b8a14610428578063de440e0e1461043b57600080fd5b8063a2898a30116100de578063a2898a3014610398578063b88d4fde146103bc578063c2fe2022146103cf578063c87b56dd146103ef57600080fd5b806370a08231146103625780638129fc1c1461037557806395d89b411461037d578063a22cb4651461038557600080fd5b80632f5899d71161018757806342842e0e1161015657806342842e0e146103165780634dbf27cc146103295780634f6ccce71461033c5780636352211e1461034f57600080fd5b80632f5899d7146102bd5780632f745c59146102dd578063378a35cd146102f057806340c184af1461030357600080fd5b8063095ea7b3116101c3578063095ea7b31461027257806309d4d7961461028557806318160ddd1461029857806323b872dd146102aa57600080fd5b8063015a4ead146101f557806301ffc9a71461020a57806306fdde0314610232578063081812fc14610247575b600080fd5b610208610203366004613a3e565b6104c3565b005b61021d610218366004613ba1565b6108be565b60405190151581526020015b60405180910390f35b61023a610902565b6040516102299190613f83565b61025a610255366004613c5b565b610994565b6040516001600160a01b039091168152602001610229565b610208610280366004613b78565b610a29565b61021d610293366004613a3e565b610b5b565b6099545b604051908152602001610229565b6102086102b8366004613a8a565b610bf0565b6102d06102cb366004613a3e565b610c77565b6040516102299190613e49565b61029c6102eb366004613b78565b611044565b6102086102fe366004613c5b565b6110ec565b6102d0610311366004613bd9565b6112fa565b610208610324366004613a8a565b61177c565b610208610337366004613a3e565b611797565b61029c61034a366004613c5b565b6119b7565b61025a61035d366004613c5b565b611a69565b61029c610370366004613a3e565b611af4565b610208611b8e565b61023a611c50565b610208610393366004613b3e565b611c5f565b6103ab6103a6366004613b78565b611c6a565b604051610229959493929190613f96565b6102086103ca366004613ac5565b611ddb565b6103e26103dd366004613a3e565b611e69565b6040516102299190613f41565b61023a6103fd366004613c5b565b611ee6565b6102d0610410366004613a3e565b611f7c565b6103e2610423366004613a3e565b612197565b61023a610436366004613c5b565b612206565b610208610449366004613bfa565b61255f565b61025a61045c366004613b78565b6128df565b6103ab61046f366004613c5b565b612917565b61021d610482366004613a58565b6001600160a01b039182166000908152606a6020908152604080832093909416825291909152205460ff1690565b61025a6104be366004613b78565b61294c565b6001600160a01b0381163314156105215760405162461bcd60e51b815260206004820152601d60248201527f596f752063616e6e6f7420756e666f6c6c6f7720796f757273656c662e00000060448201526064015b60405180910390fd5b60005b33600090815260ca60205260409020548110156106db5733600090815260ca6020526040902080546001600160a01b03841691908390811061057657634e487b7160e01b600052603260045260246000fd5b6000918252602090912001546001600160a01b031614156106c957805b33600090815260ca60205260409020546105af90600190614085565b8110156106795733600090815260ca602052604090206105d0826001613fe2565b815481106105ee57634e487b7160e01b600052603260045260246000fd5b9060005260206000200160ca6000336001600160a01b03166001600160a01b03168152602001908152602001600020828154811061063c57634e487b7160e01b600052603260045260246000fd5b600091825260209091209154910180546001600160a01b0319166001600160a01b039092169190911790558061067181614121565b915050610593565b5033600090815260ca602052604090208054806106a657634e487b7160e01b600052603160045260246000fd5b600082815260209020810160001990810180546001600160a01b03191690550190555b806106d381614121565b915050610524565b5060005b6001600160a01b038216600090815260cb60205260409020548110156108ba576001600160a01b038216600090815260cb6020526040902080543391908390811061073a57634e487b7160e01b600052603260045260246000fd5b6000918252602090912001546001600160a01b031614156108a857805b6001600160a01b038316600090815260cb602052604090205461077c90600190614085565b81101561084f576001600160a01b038316600090815260cb602052604090206107a6826001613fe2565b815481106107c457634e487b7160e01b600052603260045260246000fd5b9060005260206000200160cb6000856001600160a01b03166001600160a01b03168152602001908152602001600020828154811061081257634e487b7160e01b600052603260045260246000fd5b600091825260209091209154910180546001600160a01b0319166001600160a01b039092169190911790558061084781614121565b915050610757565b506001600160a01b038216600090815260cb6020526040902080548061088557634e487b7160e01b600052603160045260246000fd5b600082815260209020810160001990810180546001600160a01b03191690550190555b806108b281614121565b9150506106df565b5050565b60006001600160e01b031982167f780e9d630000000000000000000000000000000000000000000000000000000014806108fc57506108fc82612968565b92915050565b606060658054610911906140e6565b80601f016020809104026020016040519081016040528092919081815260200182805461093d906140e6565b801561098a5780601f1061095f5761010080835404028352916020019161098a565b820191906000526020600020905b81548152906001019060200180831161096d57829003601f168201915b5050505050905090565b6000818152606760205260408120546001600160a01b0316610a0d5760405162461bcd60e51b815260206004820152602c60248201527f4552433732313a20617070726f76656420717565727920666f72206e6f6e657860448201526b34b9ba32b73a103a37b5b2b760a11b6064820152608401610518565b506000908152606960205260409020546001600160a01b031690565b6000610a3482611a69565b9050806001600160a01b0316836001600160a01b03161415610abe5760405162461bcd60e51b815260206004820152602160248201527f4552433732313a20617070726f76616c20746f2063757272656e74206f776e6560448201527f72000000000000000000000000000000000000000000000000000000000000006064820152608401610518565b336001600160a01b0382161480610ada5750610ada8133610482565b610b4c5760405162461bcd60e51b815260206004820152603860248201527f4552433732313a20617070726f76652063616c6c6572206973206e6f74206f7760448201527f6e6572206e6f7220617070726f76656420666f7220616c6c00000000000000006064820152608401610518565b610b568383612a03565b505050565b600080805b33600090815260ca6020526040902054811015610be95733600090815260ca6020526040902080546001600160a01b038616919083908110610bb257634e487b7160e01b600052603260045260246000fd5b6000918252602090912001546001600160a01b03161415610bd7575060019392505050565b80610be181614121565b915050610b60565b5092915050565b610bfa3382612a71565b610c6c5760405162461bcd60e51b815260206004820152603160248201527f4552433732313a207472616e736665722063616c6c6572206973206e6f74206f60448201527f776e6572206e6f7220617070726f7665640000000000000000000000000000006064820152608401610518565b610b56838383612b68565b60606000805b60c954811015610cf557836001600160a01b031660c98281548110610cb257634e487b7160e01b600052603260045260246000fd5b60009182526020909120600260069092020101546001600160a01b03161415610ce35781610cdf81614121565b9250505b80610ced81614121565b915050610c7d565b5060008167ffffffffffffffff811115610d1f57634e487b7160e01b600052604160045260246000fd5b604051908082528060200260200182016040528015610d9257816020015b610d7f6040518060c00160405280600081526020016060815260200160006001600160a01b031681526020016000815260200160608152602001606081525090565b815260200190600190039081610d3d5790505b509050600080600160c980549050610daa9190614085565b90505b8060001361103a57856001600160a01b031660c98281548110610de057634e487b7160e01b600052603260045260246000fd5b60009182526020909120600260069092020101546001600160a01b031614156110285760c98181548110610e2457634e487b7160e01b600052603260045260246000fd5b90600052602060002090600602016040518060c001604052908160008201548152602001600182018054610e57906140e6565b80601f0160208091040260200160405190810160405280929190818152602001828054610e83906140e6565b8015610ed05780601f10610ea557610100808354040283529160200191610ed0565b820191906000526020600020905b815481529060010190602001808311610eb357829003601f168201915b505050918352505060028201546001600160a01b0316602082015260038201546040820152600482018054606090920191610f0a906140e6565b80601f0160208091040260200160405190810160405280929190818152602001828054610f36906140e6565b8015610f835780601f10610f5857610100808354040283529160200191610f83565b820191906000526020600020905b815481529060010190602001808311610f6657829003601f168201915b5050505050815260200160058201805480602002602001604051908101604052809291908181526020018280548015610fe557602002820191906000526020600020905b81546001600160a01b03168152600190910190602001808311610fc7575b50505050508152505083838151811061100e57634e487b7160e01b600052603260045260246000fd5b6020026020010181905250818061102490614121565b9250505b80611032816140c8565b915050610dad565b5090949350505050565b600061104f83611af4565b82106110c35760405162461bcd60e51b815260206004820152602b60248201527f455243373231456e756d657261626c653a206f776e657220696e646578206f7560448201527f74206f6620626f756e64730000000000000000000000000000000000000000006064820152608401610518565b506001600160a01b03919091166000908152609760209081526040808320938352929052205490565b60005b33600090815260cc60205260409020548110156111665733600090815260cc6020526040902080548391908390811061113857634e487b7160e01b600052603260045260246000fd5b9060005260206000209060060201600001541415611154575050565b8061115e81614121565b9150506110ef565b5060005b60c9548110156108ba578160c9828154811061119657634e487b7160e01b600052603260045260246000fd5b90600052602060002090600602016000015414156112e85760c981815481106111cf57634e487b7160e01b600052603260045260246000fd5b6000918252602080832060056006909302019190910180546001810182559083528183200180546001600160a01b03191633908117909155825260cc90526040902060c980548390811061123357634e487b7160e01b600052603260045260246000fd5b6000918252602080832084546001818101875595855291909320600692830290930180549190920290920191825582810180549193830191611274906140e6565b61127f9291906137de565b5060028281015490820180546001600160a01b0319166001600160a01b039092169190911790556003808301549082015560048083018054918301916112c4906140e6565b6112cf9291906137de565b50600582810180546112e49284019190613869565b5050505b806112f281614121565b91505061116a565b606060008312156113735760405162461bcd60e51b815260206004820152602a60248201527f4f6666736574206d7573742062652067726561746572207468616e206f72206560448201527f7175616c20746f20302e000000000000000000000000000000000000000000006064820152608401610518565b60c9548311156113f05760408051600080825260208201909252906113e8565b6113d56040518060c00160405280600081526020016060815260200160006001600160a01b031681526020016000815260200160608152602001606081525090565b8152602001906001900390816113935790505b5090506108fc565b60c954600083611400868461402d565b136114145761140f858361402d565b611416565b835b905060008167ffffffffffffffff81111561144157634e487b7160e01b600052604160045260246000fd5b6040519080825280602002602001820160405280156114b457816020015b6114a16040518060c00160405280600081526020016060815260200160006001600160a01b031681526020016000815260200160608152602001606081525090565b81526020019060019003908161145f5790505b50905060008060016114c6898661402d565b6114d0919061402d565b90505b80876114df8a8761402d565b6114e9919061402d565b136117705760016114fa898661402d565b611504919061402d565b81131580156115275750808761151a8a8761402d565b611524919061402d565b13155b8015611534575060008112155b1561175e5760c9818154811061155a57634e487b7160e01b600052603260045260246000fd5b90600052602060002090600602016040518060c00160405290816000820154815260200160018201805461158d906140e6565b80601f01602080910402602001604051908101604052809291908181526020018280546115b9906140e6565b80156116065780601f106115db57610100808354040283529160200191611606565b820191906000526020600020905b8154815290600101906020018083116115e957829003601f168201915b505050918352505060028201546001600160a01b0316602082015260038201546040820152600482018054606090920191611640906140e6565b80601f016020809104026020016040519081016040528092919081815260200182805461166c906140e6565b80156116b95780601f1061168e576101008083540402835291602001916116b9565b820191906000526020600020905b81548152906001019060200180831161169c57829003601f168201915b505050505081526020016005820180548060200260200160405190810160405280929190818152602001828054801561171b57602002820191906000526020600020905b81546001600160a01b031681526001909101906020018083116116fd575b50505050508152505083838151811061174457634e487b7160e01b600052603260045260246000fd5b6020026020010181905250818061175a90614121565b9250505b80611768816140c8565b9150506114d3565b50909695505050505050565b610b5683838360405180602001604052806000815250611ddb565b6001600160a01b0381163314156117f05760405162461bcd60e51b815260206004820152601b60248201527f596f752063616e6e6f7420666f6c6c6f7720796f757273656c662e00000000006044820152606401610518565b6000805b33600090815260ca60205260409020548110156118785733600090815260ca6020526040902080546001600160a01b03851691908390811061184657634e487b7160e01b600052603260045260246000fd5b6000918252602090912001546001600160a01b0316141561186657600191505b8061187081614121565b9150506117f4565b50806118cf5733600090815260ca6020908152604080832081518084019092526001600160a01b0386811683528154600181018355918552929093209051920180546001600160a01b031916929091169190911790555b506000805b6001600160a01b038316600090815260cb6020526040902054811015611961576001600160a01b038316600090815260cb6020526040902080543391908390811061192f57634e487b7160e01b600052603260045260246000fd5b6000918252602090912001546001600160a01b0316141561194f57600191505b8061195981614121565b9150506118d4565b50806108ba57506001600160a01b03908116600090815260cb6020908152604080832081518084019092523382528054600181018255908452919092209151910180546001600160a01b03191691909216179055565b60006119c260995490565b8210611a365760405162461bcd60e51b815260206004820152602c60248201527f455243373231456e756d657261626c653a20676c6f62616c20696e646578206f60448201527f7574206f6620626f756e647300000000000000000000000000000000000000006064820152608401610518565b60998281548110611a5757634e487b7160e01b600052603260045260246000fd5b90600052602060002001549050919050565b6000818152606760205260408120546001600160a01b0316806108fc5760405162461bcd60e51b815260206004820152602960248201527f4552433732313a206f776e657220717565727920666f72206e6f6e657869737460448201527f656e7420746f6b656e00000000000000000000000000000000000000000000006064820152608401610518565b60006001600160a01b038216611b725760405162461bcd60e51b815260206004820152602a60248201527f4552433732313a2062616c616e636520717565727920666f7220746865207a6560448201527f726f2061646472657373000000000000000000000000000000000000000000006064820152608401610518565b506001600160a01b031660009081526068602052604090205490565b600054610100900460ff1680611ba7575060005460ff16155b611c195760405162461bcd60e51b815260206004820152602e60248201527f496e697469616c697a61626c653a20636f6e747261637420697320616c72656160448201527f647920696e697469616c697a65640000000000000000000000000000000000006064820152608401610518565b600054610100900460ff16158015611c3b576000805461ffff19166101011790555b8015611c4d576000805461ff00191690555b50565b606060668054610911906140e6565b6108ba338383612d40565b60cc6020528160005260406000208181548110611c8657600080fd5b906000526020600020906006020160009150915050806000015490806001018054611cb0906140e6565b80601f0160208091040260200160405190810160405280929190818152602001828054611cdc906140e6565b8015611d295780601f10611cfe57610100808354040283529160200191611d29565b820191906000526020600020905b815481529060010190602001808311611d0c57829003601f168201915b505050506002830154600384015460048501805494956001600160a01b039093169491935090611d58906140e6565b80601f0160208091040260200160405190810160405280929190818152602001828054611d84906140e6565b8015611dd15780601f10611da657610100808354040283529160200191611dd1565b820191906000526020600020905b815481529060010190602001808311611db457829003601f168201915b5050505050905085565b611de53383612a71565b611e575760405162461bcd60e51b815260206004820152603160248201527f4552433732313a207472616e736665722063616c6c6572206973206e6f74206f60448201527f776e6572206e6f7220617070726f7665640000000000000000000000000000006064820152608401610518565b611e6384848484612e0f565b50505050565b6001600160a01b038116600090815260cb60209081526040808320805482518185028101850190935280835260609492939192909184015b82821015611edb57600084815260209081902060408051808401909152908401546001600160a01b03168152825260019092019101611ea1565b505050509050919050565b6000818152606760205260409020546060906001600160a01b0316611f735760405162461bcd60e51b815260206004820152602f60248201527f4552433732314d657461646174613a2055524920717565727920666f72206e6f60448201527f6e6578697374656e7420746f6b656e00000000000000000000000000000000006064820152608401610518565b6108fc82612206565b6001600160a01b038116600090815260cc60209081526040808320805482518185028101850190935280835260609492939192909184015b82821015611edb57838290600052602060002090600602016040518060c001604052908160008201548152602001600182018054611ff1906140e6565b80601f016020809104026020016040519081016040528092919081815260200182805461201d906140e6565b801561206a5780601f1061203f5761010080835404028352916020019161206a565b820191906000526020600020905b81548152906001019060200180831161204d57829003601f168201915b505050918352505060028201546001600160a01b03166020820152600382015460408201526004820180546060909201916120a4906140e6565b80601f01602080910402602001604051908101604052809291908181526020018280546120d0906140e6565b801561211d5780601f106120f25761010080835404028352916020019161211d565b820191906000526020600020905b81548152906001019060200180831161210057829003601f168201915b505050505081526020016005820180548060200260200160405190810160405280929190818152602001828054801561217f57602002820191906000526020600020905b81546001600160a01b03168152600190910190602001808311612161575b50505050508152505081526020019060010190611fb4565b6001600160a01b038116600090815260ca60209081526040808320805482518185028101850190935280835260609492939192909184018215611edb57600084815260209081902060408051808401909152908401546001600160a01b03168152825260019092019101611ea1565b606061224a6040518060c00160405280600081526020016060815260200160006001600160a01b031681526020016000815260200160608152602001606081525090565b60005b60c954811015612491578360c9828154811061227957634e487b7160e01b600052603260045260246000fd5b906000526020600020906006020160000154141561247f5760c981815481106122b257634e487b7160e01b600052603260045260246000fd5b90600052602060002090600602016040518060c0016040529081600082015481526020016001820180546122e5906140e6565b80601f0160208091040260200160405190810160405280929190818152602001828054612311906140e6565b801561235e5780601f106123335761010080835404028352916020019161235e565b820191906000526020600020905b81548152906001019060200180831161234157829003601f168201915b505050918352505060028201546001600160a01b0316602082015260038201546040820152600482018054606090920191612398906140e6565b80601f01602080910402602001604051908101604052809291908181526020018280546123c4906140e6565b80156124115780601f106123e657610100808354040283529160200191612411565b820191906000526020600020905b8154815290600101906020018083116123f457829003601f168201915b505050505081526020016005820180548060200260200160405190810160405280929190818152602001828054801561247357602002820191906000526020600020905b81546001600160a01b03168152600190910190602001808311612455575b50505050508152505091505b8061248981614121565b91505061224d565b50805183146124e25760405162461bcd60e51b815260206004820152601060248201527f5477656574206e6f7420666f756e642e000000000000000000000000000000006044820152606401610518565b6125386124ee84612e8d565b82602001516040518060600160405280603581526020016141a96035913984608001516040516020016125249493929190613c9f565b604051602081830303815290604052612fdb565b6040516020016125489190613dc8565b604051602081830303815290604052915050919050565b600061256a60995490565b90506000612579826001613fe2565b90506125bd6040518060c00160405280600081526020016060815260200160006001600160a01b031681526020016000815260200160608152602001606081525090565b8351156126da5781815260208082018681523360408401524260608401526080830186905260c9805460018101825560009190915283517f66be4f155c5ef2ebd3772b228f2f00681e4ed5826cdb3b1943cc11ad15ad1d286006909202918201908155915180518594612654937f66be4f155c5ef2ebd3772b228f2f00681e4ed5826cdb3b1943cc11ad15ad1d29019201906138a8565b5060408201516002820180546001600160a01b0319166001600160a01b0390921691909117905560608201516003820155608082015180516126a09160048401916020909101906138a8565b5060a082015180516126bc91600584019160209091019061391c565b5050506126d5338460016126d09190613fe2565b613188565b612897565b84516127285760405162461bcd60e51b815260206004820152601260248201527f547765657420697320746f6f2073686f727400000000000000000000000000006044820152606401610518565b612731856131a2565b61277d5760405162461bcd60e51b815260206004820181905260248201527f5370616365206f6e6c79207477656574206973206e6f7420616c6c6f7765642e6044820152606401610518565b81815260208082018681523360408085019190915242606085015280518084019091526000808252608085019190915260c98054600181018255915283517f66be4f155c5ef2ebd3772b228f2f00681e4ed5826cdb3b1943cc11ad15ad1d28600690920291820190815591518051859461281b937f66be4f155c5ef2ebd3772b228f2f00681e4ed5826cdb3b1943cc11ad15ad1d29019201906138a8565b5060408201516002820180546001600160a01b0319166001600160a01b0390921691909117905560608201516003820155608082015180516128679160048401916020909101906138a8565b5060a0820151805161288391600584019160209091019061391c565b505050612897338460016126d09190613fe2565b336001600160a01b03167fed917e0e51bb528b7fef2750065cd119dddd8e8fa54f38a656d4107e7c14f37a866040516128d09190613f83565b60405180910390a25050505050565b60ca60205281600052604060002081815481106128fb57600080fd5b6000918252602090912001546001600160a01b03169150829050565b60c9818154811061292757600080fd5b60009182526020909120600690910201805460018201805491935090611cb0906140e6565b60cb60205281600052604060002081815481106128fb57600080fd5b60006001600160e01b031982167f80ac58cd0000000000000000000000000000000000000000000000000000000014806129cb57506001600160e01b031982167f5b5e139f00000000000000000000000000000000000000000000000000000000145b806108fc57507f01ffc9a7000000000000000000000000000000000000000000000000000000006001600160e01b03198316146108fc565b600081815260696020526040902080546001600160a01b0319166001600160a01b0384169081179091558190612a3882611a69565b6001600160a01b03167f8c5be1e5ebec7d5bd14f71427d1e84f3dd0314c0f7b2291e5b200ac8c7c3b92560405160405180910390a45050565b6000818152606760205260408120546001600160a01b0316612aea5760405162461bcd60e51b815260206004820152602c60248201527f4552433732313a206f70657261746f7220717565727920666f72206e6f6e657860448201526b34b9ba32b73a103a37b5b2b760a11b6064820152608401610518565b6000612af583611a69565b9050806001600160a01b0316846001600160a01b03161480612b305750836001600160a01b0316612b2584610994565b6001600160a01b0316145b80612b6057506001600160a01b038082166000908152606a602090815260408083209388168352929052205460ff165b949350505050565b826001600160a01b0316612b7b82611a69565b6001600160a01b031614612bf75760405162461bcd60e51b815260206004820152602960248201527f4552433732313a207472616e73666572206f6620746f6b656e2074686174206960448201527f73206e6f74206f776e00000000000000000000000000000000000000000000006064820152608401610518565b6001600160a01b038216612c725760405162461bcd60e51b8152602060048201526024808201527f4552433732313a207472616e7366657220746f20746865207a65726f2061646460448201527f72657373000000000000000000000000000000000000000000000000000000006064820152608401610518565b612c7d838383613248565b612c88600082612a03565b6001600160a01b0383166000908152606860205260408120805460019290612cb1908490614085565b90915550506001600160a01b0382166000908152606860205260408120805460019290612cdf908490613fe2565b909155505060008181526067602052604080822080546001600160a01b0319166001600160a01b0386811691821790925591518493918716917fddf252ad1be2c89b69c2b068fc378daa952ba7f163c4a11628f55a4df523b3ef91a4505050565b816001600160a01b0316836001600160a01b03161415612da25760405162461bcd60e51b815260206004820152601960248201527f4552433732313a20617070726f766520746f2063616c6c6572000000000000006044820152606401610518565b6001600160a01b038381166000818152606a6020908152604080832094871680845294825291829020805460ff191686151590811790915591519182527f17307eab39ab6107e8899845ad3d59bd9653f200f220920489ca2b5937696c31910160405180910390a3505050565b612e1a848484612b68565b612e2684848484613300565b611e635760405162461bcd60e51b815260206004820152603260248201527f4552433732313a207472616e7366657220746f206e6f6e20455243373231526560448201527131b2b4bb32b91034b6b83632b6b2b73a32b960711b6064820152608401610518565b606081612ecd57505060408051808201909152600181527f3000000000000000000000000000000000000000000000000000000000000000602082015290565b8160005b8115612ef75780612ee181614121565b9150612ef09050600a83613ffa565b9150612ed1565b60008167ffffffffffffffff811115612f2057634e487b7160e01b600052604160045260246000fd5b6040519080825280601f01601f191660200182016040528015612f4a576020820181803683370190505b5090505b8415612b6057612f5f600183614085565b9150612f6c600a8661413c565b612f77906030613fe2565b60f81b818381518110612f9a57634e487b7160e01b600052603260045260246000fd5b60200101907effffffffffffffffffffffffffffffffffffffffffffffffffffffffffffff1916908160001a905350612fd4600a86613ffa565b9450612f4e565b6060815160001415612ffb57505060408051602081019091526000815290565b60006040518060600160405280604081526020016141de604091399050600060038451600261302a9190613fe2565b6130349190613ffa565b61303f90600461400e565b9050600061304e826020613fe2565b67ffffffffffffffff81111561307457634e487b7160e01b600052604160045260246000fd5b6040519080825280601f01601f19166020018201604052801561309e576020820181803683370190505b509050818152600183018586518101602084015b8183101561310c5760039283018051603f601282901c811687015160f890811b8552600c83901c8216880151811b6001860152600683901c8216880151811b60028601529116860151901b938201939093526004016130b2565b60038951066001811461312657600281146131525761317a565b7f3d3d00000000000000000000000000000000000000000000000000000000000060011983015261317a565b7f3d000000000000000000000000000000000000000000000000000000000000006000198301525b509398975050505050505050565b6108ba828260405180602001604052806000815250613458565b60006001815b83518110156132405760008482815181106131d357634e487b7160e01b600052603260045260246000fd5b01602001517fff000000000000000000000000000000000000000000000000000000000000001690507f2000000000000000000000000000000000000000000000000000000000000000811461322d576000925050613240565b508061323881614121565b9150506131a8565b501592915050565b6001600160a01b0383166132a35761329e81609980546000838152609a60205260408120829055600182018355919091527f72a152ddfb8e864297c917af52ea6c1c68aead0fee1a62673fcc7e0c94979d000155565b6132c6565b816001600160a01b0316836001600160a01b0316146132c6576132c683826134d6565b6001600160a01b0382166132dd57610b5681613573565b826001600160a01b0316826001600160a01b031614610b5657610b56828261364c565b60006001600160a01b0384163b1561344d57604051630a85bd0160e11b81526001600160a01b0385169063150b7a0290613344903390899088908890600401613e0d565b602060405180830381600087803b15801561335e57600080fd5b505af192505050801561338e575060408051601f3d908101601f1916820190925261338b91810190613bbd565b60015b613433573d8080156133bc576040519150601f19603f3d011682016040523d82523d6000602084013e6133c1565b606091505b50805161342b5760405162461bcd60e51b815260206004820152603260248201527f4552433732313a207472616e7366657220746f206e6f6e20455243373231526560448201527131b2b4bb32b91034b6b83632b6b2b73a32b960711b6064820152608401610518565b805181602001fd5b6001600160e01b031916630a85bd0160e11b149050612b60565b506001949350505050565b6134628383613690565b61346f6000848484613300565b610b565760405162461bcd60e51b815260206004820152603260248201527f4552433732313a207472616e7366657220746f206e6f6e20455243373231526560448201527131b2b4bb32b91034b6b83632b6b2b73a32b960711b6064820152608401610518565b600060016134e384611af4565b6134ed9190614085565b600083815260986020526040902054909150808214613540576001600160a01b03841660009081526097602090815260408083208584528252808320548484528184208190558352609890915290208190555b5060009182526098602090815260408084208490556001600160a01b039094168352609781528383209183525290812055565b60995460009061358590600190614085565b6000838152609a6020526040812054609980549394509092849081106135bb57634e487b7160e01b600052603260045260246000fd5b9060005260206000200154905080609983815481106135ea57634e487b7160e01b600052603260045260246000fd5b6000918252602080832090910192909255828152609a9091526040808220849055858252812055609980548061363057634e487b7160e01b600052603160045260246000fd5b6001900381819060005260206000200160009055905550505050565b600061365783611af4565b6001600160a01b039093166000908152609760209081526040808320868452825280832085905593825260989052919091209190915550565b6001600160a01b0382166136e65760405162461bcd60e51b815260206004820181905260248201527f4552433732313a206d696e7420746f20746865207a65726f20616464726573736044820152606401610518565b6000818152606760205260409020546001600160a01b03161561374b5760405162461bcd60e51b815260206004820152601c60248201527f4552433732313a20746f6b656e20616c7265616479206d696e746564000000006044820152606401610518565b61375760008383613248565b6001600160a01b0382166000908152606860205260408120805460019290613780908490613fe2565b909155505060008181526067602052604080822080546001600160a01b0319166001600160a01b03861690811790915590518392907fddf252ad1be2c89b69c2b068fc378daa952ba7f163c4a11628f55a4df523b3ef908290a45050565b8280546137ea906140e6565b90600052602060002090601f01602090048101928261380c5760008555613859565b82601f1061381d5780548555613859565b8280016001018555821561385957600052602060002091601f016020900482015b8281111561385957825482559160010191906001019061383e565b50613865929150613971565b5090565b8280548282559060005260206000209081019282156138595760005260206000209182018281111561385957825482559160010191906001019061383e565b8280546138b4906140e6565b90600052602060002090601f0160209004810192826138d65760008555613859565b82601f106138ef57805160ff1916838001178555613859565b82800160010185558215613859579182015b82811115613859578251825591602001919060010190613901565b828054828255906000526020600020908101928215613859579160200282015b8281111561385957825182546001600160a01b0319166001600160a01b0390911617825560209092019160019091019061393c565b5b808211156138655760008155600101613972565b600067ffffffffffffffff808411156139a1576139a161417c565b604051601f8501601f19908116603f011681019082821181831017156139c9576139c961417c565b816040528093508581528686860111156139e257600080fd5b858560208301376000602087830101525050509392505050565b80356001600160a01b0381168114613a1357600080fd5b919050565b600082601f830112613a28578081fd5b613a3783833560208501613986565b9392505050565b600060208284031215613a4f578081fd5b613a37826139fc565b60008060408385031215613a6a578081fd5b613a73836139fc565b9150613a81602084016139fc565b90509250929050565b600080600060608486031215613a9e578081fd5b613aa7846139fc565b9250613ab5602085016139fc565b9150604084013590509250925092565b60008060008060808587031215613ada578081fd5b613ae3856139fc565b9350613af1602086016139fc565b925060408501359150606085013567ffffffffffffffff811115613b13578182fd5b8501601f81018713613b23578182fd5b613b3287823560208401613986565b91505092959194509250565b60008060408385031215613b50578182fd5b613b59836139fc565b915060208301358015158114613b6d578182fd5b809150509250929050565b60008060408385031215613b8a578182fd5b613b93836139fc565b946020939093013593505050565b600060208284031215613bb2578081fd5b8135613a3781614192565b600060208284031215613bce578081fd5b8151613a3781614192565b60008060408385031215613beb578182fd5b50508035926020909101359150565b60008060408385031215613c0c578182fd5b823567ffffffffffffffff80821115613c23578384fd5b613c2f86838701613a18565b93506020850135915080821115613c44578283fd5b50613c5185828601613a18565b9150509250929050565b600060208284031215613c6c578081fd5b5035919050565b60008151808452613c8b81602086016020860161409c565b601f01601f19169290920160200192915050565b7f7b226e616d65223a225477656574202300000000000000000000000000000000815260008551613cd7816010850160208a0161409c565b7f222c20226465736372697074696f6e223a2200000000000000000000000000006010918401918201528551613d14816022840160208a0161409c565b7f222c2022696d616765223a202200000000000000000000000000000000000000602292909101918201528451613d5281602f84016020890161409c565b7f222c2022696d6167655f64617461223a20220000000000000000000000000000602f92909101918201528351613d9081604184016020880161409c565b7f227d000000000000000000000000000000000000000000000000000000000000604192909101918201526043019695505050505050565b7f646174613a6170706c69636174696f6e2f6a736f6e3b6261736536342c000000815260008251613e0081601d85016020870161409c565b91909101601d0192915050565b60006001600160a01b03808716835280861660208401525083604083015260806060830152613e3f6080830184613c73565b9695505050505050565b60006020808301818452808551808352604092508286019150828160051b870101848801865b83811015613f3357603f19898403018552815160c08151855288820151818a870152613e9d82870182613c73565b838a01516001600160a01b03908116888c015260608086015190890152608080860151898403828b0152929450925090613ed78482613c73565b60a095860151898203968a01969096528551808252958d01958e9550908d01935090505b80841015613f1d57845182168352938b019360019390930192918b0191613efb565b5050968901969450505090860190600101613e6f565b509098975050505050505050565b6020808252825182820181905260009190848201906040850190845b81811015611770578351516001600160a01b031683529284019291840191600101613f5d565b602081526000613a376020830184613c73565b85815260a060208201526000613faf60a0830187613c73565b6001600160a01b03861660408401528460608401528281036080840152613fd68185613c73565b98975050505050505050565b60008219821115613ff557613ff5614150565b500190565b60008261400957614009614166565b500490565b600081600019048311821515161561402857614028614150565b500290565b600080831283600160ff1b0183128115161561404b5761404b614150565b837f7fffffffffffffffffffffffffffffffffffffffffffffffffffffffffffffff01831381161561407f5761407f614150565b50500390565b60008282101561409757614097614150565b500390565b60005b838110156140b757818101518382015260200161409f565b83811115611e635750506000910152565b6000600160ff1b8214156140de576140de614150565b506000190190565b600181811c908216806140fa57607f821691505b6020821081141561411b57634e487b7160e01b600052602260045260246000fd5b50919050565b600060001982141561413557614135614150565b5060010190565b60008261414b5761414b614166565b500690565b634e487b7160e01b600052601160045260246000fd5b634e487b7160e01b600052601260045260246000fd5b634e487b7160e01b600052604160045260246000fd5b6001600160e01b031981168114611c4d57600080fdfe697066733a2f2f516d57566647316d48635973345139484753484a59656468454566554d684551396d51484b4646545761793831754142434445464748494a4b4c4d4e4f505152535455565758595a6162636465666768696a6b6c6d6e6f707172737475767778797a303132333435363738392b2fa26469706673582212205d757334e938d77379495892dcf017e10e1dbb2fe09df6fc24463297b800854864736f6c63430008040033496e697469616c697a61626c653a20636f6e747261637420697320616c726561",
  "linkReferences": {},
  "deployedLinkReferences": {}
}