{
  "_format": "hh-sol-artifact-1",
  "contractName": "TwitterV1",
  "sourceName": "contracts/TwitterV1.sol",
  "abi": [
    {
      "inputs": [],
      "stateMutability": "nonpayable",
      "type": "constructor"
    },
    {
      "anonymous": false,
      "inputs": [
        {
          "indexed": true,
          "internalType": "address",
          "name": "owner",
          "type": "address"
        },
        {
          "indexed": true,
          "internalType": "address",
          "name": "approved",
          "type": "address"
        },
        {
          "indexed": true,
          "internalType": "uint256",
          "name": "tokenId",
          "type": "uint256"
        }
      ],
      "name": "Approval",
      "type": "event"
    },
    {
      "anonymous": false,
      "inputs": [
        {
          "indexed": true,
          "internalType": "address",
          "name": "owner",
          "type": "address"
        },
        {
          "indexed": true,
          "internalType": "address",
          "name": "operator",
          "type": "address"
        },
        {
          "indexed": false,
          "internalType": "bool",
          "name": "approved",
          "type": "bool"
        }
      ],
      "name": "ApprovalForAll",
      "type": "event"
    },
    {
      "anonymous": false,
      "inputs": [
        {
          "indexed": true,
          "internalType": "address",
          "name": "sender",
          "type": "address"
        }
      ],
      "name": "Commented",
      "type": "event"
    },
    {
      "anonymous": false,
      "inputs": [
        {
          "indexed": true,
          "internalType": "address",
          "name": "from",
          "type": "address"
        },
        {
          "indexed": true,
          "internalType": "address",
          "name": "to",
          "type": "address"
        },
        {
          "indexed": true,
          "internalType": "uint256",
          "name": "tokenId",
          "type": "uint256"
        }
      ],
      "name": "Transfer",
      "type": "event"
    },
    {
      "anonymous": false,
      "inputs": [
        {
          "indexed": true,
          "internalType": "address",
          "name": "sender",
          "type": "address"
        }
      ],
      "name": "Tweeted",
      "type": "event"
    },
    {
      "inputs": [
        {
          "internalType": "uint256",
          "name": "_tokenId",
          "type": "uint256"
        }
      ],
      "name": "addLike",
      "outputs": [],
      "stateMutability": "nonpayable",
      "type": "function"
    },
    {
      "inputs": [
        {
          "internalType": "uint256",
          "name": "_tokenId",
          "type": "uint256"
        }
      ],
      "name": "addRetweet",
      "outputs": [],
      "stateMutability": "nonpayable",
      "type": "function"
    },
    {
      "inputs": [
        {
          "internalType": "address",
          "name": "to",
          "type": "address"
        },
        {
          "internalType": "uint256",
          "name": "tokenId",
          "type": "uint256"
        }
      ],
      "name": "approve",
      "outputs": [],
      "stateMutability": "nonpayable",
      "type": "function"
    },
    {
      "inputs": [
        {
          "internalType": "address",
          "name": "owner",
          "type": "address"
        }
      ],
      "name": "balanceOf",
      "outputs": [
        {
          "internalType": "uint256",
          "name": "",
          "type": "uint256"
        }
      ],
      "stateMutability": "view",
      "type": "function"
    },
    {
      "inputs": [
        {
          "internalType": "string",
          "name": "_url",
          "type": "string"
        }
      ],
      "name": "changeIconUrl",
      "outputs": [],
      "stateMutability": "nonpayable",
      "type": "function"
    },
    {
      "inputs": [
        {
          "internalType": "uint256",
          "name": "",
          "type": "uint256"
        },
        {
          "internalType": "uint256",
          "name": "",
          "type": "uint256"
        }
      ],
      "name": "comments",
      "outputs": [
        {
          "internalType": "uint256",
          "name": "tokenId",
          "type": "uint256"
        },
        {
          "internalType": "string",
          "name": "content",
          "type": "string"
        },
        {
          "internalType": "address",
          "name": "author",
          "type": "address"
        },
        {
          "internalType": "uint256",
          "name": "timestamp",
          "type": "uint256"
        },
        {
          "internalType": "string",
          "name": "attachment",
          "type": "string"
        },
        {
          "internalType": "string",
          "name": "iconUrl",
          "type": "string"
        },
        {
          "internalType": "address",
          "name": "retweetedBy",
          "type": "address"
        }
      ],
      "stateMutability": "view",
      "type": "function"
    },
    {
      "inputs": [
        {
          "internalType": "address",
          "name": "_address",
          "type": "address"
        }
      ],
      "name": "follow",
      "outputs": [],
      "stateMutability": "nonpayable",
      "type": "function"
    },
    {
      "inputs": [
        {
          "internalType": "address",
          "name": "",
          "type": "address"
        },
        {
          "internalType": "uint256",
          "name": "",
          "type": "uint256"
        }
      ],
      "name": "followers",
      "outputs": [
        {
          "internalType": "address",
          "name": "id",
          "type": "address"
        },
        {
          "internalType": "string",
          "name": "iconUrl",
          "type": "string"
        }
      ],
      "stateMutability": "view",
      "type": "function"
    },
    {
      "inputs": [
        {
          "internalType": "address",
          "name": "",
          "type": "address"
        },
        {
          "internalType": "uint256",
          "name": "",
          "type": "uint256"
        }
      ],
      "name": "followings",
      "outputs": [
        {
          "internalType": "address",
          "name": "id",
          "type": "address"
        },
        {
          "internalType": "string",
          "name": "iconUrl",
          "type": "string"
        }
      ],
      "stateMutability": "view",
      "type": "function"
    },
    {
      "inputs": [
        {
          "internalType": "uint256",
          "name": "tokenId",
          "type": "uint256"
        }
      ],
      "name": "getApproved",
      "outputs": [
        {
          "internalType": "address",
          "name": "",
          "type": "address"
        }
      ],
      "stateMutability": "view",
      "type": "function"
    },
    {
      "inputs": [
        {
          "internalType": "uint256",
          "name": "_tokenId",
          "type": "uint256"
        }
      ],
      "name": "getComments",
      "outputs": [
        {
          "components": [
            {
              "internalType": "uint256",
              "name": "tokenId",
              "type": "uint256"
            },
            {
              "internalType": "string",
              "name": "content",
              "type": "string"
            },
            {
              "internalType": "address",
              "name": "author",
              "type": "address"
            },
            {
              "internalType": "uint256",
              "name": "timestamp",
              "type": "uint256"
            },
            {
              "internalType": "string",
              "name": "attachment",
              "type": "string"
            },
            {
              "internalType": "address[]",
              "name": "likes",
              "type": "address[]"
            },
            {
              "internalType": "address[]",
              "name": "retweets",
              "type": "address[]"
            },
            {
              "internalType": "string",
              "name": "iconUrl",
              "type": "string"
            },
            {
              "internalType": "address",
              "name": "retweetedBy",
              "type": "address"
            }
          ],
          "internalType": "struct SharedStruct.Tweet[]",
          "name": "",
          "type": "tuple[]"
        }
      ],
      "stateMutability": "view",
      "type": "function"
    },
    {
      "inputs": [
        {
          "internalType": "address",
          "name": "_address",
          "type": "address"
        }
      ],
      "name": "getFollowers",
      "outputs": [
        {
          "components": [
            {
              "internalType": "address",
              "name": "id",
              "type": "address"
            },
            {
              "internalType": "string",
              "name": "iconUrl",
              "type": "string"
            }
          ],
          "internalType": "struct SharedStruct.User[]",
          "name": "",
          "type": "tuple[]"
        }
      ],
      "stateMutability": "view",
      "type": "function"
    },
    {
      "inputs": [
        {
          "internalType": "address",
          "name": "_address",
          "type": "address"
        }
      ],
      "name": "getFollowings",
      "outputs": [
        {
          "components": [
            {
              "internalType": "address",
              "name": "id",
              "type": "address"
            },
            {
              "internalType": "string",
              "name": "iconUrl",
              "type": "string"
            }
          ],
          "internalType": "struct SharedStruct.User[]",
          "name": "",
          "type": "tuple[]"
        }
      ],
      "stateMutability": "view",
      "type": "function"
    },
    {
      "inputs": [
        {
          "internalType": "address",
          "name": "_address",
          "type": "address"
        }
      ],
      "name": "getLikes",
      "outputs": [
        {
          "components": [
            {
              "internalType": "uint256",
              "name": "tokenId",
              "type": "uint256"
            },
            {
              "internalType": "string",
              "name": "content",
              "type": "string"
            },
            {
              "internalType": "address",
              "name": "author",
              "type": "address"
            },
            {
              "internalType": "uint256",
              "name": "timestamp",
              "type": "uint256"
            },
            {
              "internalType": "string",
              "name": "attachment",
              "type": "string"
            },
            {
              "internalType": "address[]",
              "name": "likes",
              "type": "address[]"
            },
            {
              "internalType": "address[]",
              "name": "retweets",
              "type": "address[]"
            },
            {
              "internalType": "string",
              "name": "iconUrl",
              "type": "string"
            },
            {
              "internalType": "address",
              "name": "retweetedBy",
              "type": "address"
            }
          ],
          "internalType": "struct SharedStruct.Tweet[]",
          "name": "",
          "type": "tuple[]"
        }
      ],
      "stateMutability": "view",
      "type": "function"
    },
    {
      "inputs": [
        {
          "internalType": "int256",
          "name": "offset",
          "type": "int256"
        },
        {
          "internalType": "int256",
          "name": "limit",
          "type": "int256"
        }
      ],
      "name": "getTimeline",
      "outputs": [
        {
          "components": [
            {
              "internalType": "uint256",
              "name": "tokenId",
              "type": "uint256"
            },
            {
              "internalType": "string",
              "name": "content",
              "type": "string"
            },
            {
              "internalType": "address",
              "name": "author",
              "type": "address"
            },
            {
              "internalType": "uint256",
              "name": "timestamp",
              "type": "uint256"
            },
            {
              "internalType": "string",
              "name": "attachment",
              "type": "string"
            },
            {
              "internalType": "address[]",
              "name": "likes",
              "type": "address[]"
            },
            {
              "internalType": "address[]",
              "name": "retweets",
              "type": "address[]"
            },
            {
              "internalType": "string",
              "name": "iconUrl",
              "type": "string"
            },
            {
              "internalType": "address",
              "name": "retweetedBy",
              "type": "address"
            }
          ],
          "internalType": "struct SharedStruct.Tweet[]",
          "name": "",
          "type": "tuple[]"
        }
      ],
      "stateMutability": "view",
      "type": "function"
    },
    {
      "inputs": [
        {
          "internalType": "uint256",
          "name": "_tokenId",
          "type": "uint256"
        }
      ],
      "name": "getTweet",
      "outputs": [
        {
          "components": [
            {
              "internalType": "uint256",
              "name": "tokenId",
              "type": "uint256"
            },
            {
              "internalType": "string",
              "name": "content",
              "type": "string"
            },
            {
              "internalType": "address",
              "name": "author",
              "type": "address"
            },
            {
              "internalType": "uint256",
              "name": "timestamp",
              "type": "uint256"
            },
            {
              "internalType": "string",
              "name": "attachment",
              "type": "string"
            },
            {
              "internalType": "address[]",
              "name": "likes",
              "type": "address[]"
            },
            {
              "internalType": "address[]",
              "name": "retweets",
              "type": "address[]"
            },
            {
              "internalType": "string",
              "name": "iconUrl",
              "type": "string"
            },
            {
              "internalType": "address",
              "name": "retweetedBy",
              "type": "address"
            }
          ],
          "internalType": "struct SharedStruct.Tweet",
          "name": "",
          "type": "tuple"
        }
      ],
      "stateMutability": "view",
      "type": "function"
    },
    {
      "inputs": [
        {
          "internalType": "address",
          "name": "_address",
          "type": "address"
        }
      ],
      "name": "getUserIcon",
      "outputs": [
        {
          "internalType": "string",
          "name": "",
          "type": "string"
        }
      ],
      "stateMutability": "view",
      "type": "function"
    },
    {
      "inputs": [
        {
          "internalType": "address",
          "name": "_address",
          "type": "address"
        }
      ],
      "name": "getUserTweets",
      "outputs": [
        {
          "components": [
            {
              "internalType": "uint256",
              "name": "tokenId",
              "type": "uint256"
            },
            {
              "internalType": "string",
              "name": "content",
              "type": "string"
            },
            {
              "internalType": "address",
              "name": "author",
              "type": "address"
            },
            {
              "internalType": "uint256",
              "name": "timestamp",
              "type": "uint256"
            },
            {
              "internalType": "string",
              "name": "attachment",
              "type": "string"
            },
            {
              "internalType": "address[]",
              "name": "likes",
              "type": "address[]"
            },
            {
              "internalType": "address[]",
              "name": "retweets",
              "type": "address[]"
            },
            {
              "internalType": "string",
              "name": "iconUrl",
              "type": "string"
            },
            {
              "internalType": "address",
              "name": "retweetedBy",
              "type": "address"
            }
          ],
          "internalType": "struct SharedStruct.Tweet[]",
          "name": "",
          "type": "tuple[]"
        }
      ],
      "stateMutability": "view",
      "type": "function"
    },
    {
      "inputs": [],
      "name": "initialize",
      "outputs": [],
      "stateMutability": "nonpayable",
      "type": "function"
    },
    {
      "inputs": [
        {
          "internalType": "address",
          "name": "owner",
          "type": "address"
        },
        {
          "internalType": "address",
          "name": "operator",
          "type": "address"
        }
      ],
      "name": "isApprovedForAll",
      "outputs": [
        {
          "internalType": "bool",
          "name": "",
          "type": "bool"
        }
      ],
      "stateMutability": "view",
      "type": "function"
    },
    {
      "inputs": [
        {
          "internalType": "address",
          "name": "_address",
          "type": "address"
        }
      ],
      "name": "isFollowing",
      "outputs": [
        {
          "internalType": "bool",
          "name": "",
          "type": "bool"
        }
      ],
      "stateMutability": "view",
      "type": "function"
    },
    {
      "inputs": [
        {
          "internalType": "address",
          "name": "",
          "type": "address"
        },
        {
          "internalType": "uint256",
          "name": "",
          "type": "uint256"
        }
      ],
      "name": "likes",
      "outputs": [
        {
          "internalType": "uint256",
          "name": "tokenId",
          "type": "uint256"
        },
        {
          "internalType": "string",
          "name": "content",
          "type": "string"
        },
        {
          "internalType": "address",
          "name": "author",
          "type": "address"
        },
        {
          "internalType": "uint256",
          "name": "timestamp",
          "type": "uint256"
        },
        {
          "internalType": "string",
          "name": "attachment",
          "type": "string"
        },
        {
          "internalType": "string",
          "name": "iconUrl",
          "type": "string"
        },
        {
          "internalType": "address",
          "name": "retweetedBy",
          "type": "address"
        }
      ],
      "stateMutability": "view",
      "type": "function"
    },
    {
      "inputs": [],
      "name": "name",
      "outputs": [
        {
          "internalType": "string",
          "name": "",
          "type": "string"
        }
      ],
      "stateMutability": "view",
      "type": "function"
    },
    {
      "inputs": [
        {
          "internalType": "uint256",
          "name": "tokenId",
          "type": "uint256"
        }
      ],
      "name": "ownerOf",
      "outputs": [
        {
          "internalType": "address",
          "name": "",
          "type": "address"
        }
      ],
      "stateMutability": "view",
      "type": "function"
    },
    {
      "inputs": [
        {
          "internalType": "address",
          "name": "from",
          "type": "address"
        },
        {
          "internalType": "address",
          "name": "to",
          "type": "address"
        },
        {
          "internalType": "uint256",
          "name": "tokenId",
          "type": "uint256"
        }
      ],
      "name": "safeTransferFrom",
      "outputs": [],
      "stateMutability": "nonpayable",
      "type": "function"
    },
    {
      "inputs": [
        {
          "internalType": "address",
          "name": "from",
          "type": "address"
        },
        {
          "internalType": "address",
          "name": "to",
          "type": "address"
        },
        {
          "internalType": "uint256",
          "name": "tokenId",
          "type": "uint256"
        },
        {
          "internalType": "bytes",
          "name": "_data",
          "type": "bytes"
        }
      ],
      "name": "safeTransferFrom",
      "outputs": [],
      "stateMutability": "nonpayable",
      "type": "function"
    },
    {
      "inputs": [
        {
          "internalType": "address",
          "name": "operator",
          "type": "address"
        },
        {
          "internalType": "bool",
          "name": "approved",
          "type": "bool"
        }
      ],
      "name": "setApprovalForAll",
      "outputs": [],
      "stateMutability": "nonpayable",
      "type": "function"
    },
    {
      "inputs": [
        {
          "internalType": "string",
          "name": "_comment",
          "type": "string"
        },
        {
          "internalType": "uint256",
          "name": "_tokenId",
          "type": "uint256"
        }
      ],
      "name": "setComment",
      "outputs": [],
      "stateMutability": "nonpayable",
      "type": "function"
    },
    {
      "inputs": [
        {
          "internalType": "string",
          "name": "_tweet",
          "type": "string"
        },
        {
          "internalType": "string",
          "name": "_imageData",
          "type": "string"
        }
      ],
      "name": "setTweet",
      "outputs": [],
      "stateMutability": "nonpayable",
      "type": "function"
    },
    {
      "inputs": [
        {
          "internalType": "bytes4",
          "name": "interfaceId",
          "type": "bytes4"
        }
      ],
      "name": "supportsInterface",
      "outputs": [
        {
          "internalType": "bool",
          "name": "",
          "type": "bool"
        }
      ],
      "stateMutability": "view",
      "type": "function"
    },
    {
      "inputs": [],
      "name": "symbol",
      "outputs": [
        {
          "internalType": "string",
          "name": "",
          "type": "string"
        }
      ],
      "stateMutability": "view",
      "type": "function"
    },
    {
      "inputs": [
        {
          "internalType": "uint256",
          "name": "_tokenId",
          "type": "uint256"
        }
      ],
      "name": "tokenURI",
      "outputs": [
        {
          "internalType": "string",
          "name": "",
          "type": "string"
        }
      ],
      "stateMutability": "view",
      "type": "function"
    },
    {
      "inputs": [
        {
          "internalType": "address",
          "name": "from",
          "type": "address"
        },
        {
          "internalType": "address",
          "name": "to",
          "type": "address"
        },
        {
          "internalType": "uint256",
          "name": "tokenId",
          "type": "uint256"
        }
      ],
      "name": "transferFrom",
      "outputs": [],
      "stateMutability": "nonpayable",
      "type": "function"
    },
    {
      "inputs": [
        {
          "internalType": "uint256",
          "name": "",
          "type": "uint256"
        }
      ],
      "name": "tweets",
      "outputs": [
        {
          "internalType": "uint256",
          "name": "tokenId",
          "type": "uint256"
        },
        {
          "internalType": "string",
          "name": "content",
          "type": "string"
        },
        {
          "internalType": "address",
          "name": "author",
          "type": "address"
        },
        {
          "internalType": "uint256",
          "name": "timestamp",
          "type": "uint256"
        },
        {
          "internalType": "string",
          "name": "attachment",
          "type": "string"
        },
        {
          "internalType": "string",
          "name": "iconUrl",
          "type": "string"
        },
        {
          "internalType": "address",
          "name": "retweetedBy",
          "type": "address"
        }
      ],
      "stateMutability": "view",
      "type": "function"
    },
    {
      "inputs": [
        {
          "internalType": "address",
          "name": "_address",
          "type": "address"
        }
      ],
      "name": "unfollow",
      "outputs": [],
      "stateMutability": "nonpayable",
      "type": "function"
    },
    {
      "inputs": [
        {
          "internalType": "address",
          "name": "",
          "type": "address"
        }
      ],
      "name": "users",
      "outputs": [
        {
          "internalType": "address",
          "name": "id",
          "type": "address"
        },
        {
          "internalType": "string",
          "name": "iconUrl",
          "type": "string"
        }
      ],
      "stateMutability": "view",
      "type": "function"
    }
  ],
  "bytecode": "0x60806040523480156200001157600080fd5b50600054610100900460ff16806200002c575060005460ff16155b620000845760405162461bcd60e51b815260206004820152602e6024820152600080516020620063cb83398151915260448201526d191e481a5b9a5d1a585b1a5e995960921b60648201526084015b60405180910390fd5b600054610100900460ff16158015620000a7576000805461ffff19166101011790555b620000f76040518060400160405280600a8152602001690a8eed2e8e8cae48aa8960b31b815250604051806040016040528060048152602001635457544560e01b8152506200011160201b60201c565b80156200010a576000805461ff00191690555b5062000438565b600054610100900460ff16806200012b575060005460ff16155b6200017f5760405162461bcd60e51b815260206004820152602e6024820152600080516020620063cb83398151915260448201526d191e481a5b9a5d1a585b1a5e995960921b60648201526084016200007b565b600054610100900460ff16158015620001a2576000805461ffff19166101011790555b620001ac620001da565b620001b6620001da565b620001c2838362000281565b8015620001d5576000805461ff00191690555b505050565b600054610100900460ff1680620001f4575060005460ff16155b620002485760405162461bcd60e51b815260206004820152602e6024820152600080516020620063cb83398151915260448201526d191e481a5b9a5d1a585b1a5e995960921b60648201526084016200007b565b600054610100900460ff161580156200026b576000805461ffff19166101011790555b80156200027e576000805461ff00191690555b50565b600054610100900460ff16806200029b575060005460ff16155b620002ef5760405162461bcd60e51b815260206004820152602e6024820152600080516020620063cb83398151915260448201526d191e481a5b9a5d1a585b1a5e995960921b60648201526084016200007b565b600054610100900460ff1615801562000312576000805461ffff19166101011790555b82516200032790606590602086019062000355565b5081516200033d90606690602085019062000355565b508015620001d5576000805461ff0019169055505050565b8280546200036390620003fb565b90600052602060002090601f016020900481019282620003875760008555620003d2565b82601f10620003a257805160ff1916838001178555620003d2565b82800160010185558215620003d2579182015b82811115620003d2578251825591602001919060010190620003b5565b50620003e0929150620003e4565b5090565b5b80821115620003e05760008155600101620003e5565b600181811c908216806200041057607f821691505b602082108114156200043257634e487b7160e01b600052602260045260246000fd5b50919050565b615f8380620004486000396000f3fe608060405234801561001057600080fd5b506004361061025c5760003560e01c80638d51cc2811610145578063cc18513f116100bd578063e6a90da51161008c578063e985e9c511610071578063e985e9c514610545578063ebd009d314610581578063fc6c776f1461059457600080fd5b8063e6a90da51461051f578063e8d857b01461053257600080fd5b8063cc18513f146104d3578063cca22f79146104e6578063de440e0e146104f9578063dedf1b4a1461050c57600080fd5b8063a87430ba11610114578063c2fe2022116100f9578063c2fe202214610480578063c3ad5ecb146104a0578063c87b56dd146104c057600080fd5b8063a87430ba1461044c578063b88d4fde1461046d57600080fd5b80638d51cc28146103f857806395d89b411461040b578063a22cb46514610413578063a2898a301461042657600080fd5b8063378a35cd116101d85780634dbf27cc116101a75780636352211e1161018c5780636352211e146103bc57806370a08231146103cf5780638129fc1c146103f057600080fd5b80634dbf27cc146103965780635a7fec88146103a957600080fd5b8063378a35cd1461034a57806340c184af1461035d57806342842e0e14610370578063447d93691461038357600080fd5b8063095ea7b31161022f57806323b872dd1161021457806323b872dd1461030457806323edf697146103175780632f5899d71461033757600080fd5b8063095ea7b3146102de57806309d4d796146102f157600080fd5b8063015a4ead1461026157806301ffc9a71461027657806306fdde031461029e578063081812fc146102b3575b600080fd5b61027461026f3660046153eb565b6105a7565b005b61028961028436600461554e565b6109e2565b60405190151581526020015b60405180910390f35b6102a6610a7f565b6040516102959190615cb4565b6102c66102c136600461567e565b610b11565b6040516001600160a01b039091168152602001610295565b6102746102ec366004615525565b610bab565b6102896102ff3660046153eb565b610cdd565b610274610312366004615437565b610d72565b61032a61032536600461567e565b610df9565b6040516102959190615bd7565b61032a6103453660046153eb565b611127565b61027461035836600461567e565b611761565b61032a61036b366004615586565b6119c7565b61027461037e366004615437565b611f2a565b6102a66103913660046153eb565b611f45565b6102746103a43660046153eb565b611ff4565b6102746103b736600461567e565b6123cb565b6102c66103ca36600461567e565b612951565b6103e26103dd3660046153eb565b6129dc565b604051908152602001610295565b610274612a76565b6102746104063660046155a7565b612b38565b6102a6612b6d565b6102746104213660046154eb565b612b7c565b610439610434366004615525565b612b87565b6040516102959796959493929190615cda565b61045f61045a3660046153eb565b612d95565b604051610295929190615bb5565b61027461047b366004615472565b612e44565b61049361048e3660046153eb565b612ecc565b6040516102959190615c38565b6104b36104ae36600461567e565b612fdd565b6040516102959190615cc7565b6102a66104ce36600461567e565b613453565b61032a6104e13660046153eb565b61379d565b6104936104f43660046153eb565b613ac3565b6102746105073660046155da565b613bd4565b61045f61051a366004615525565b61406d565b61027461052d36600461563b565b6140ba565b61043961054036600461567e565b61437a565b610289610553366004615405565b6001600160a01b039182166000908152606a6020908152604080832093909416825291909152205460ff1690565b61045f61058f366004615525565b6143af565b6104396105a2366004615586565b6143cb565b6001600160a01b0381163314156105bd57600080fd5b60005b336000908152609b60205260409020548110156107bb57336000908152609b6020526040902080546001600160a01b03841691908390811061061257634e487b7160e01b600052603260045260246000fd5b60009182526020909120600290910201546001600160a01b031614156107a957805b336000908152609b602052604090205461065090600190615dea565b81101561074657336000908152609b60205260409020610671826001615d47565b8154811061068f57634e487b7160e01b600052603260045260246000fd5b9060005260206000209060020201609b6000336001600160a01b03166001600160a01b0316815260200190815260200160002082815481106106e157634e487b7160e01b600052603260045260246000fd5b60009182526020909120825460029092020180546001600160a01b0319166001600160a01b03909216919091178155600180830180549183019161072490615e4b565b61072f929190615151565b50905050808061073e90615e86565b915050610634565b50336000908152609b6020526040902080548061077357634e487b7160e01b600052603160045260246000fd5b60008281526020812060026000199093019283020180546001600160a01b0319168155906107a460018301826151dc565b505090555b806107b381615e86565b9150506105c0565b5060005b6001600160a01b0382166000908152609c60205260409020548110156109de576001600160a01b0382166000908152609c6020526040902080543391908390811061081a57634e487b7160e01b600052603260045260246000fd5b60009182526020909120600290910201546001600160a01b031614156109cc57805b6001600160a01b0383166000908152609c602052604090205461086190600190615dea565b811015610960576001600160a01b0383166000908152609c6020526040902061088b826001615d47565b815481106108a957634e487b7160e01b600052603260045260246000fd5b9060005260206000209060020201609c6000856001600160a01b03166001600160a01b0316815260200190815260200160002082815481106108fb57634e487b7160e01b600052603260045260246000fd5b60009182526020909120825460029092020180546001600160a01b0319166001600160a01b03909216919091178155600180830180549183019161093e90615e4b565b610949929190615151565b50905050808061095890615e86565b91505061083c565b506001600160a01b0382166000908152609c6020526040902080548061099657634e487b7160e01b600052603160045260246000fd5b60008281526020812060026000199093019283020180546001600160a01b0319168155906109c760018301826151dc565b505090555b806109d681615e86565b9150506107bf565b5050565b60006001600160e01b031982167f80ac58cd000000000000000000000000000000000000000000000000000000001480610a4557506001600160e01b031982167f5b5e139f00000000000000000000000000000000000000000000000000000000145b80610a7957507f01ffc9a7000000000000000000000000000000000000000000000000000000006001600160e01b03198316145b92915050565b606060658054610a8e90615e4b565b80601f0160208091040260200160405190810160405280929190818152602001828054610aba90615e4b565b8015610b075780601f10610adc57610100808354040283529160200191610b07565b820191906000526020600020905b815481529060010190602001808311610aea57829003601f168201915b5050505050905090565b6000818152606760205260408120546001600160a01b0316610b8f5760405162461bcd60e51b815260206004820152602c60248201527f4552433732313a20617070726f76656420717565727920666f72206e6f6e657860448201526b34b9ba32b73a103a37b5b2b760a11b60648201526084015b60405180910390fd5b506000908152606960205260409020546001600160a01b031690565b6000610bb682612951565b9050806001600160a01b0316836001600160a01b03161415610c405760405162461bcd60e51b815260206004820152602160248201527f4552433732313a20617070726f76616c20746f2063757272656e74206f776e6560448201527f72000000000000000000000000000000000000000000000000000000000000006064820152608401610b86565b336001600160a01b0382161480610c5c5750610c5c8133610553565b610cce5760405162461bcd60e51b815260206004820152603860248201527f4552433732313a20617070726f76652063616c6c6572206973206e6f74206f7760448201527f6e6572206e6f7220617070726f76656420666f7220616c6c00000000000000006064820152608401610b86565b610cd883836143e7565b505050565b600080805b336000908152609b6020526040902054811015610d6b57336000908152609b6020526040902080546001600160a01b038616919083908110610d3457634e487b7160e01b600052603260045260246000fd5b60009182526020909120600290910201546001600160a01b03161415610d5957600191505b80610d6381615e86565b915050610ce2565b5092915050565b610d7c3382614455565b610dee5760405162461bcd60e51b815260206004820152603160248201527f4552433732313a207472616e736665722063616c6c6572206973206e6f74206f60448201527f776e6572206e6f7220617070726f7665640000000000000000000000000000006064820152608401610b86565b610cd883838361454c565b6060609a6000838152602001908152602001600020805480602002602001604051908101604052809291908181526020016000905b8282101561111c57838290600052602060002090600902016040518061012001604052908160008201548152602001600182018054610e6c90615e4b565b80601f0160208091040260200160405190810160405280929190818152602001828054610e9890615e4b565b8015610ee55780601f10610eba57610100808354040283529160200191610ee5565b820191906000526020600020905b815481529060010190602001808311610ec857829003601f168201915b505050918352505060028201546001600160a01b0316602082015260038201546040820152600482018054606090920191610f1f90615e4b565b80601f0160208091040260200160405190810160405280929190818152602001828054610f4b90615e4b565b8015610f985780601f10610f6d57610100808354040283529160200191610f98565b820191906000526020600020905b815481529060010190602001808311610f7b57829003601f168201915b5050505050815260200160058201805480602002602001604051908101604052809291908181526020018280548015610ffa57602002820191906000526020600020905b81546001600160a01b03168152600190910190602001808311610fdc575b505050505081526020016006820180548060200260200160405190810160405280929190818152602001828054801561105c57602002820191906000526020600020905b81546001600160a01b0316815260019091019060200180831161103e575b5050505050815260200160078201805461107590615e4b565b80601f01602080910402602001604051908101604052809291908181526020018280546110a190615e4b565b80156110ee5780601f106110c3576101008083540402835291602001916110ee565b820191906000526020600020905b8154815290600101906020018083116110d157829003601f168201915b5050509183525050600891909101546001600160a01b03166020918201529082526001929092019101610e2e565b505050509050919050565b60606000805b60985481101561124757836001600160a01b03166098828154811061116257634e487b7160e01b600052603260045260246000fd5b60009182526020909120600260099092020101546001600160a01b03161480156111d2575060006001600160a01b0316609882815481106111b357634e487b7160e01b600052603260045260246000fd5b60009182526020909120600860099092020101546001600160a01b0316145b806112225750836001600160a01b03166098828154811061120357634e487b7160e01b600052603260045260246000fd5b60009182526020909120600860099092020101546001600160a01b0316145b15611235578161123181615e86565b9250505b8061123f81615e86565b91505061112d565b5060008167ffffffffffffffff81111561127157634e487b7160e01b600052604160045260246000fd5b60405190808252806020026020018201604052801561130357816020015b6112f0604051806101200160405280600081526020016060815260200160006001600160a01b03168152602001600081526020016060815260200160608152602001606081526020016060815260200160006001600160a01b031681525090565b81526020019060019003908161128f5790505b509050600080600160988054905061131b9190615dea565b90505b8060001361175757856001600160a01b03166098828154811061135157634e487b7160e01b600052603260045260246000fd5b60009182526020909120600260099092020101546001600160a01b03161480156113c1575060006001600160a01b0316609882815481106113a257634e487b7160e01b600052603260045260246000fd5b60009182526020909120600860099092020101546001600160a01b0316145b806114115750856001600160a01b0316609882815481106113f257634e487b7160e01b600052603260045260246000fd5b60009182526020909120600860099092020101546001600160a01b0316145b15611747576098818154811061143757634e487b7160e01b600052603260045260246000fd5b9060005260206000209060090201604051806101200160405290816000820154815260200160018201805461146b90615e4b565b80601f016020809104026020016040519081016040528092919081815260200182805461149790615e4b565b80156114e45780601f106114b9576101008083540402835291602001916114e4565b820191906000526020600020905b8154815290600101906020018083116114c757829003601f168201915b505050918352505060028201546001600160a01b031660208201526003820154604082015260048201805460609092019161151e90615e4b565b80601f016020809104026020016040519081016040528092919081815260200182805461154a90615e4b565b80156115975780601f1061156c57610100808354040283529160200191611597565b820191906000526020600020905b81548152906001019060200180831161157a57829003601f168201915b50505050508152602001600582018054806020026020016040519081016040528092919081815260200182805480156115f957602002820191906000526020600020905b81546001600160a01b031681526001909101906020018083116115db575b505050505081526020016006820180548060200260200160405190810160405280929190818152602001828054801561165b57602002820191906000526020600020905b81546001600160a01b0316815260019091019060200180831161163d575b5050505050815260200160078201805461167490615e4b565b80601f01602080910402602001604051908101604052809291908181526020018280546116a090615e4b565b80156116ed5780601f106116c2576101008083540402835291602001916116ed565b820191906000526020600020905b8154815290600101906020018083116116d057829003601f168201915b5050509183525050600891909101546001600160a01b0316602090910152835184908490811061172d57634e487b7160e01b600052603260045260246000fd5b6020026020010181905250818061174390615e86565b9250505b61175081615e2d565b905061131e565b5090949350505050565b60005b336000908152609d60205260409020548110156117db57336000908152609d602052604090208054839190839081106117ad57634e487b7160e01b600052603260045260246000fd5b90600052602060002090600902016000015414156117c9575050565b806117d381615e86565b915050611764565b5060005b6098548110156109de57816098828154811061180b57634e487b7160e01b600052603260045260246000fd5b90600052602060002090600902016000015414156119b5576098818154811061184457634e487b7160e01b600052603260045260246000fd5b6000918252602080832060056009909302019190910180546001810182559083528183200180546001600160a01b031916339081179091558252609d90526040902060988054839081106118a857634e487b7160e01b600052603260045260246000fd5b60009182526020808320845460018181018755958552919093206009928302909301805491909202909201918255828101805491938301916118e990615e4b565b6118f4929190615151565b5060028281015490820180546001600160a01b0319166001600160a01b0390921691909117905560038083015490820155600480830180549183019161193990615e4b565b611944929190615151565b50600582810180546119599284019190615216565b506006828101805461196e9284019190615216565b50600782018160070190805461198390615e4b565b61198e929190615151565b50600891820154910180546001600160a01b0319166001600160a01b039092169190911790555b806119bf81615e86565b9150506117df565b606060008312156119d757600080fd5b609854831115611a73576040805160008082526020820190925290611a6b565b611a58604051806101200160405280600081526020016060815260200160006001600160a01b03168152602001600081526020016060815260200160608152602001606081526020016060815260200160006001600160a01b031681525090565b8152602001906001900390816119f75790505b509050610a79565b609854600083611a838684615d92565b13611a9757611a928583615d92565b611a99565b835b905060008167ffffffffffffffff811115611ac457634e487b7160e01b600052604160045260246000fd5b604051908082528060200260200182016040528015611b5657816020015b611b43604051806101200160405280600081526020016060815260200160006001600160a01b03168152602001600081526020016060815260200160608152602001606081526020016060815260200160006001600160a01b031681525090565b815260200190600190039081611ae25790505b5090506000806001611b688986615d92565b611b729190615d92565b90505b8087611b818a87615d92565b611b8b9190615d92565b13611f1e576001611b9c8986615d92565b611ba69190615d92565b8113158015611bc957508087611bbc8a87615d92565b611bc69190615d92565b13155b8015611bd6575060008112155b15611f0c5760988181548110611bfc57634e487b7160e01b600052603260045260246000fd5b90600052602060002090600902016040518061012001604052908160008201548152602001600182018054611c3090615e4b565b80601f0160208091040260200160405190810160405280929190818152602001828054611c5c90615e4b565b8015611ca95780601f10611c7e57610100808354040283529160200191611ca9565b820191906000526020600020905b815481529060010190602001808311611c8c57829003601f168201915b505050918352505060028201546001600160a01b0316602082015260038201546040820152600482018054606090920191611ce390615e4b565b80601f0160208091040260200160405190810160405280929190818152602001828054611d0f90615e4b565b8015611d5c5780601f10611d3157610100808354040283529160200191611d5c565b820191906000526020600020905b815481529060010190602001808311611d3f57829003601f168201915b5050505050815260200160058201805480602002602001604051908101604052809291908181526020018280548015611dbe57602002820191906000526020600020905b81546001600160a01b03168152600190910190602001808311611da0575b5050505050815260200160068201805480602002602001604051908101604052809291908181526020018280548015611e2057602002820191906000526020600020905b81546001600160a01b03168152600190910190602001808311611e02575b50505050508152602001600782018054611e3990615e4b565b80601f0160208091040260200160405190810160405280929190818152602001828054611e6590615e4b565b8015611eb25780601f10611e8757610100808354040283529160200191611eb2565b820191906000526020600020905b815481529060010190602001808311611e9557829003601f168201915b5050509183525050600891909101546001600160a01b03166020909101528351849084908110611ef257634e487b7160e01b600052603260045260246000fd5b60200260200101819052508180611f0890615e86565b9250505b80611f1681615e2d565b915050611b75565b50909695505050505050565b610cd883838360405180602001604052806000815250612e44565b6001600160a01b0381166000908152609960205260409020600101805460609190611f6f90615e4b565b80601f0160208091040260200160405190810160405280929190818152602001828054611f9b90615e4b565b8015611fe85780601f10611fbd57610100808354040283529160200191611fe8565b820191906000526020600020905b815481529060010190602001808311611fcb57829003601f168201915b50505050509050919050565b6001600160a01b03811633141561200a57600080fd5b33600090815260996020526040812060010180546060928392909161202e90615e4b565b905011156120d457336000908152609960205260409020600101805461205390615e4b565b80601f016020809104026020016040519081016040528092919081815260200182805461207f90615e4b565b80156120cc5780601f106120a1576101008083540402835291602001916120cc565b820191906000526020600020905b8154815290600101906020018083116120af57829003601f168201915b505050505091505b6001600160a01b038316600090815260996020526040812060010180546120fa90615e4b565b905011156121a9576001600160a01b0383166000908152609960205260409020600101805461212890615e4b565b80601f016020809104026020016040519081016040528092919081815260200182805461215490615e4b565b80156121a15780601f10612176576101008083540402835291602001916121a1565b820191906000526020600020905b81548152906001019060200180831161218457829003601f168201915b505050505090505b6000805b336000908152609b602052604090205481101561223657336000908152609b6020526040902080546001600160a01b0387169190839081106121ff57634e487b7160e01b600052603260045260246000fd5b60009182526020909120600290910201546001600160a01b0316141561222457600191505b8061222e81615e86565b9150506121ad565b50806122b257336000908152609b6020908152604080832081518083019092526001600160a01b03888116835282840187815282546001808201855593875295859020845160029097020180546001600160a01b03191696909216959095178155935180519294936122ae9392850192910190615255565b5050505b506000805b6001600160a01b0385166000908152609c6020526040902054811015612349576001600160a01b0385166000908152609c6020526040902080543391908390811061231257634e487b7160e01b600052603260045260246000fd5b60009182526020909120600290910201546001600160a01b0316141561233757600191505b8061234181615e86565b9150506122b7565b50806123c5576001600160a01b038481166000908152609c60209081526040808320815180830190925233825281830188815281546001808201845592865294849020835160029096020180546001600160a01b03191695909616949094178555925180519194936123c19390850192910190615255565b5050505b50505050565b61242c604051806101200160405280600081526020016060815260200160006001600160a01b03168152602001600081526020016060815260200160608152602001606081526020016060815260200160006001600160a01b031681525090565b60005b6098548110156127de57826098828154811061245b57634e487b7160e01b600052603260045260246000fd5b90600052602060002090600902016000015414156127cc576098818154811061249457634e487b7160e01b600052603260045260246000fd5b60009182526020808320600660099093020191909101805460018101825590835291200180546001600160a01b0319163317905560988054829081106124ea57634e487b7160e01b600052603260045260246000fd5b9060005260206000209060090201604051806101200160405290816000820154815260200160018201805461251e90615e4b565b80601f016020809104026020016040519081016040528092919081815260200182805461254a90615e4b565b80156125975780601f1061256c57610100808354040283529160200191612597565b820191906000526020600020905b81548152906001019060200180831161257a57829003601f168201915b505050918352505060028201546001600160a01b03166020820152600382015460408201526004820180546060909201916125d190615e4b565b80601f01602080910402602001604051908101604052809291908181526020018280546125fd90615e4b565b801561264a5780601f1061261f5761010080835404028352916020019161264a565b820191906000526020600020905b81548152906001019060200180831161262d57829003601f168201915b50505050508152602001600582018054806020026020016040519081016040528092919081815260200182805480156126ac57602002820191906000526020600020905b81546001600160a01b0316815260019091019060200180831161268e575b505050505081526020016006820180548060200260200160405190810160405280929190818152602001828054801561270e57602002820191906000526020600020905b81546001600160a01b031681526001909101906020018083116126f0575b5050505050815260200160078201805461272790615e4b565b80601f016020809104026020016040519081016040528092919081815260200182805461275390615e4b565b80156127a05780601f10612775576101008083540402835291602001916127a0565b820191906000526020600020905b81548152906001019060200180831161278357829003601f168201915b5050509183525050600891909101546001600160a01b03166020909101523361010082015291506127de565b806127d681615e86565b91505061242f565b5060988054600181018255600091909152815160099091027f2237a976fa961f5921fd19f2b03c925c725d77b20ce8f790c19709c03de4d81481019182556020808401518051859493612857937f2237a976fa961f5921fd19f2b03c925c725d77b20ce8f790c19709c03de4d815909101920190615255565b5060408201516002820180546001600160a01b0319166001600160a01b0390921691909117905560608201516003820155608082015180516128a3916004840191602090910190615255565b5060a082015180516128bf9160058401916020909101906152c9565b5060c082015180516128db9160068401916020909101906152c9565b5060e082015180516128f7916007840191602090910190615255565b506101009190910151600890910180546001600160a01b0319166001600160a01b0390921691909117905560405133907fbcfb4e896ec8bbf5ce196bc2fbb4f0f369684f885e110557c606c3a1754245b490600090a25050565b6000818152606760205260408120546001600160a01b031680610a795760405162461bcd60e51b815260206004820152602960248201527f4552433732313a206f776e657220717565727920666f72206e6f6e657869737460448201527f656e7420746f6b656e00000000000000000000000000000000000000000000006064820152608401610b86565b60006001600160a01b038216612a5a5760405162461bcd60e51b815260206004820152602a60248201527f4552433732313a2062616c616e636520717565727920666f7220746865207a6560448201527f726f2061646472657373000000000000000000000000000000000000000000006064820152608401610b86565b506001600160a01b031660009081526068602052604090205490565b600054610100900460ff1680612a8f575060005460ff16155b612b015760405162461bcd60e51b815260206004820152602e60248201527f496e697469616c697a61626c653a20636f6e747261637420697320616c72656160448201527f647920696e697469616c697a65640000000000000000000000000000000000006064820152608401610b86565b600054610100900460ff16158015612b23576000805461ffff19166101011790555b8015612b35576000805461ff00191690555b50565b33600081815260996020908152604090912080546001600160a01b031916909217825582516109de9260010191840190615255565b606060668054610a8e90615e4b565b6109de338383614719565b609d6020528160005260406000208181548110612ba357600080fd5b906000526020600020906009020160009150915050806000015490806001018054612bcd90615e4b565b80601f0160208091040260200160405190810160405280929190818152602001828054612bf990615e4b565b8015612c465780601f10612c1b57610100808354040283529160200191612c46565b820191906000526020600020905b815481529060010190602001808311612c2957829003601f168201915b505050506002830154600384015460048501805494956001600160a01b039093169491935090612c7590615e4b565b80601f0160208091040260200160405190810160405280929190818152602001828054612ca190615e4b565b8015612cee5780601f10612cc357610100808354040283529160200191612cee565b820191906000526020600020905b815481529060010190602001808311612cd157829003601f168201915b505050505090806007018054612d0390615e4b565b80601f0160208091040260200160405190810160405280929190818152602001828054612d2f90615e4b565b8015612d7c5780601f10612d5157610100808354040283529160200191612d7c565b820191906000526020600020905b815481529060010190602001808311612d5f57829003601f168201915b505050600890930154919250506001600160a01b031687565b609960205260009081526040902080546001820180546001600160a01b039092169291612dc190615e4b565b80601f0160208091040260200160405190810160405280929190818152602001828054612ded90615e4b565b8015612e3a5780601f10612e0f57610100808354040283529160200191612e3a565b820191906000526020600020905b815481529060010190602001808311612e1d57829003601f168201915b5050505050905082565b612e4e3383614455565b612ec05760405162461bcd60e51b815260206004820152603160248201527f4552433732313a207472616e736665722063616c6c6572206973206e6f74206f60448201527f776e6572206e6f7220617070726f7665640000000000000000000000000000006064820152608401610b86565b6123c5848484846147e8565b6001600160a01b0381166000908152609c60209081526040808320805482518185028101850190935280835260609492939192909184015b8282101561111c576000848152602090819020604080518082019091526002850290910180546001600160a01b031682526001810180549293919291840191612f4c90615e4b565b80601f0160208091040260200160405190810160405280929190818152602001828054612f7890615e4b565b8015612fc55780601f10612f9a57610100808354040283529160200191612fc5565b820191906000526020600020905b815481529060010190602001808311612fa857829003601f168201915b50505050508152505081526020019060010190612f04565b61303e604051806101200160405280600081526020016060815260200160006001600160a01b03168152602001600081526020016060815260200160608152602001606081526020016060815260200160006001600160a01b031681525090565b61309f604051806101200160405280600081526020016060815260200160006001600160a01b03168152602001600081526020016060815260200160608152602001606081526020016060815260200160006001600160a01b031681525090565b6098546130ac5792915050565b60005b609854811015610d6b5783609882815481106130db57634e487b7160e01b600052603260045260246000fd5b906000526020600020906009020160000154148015613140575060006001600160a01b03166098828154811061312157634e487b7160e01b600052603260045260246000fd5b60009182526020909120600860099092020101546001600160a01b0316145b15613441576098818154811061316657634e487b7160e01b600052603260045260246000fd5b9060005260206000209060090201604051806101200160405290816000820154815260200160018201805461319a90615e4b565b80601f01602080910402602001604051908101604052809291908181526020018280546131c690615e4b565b80156132135780601f106131e857610100808354040283529160200191613213565b820191906000526020600020905b8154815290600101906020018083116131f657829003601f168201915b505050918352505060028201546001600160a01b031660208201526003820154604082015260048201805460609092019161324d90615e4b565b80601f016020809104026020016040519081016040528092919081815260200182805461327990615e4b565b80156132c65780601f1061329b576101008083540402835291602001916132c6565b820191906000526020600020905b8154815290600101906020018083116132a957829003601f168201915b505050505081526020016005820180548060200260200160405190810160405280929190818152602001828054801561332857602002820191906000526020600020905b81546001600160a01b0316815260019091019060200180831161330a575b505050505081526020016006820180548060200260200160405190810160405280929190818152602001828054801561338a57602002820191906000526020600020905b81546001600160a01b0316815260019091019060200180831161336c575b505050505081526020016007820180546133a390615e4b565b80601f01602080910402602001604051908101604052809291908181526020018280546133cf90615e4b565b801561341c5780601f106133f15761010080835404028352916020019161341c565b820191906000526020600020905b8154815290600101906020018083116133ff57829003601f168201915b5050509183525050600891909101546001600160a01b03166020909101529150610d6b565b8061344b81615e86565b9150506130af565b6000818152606760205260409020546060906001600160a01b031661347757600080fd5b610a79826098805480602002602001604051908101604052809291908181526020016000905b8282101561378b578382906000526020600020906009020160405180610120016040529081600082015481526020016001820180546134db90615e4b565b80601f016020809104026020016040519081016040528092919081815260200182805461350790615e4b565b80156135545780601f1061352957610100808354040283529160200191613554565b820191906000526020600020905b81548152906001019060200180831161353757829003601f168201915b505050918352505060028201546001600160a01b031660208201526003820154604082015260048201805460609092019161358e90615e4b565b80601f01602080910402602001604051908101604052809291908181526020018280546135ba90615e4b565b80156136075780601f106135dc57610100808354040283529160200191613607565b820191906000526020600020905b8154815290600101906020018083116135ea57829003601f168201915b505050505081526020016005820180548060200260200160405190810160405280929190818152602001828054801561366957602002820191906000526020600020905b81546001600160a01b0316815260019091019060200180831161364b575b50505050508152602001600682018054806020026020016040519081016040528092919081815260200182805480156136cb57602002820191906000526020600020905b81546001600160a01b031681526001909101906020018083116136ad575b505050505081526020016007820180546136e490615e4b565b80601f016020809104026020016040519081016040528092919081815260200182805461371090615e4b565b801561375d5780601f106137325761010080835404028352916020019161375d565b820191906000526020600020905b81548152906001019060200180831161374057829003601f168201915b5050509183525050600891909101546001600160a01b0316602091820152908252600192909201910161349d565b5050505061486690919063ffffffff16565b6001600160a01b0381166000908152609d60209081526040808320805482518185028101850190935280835260609492939192909184015b8282101561111c5783829060005260206000209060090201604051806101200160405290816000820154815260200160018201805461381390615e4b565b80601f016020809104026020016040519081016040528092919081815260200182805461383f90615e4b565b801561388c5780601f106138615761010080835404028352916020019161388c565b820191906000526020600020905b81548152906001019060200180831161386f57829003601f168201915b505050918352505060028201546001600160a01b03166020820152600382015460408201526004820180546060909201916138c690615e4b565b80601f01602080910402602001604051908101604052809291908181526020018280546138f290615e4b565b801561393f5780601f106139145761010080835404028352916020019161393f565b820191906000526020600020905b81548152906001019060200180831161392257829003601f168201915b50505050508152602001600582018054806020026020016040519081016040528092919081815260200182805480156139a157602002820191906000526020600020905b81546001600160a01b03168152600190910190602001808311613983575b5050505050815260200160068201805480602002602001604051908101604052809291908181526020018280548015613a0357602002820191906000526020600020905b81546001600160a01b031681526001909101906020018083116139e5575b50505050508152602001600782018054613a1c90615e4b565b80601f0160208091040260200160405190810160405280929190818152602001828054613a4890615e4b565b8015613a955780601f10613a6a57610100808354040283529160200191613a95565b820191906000526020600020905b815481529060010190602001808311613a7857829003601f168201915b5050509183525050600891909101546001600160a01b031660209182015290825260019290920191016137d5565b6001600160a01b0381166000908152609b60209081526040808320805482518185028101850190935280835260609492939192909184015b8282101561111c576000848152602090819020604080518082019091526002850290910180546001600160a01b031682526001810180549293919291840191613b4390615e4b565b80601f0160208091040260200160405190810160405280929190818152602001828054613b6f90615e4b565b8015613bbc5780601f10613b9157610100808354040283529160200191613bbc565b820191906000526020600020905b815481529060010190602001808311613b9f57829003601f168201915b50505050508152505081526020019060010190613afb565b6000613bdf60975490565b3360009081526099602052604081206001018054929350606092613c0290615e4b565b90501115613ca8573360009081526099602052604090206001018054613c2790615e4b565b80601f0160208091040260200160405190810160405280929190818152602001828054613c5390615e4b565b8015613ca05780601f10613c7557610100808354040283529160200191613ca0565b820191906000526020600020905b815481529060010190602001808311613c8357829003601f168201915b505050505090505b613d09604051806101200160405280600081526020016060815260200160006001600160a01b03168152602001600081526020016060815260200160608152602001606081526020016060815260200160006001600160a01b031681525090565b835115613e9e57613d1b836001615d47565b815260208082018681523360408401524260608401526080830186905260e083018490526098805460018101825560009190915283517f2237a976fa961f5921fd19f2b03c925c725d77b20ce8f790c19709c03de4d8146009909202918201908155915180518594613db1937f2237a976fa961f5921fd19f2b03c925c725d77b20ce8f790c19709c03de4d81501920190615255565b5060408201516002820180546001600160a01b0319166001600160a01b039092169190911790556060820151600382015560808201518051613dfd916004840191602090910190615255565b5060a08201518051613e199160058401916020909101906152c9565b5060c08201518051613e359160068401916020909101906152c9565b5060e08201518051613e51916007840191602090910190615255565b506101009190910151600890910180546001600160a01b0319166001600160a01b03909216919091179055609780546001019055613e9933613e94856001615d47565b614938565b61403b565b6000855111613eac57600080fd5b613eb585614952565b613ebe57600080fd5b613ec9836001615d47565b8152602080820186815233604084015242606084015260e083018490526098805460018101825560009190915283517f2237a976fa961f5921fd19f2b03c925c725d77b20ce8f790c19709c03de4d8146009909202918201908155915180518594613f58937f2237a976fa961f5921fd19f2b03c925c725d77b20ce8f790c19709c03de4d81501920190615255565b5060408201516002820180546001600160a01b0319166001600160a01b039092169190911790556060820151600382015560808201518051613fa4916004840191602090910190615255565b5060a08201518051613fc09160058401916020909101906152c9565b5060c08201518051613fdc9160068401916020909101906152c9565b5060e08201518051613ff8916007840191602090910190615255565b506101009190910151600890910180546001600160a01b0319166001600160a01b0390921691909117905560978054600101905561403b33613e94856001615d47565b60405133907fbcfb4e896ec8bbf5ce196bc2fbb4f0f369684f885e110557c606c3a1754245b490600090a25050505050565b609b602052816000526040600020818154811061408957600080fd5b6000918252602090912060029091020180546001820180546001600160a01b039092169450919250612dc190615e4b565b60006140c560975490565b9050808211156140d457600080fd5b336000908152609960205260408120600101805460609291906140f690615e4b565b9050111561419c57336000908152609960205260409020600101805461411b90615e4b565b80601f016020809104026020016040519081016040528092919081815260200182805461414790615e4b565b80156141945780601f1061416957610100808354040283529160200191614194565b820191906000526020600020905b81548152906001019060200180831161417757829003601f168201915b505050505090505b6141fd604051806101200160405280600081526020016060815260200160006001600160a01b03168152602001600081526020016060815260200160608152602001606081526020016060815260200160006001600160a01b031681525090565b600085511161420b57600080fd5b61421485614952565b61421d57600080fd5b83815260208082018681523360408085019190915242606085015260e084018590526000878152609a8452908120805460018181018355918352918490208551600990930201918255915180518594929361427d93908501920190615255565b5060408201516002820180546001600160a01b0319166001600160a01b0390921691909117905560608201516003820155608082015180516142c9916004840191602090910190615255565b5060a082015180516142e59160058401916020909101906152c9565b5060c082015180516143019160068401916020909101906152c9565b5060e0820151805161431d916007840191602090910190615255565b506101009190910151600890910180546001600160a01b0319166001600160a01b0390921691909117905560405133907f2d81dae6bc20daf5173df535646ef739576a175e374fd090d2fcc8e8a3824d0490600090a25050505050565b6098818154811061438a57600080fd5b60009182526020909120600990910201805460018201805491935090612bcd90615e4b565b609c602052816000526040600020818154811061408957600080fd5b609a6020528160005260406000208181548110612ba357600080fd5b600081815260696020526040902080546001600160a01b0319166001600160a01b038416908117909155819061441c82612951565b6001600160a01b03167f8c5be1e5ebec7d5bd14f71427d1e84f3dd0314c0f7b2291e5b200ac8c7c3b92560405160405180910390a45050565b6000818152606760205260408120546001600160a01b03166144ce5760405162461bcd60e51b815260206004820152602c60248201527f4552433732313a206f70657261746f7220717565727920666f72206e6f6e657860448201526b34b9ba32b73a103a37b5b2b760a11b6064820152608401610b86565b60006144d983612951565b9050806001600160a01b0316846001600160a01b031614806145145750836001600160a01b031661450984610b11565b6001600160a01b0316145b8061454457506001600160a01b038082166000908152606a602090815260408083209388168352929052205460ff165b949350505050565b826001600160a01b031661455f82612951565b6001600160a01b0316146145db5760405162461bcd60e51b815260206004820152602960248201527f4552433732313a207472616e73666572206f6620746f6b656e2074686174206960448201527f73206e6f74206f776e00000000000000000000000000000000000000000000006064820152608401610b86565b6001600160a01b0382166146565760405162461bcd60e51b8152602060048201526024808201527f4552433732313a207472616e7366657220746f20746865207a65726f2061646460448201527f72657373000000000000000000000000000000000000000000000000000000006064820152608401610b86565b6146616000826143e7565b6001600160a01b038316600090815260686020526040812080546001929061468a908490615dea565b90915550506001600160a01b03821660009081526068602052604081208054600192906146b8908490615d47565b909155505060008181526067602052604080822080546001600160a01b0319166001600160a01b0386811691821790925591518493918716917fddf252ad1be2c89b69c2b068fc378daa952ba7f163c4a11628f55a4df523b3ef91a4505050565b816001600160a01b0316836001600160a01b0316141561477b5760405162461bcd60e51b815260206004820152601960248201527f4552433732313a20617070726f766520746f2063616c6c6572000000000000006044820152606401610b86565b6001600160a01b038381166000818152606a6020908152604080832094871680845294825291829020805460ff191686151590811790915591519182527f17307eab39ab6107e8899845ad3d59bd9653f200f220920489ca2b5937696c31910160405180910390a3505050565b6147f384848461454c565b6147ff848484846149f8565b6123c55760405162461bcd60e51b815260206004820152603260248201527f4552433732313a207472616e7366657220746f206e6f6e20455243373231526560448201527131b2b4bb32b91034b6b83632b6b2b73a32b960711b6064820152608401610b86565b606060006148748484614b50565b805190915083146148c75760405162461bcd60e51b815260206004820152601060248201527f5477656574206e6f7420666f756e642e000000000000000000000000000000006044820152606401610b86565b6149106148d384614c96565b82602001516148e186614c96565b60208086015160808701516040516148fc96959493016157ec565b604051602081830303815290604052614de4565b6040516020016149209190615b34565b60405160208183030381529060405291505092915050565b6109de828260405180602001604052806000815250614f91565b60006001815b83518110156149f057600084828151811061498357634e487b7160e01b600052603260045260246000fd5b01602001517fff000000000000000000000000000000000000000000000000000000000000001690507f200000000000000000000000000000000000000000000000000000000000000081146149dd5760009250506149f0565b50806149e881615e86565b915050614958565b501592915050565b60006001600160a01b0384163b15614b4557604051630a85bd0160e11b81526001600160a01b0385169063150b7a0290614a3c903390899088908890600401615b79565b602060405180830381600087803b158015614a5657600080fd5b505af1925050508015614a86575060408051601f3d908101601f19168201909252614a839181019061556a565b60015b614b2b573d808015614ab4576040519150601f19603f3d011682016040523d82523d6000602084013e614ab9565b606091505b508051614b235760405162461bcd60e51b815260206004820152603260248201527f4552433732313a207472616e7366657220746f206e6f6e20455243373231526560448201527131b2b4bb32b91034b6b83632b6b2b73a32b960711b6064820152608401610b86565b805181602001fd5b6001600160e01b031916630a85bd0160e11b149050614544565b506001949350505050565b614bb1604051806101200160405280600081526020016060815260200160006001600160a01b03168152602001600081526020016060815260200160608152602001606081526020016060815260200160006001600160a01b031681525090565b614c12604051806101200160405280600081526020016060815260200160006001600160a01b03168152602001600081526020016060815260200160608152602001606081526020016060815260200160006001600160a01b031681525090565b60005b8451811015614c8e5783858281518110614c3f57634e487b7160e01b600052603260045260246000fd5b6020026020010151600001511415614c7c57848181518110614c7157634e487b7160e01b600052603260045260246000fd5b602002602001015191505b80614c8681615e86565b915050614c15565b509392505050565b606081614cd657505060408051808201909152600181527f3000000000000000000000000000000000000000000000000000000000000000602082015290565b8160005b8115614d005780614cea81615e86565b9150614cf99050600a83615d5f565b9150614cda565b60008167ffffffffffffffff811115614d2957634e487b7160e01b600052604160045260246000fd5b6040519080825280601f01601f191660200182016040528015614d53576020820181803683370190505b5090505b841561454457614d68600183615dea565b9150614d75600a86615ea1565b614d80906030615d47565b60f81b818381518110614da357634e487b7160e01b600052603260045260246000fd5b60200101907effffffffffffffffffffffffffffffffffffffffffffffffffffffffffffff1916908160001a905350614ddd600a86615d5f565b9450614d57565b6060815160001415614e0457505060408051602081019091526000815290565b6000604051806060016040528060408152602001615f0e6040913990506000600384516002614e339190615d47565b614e3d9190615d5f565b614e48906004615d73565b90506000614e57826020615d47565b67ffffffffffffffff811115614e7d57634e487b7160e01b600052604160045260246000fd5b6040519080825280601f01601f191660200182016040528015614ea7576020820181803683370190505b509050818152600183018586518101602084015b81831015614f155760039283018051603f601282901c811687015160f890811b8552600c83901c8216880151811b6001860152600683901c8216880151811b60028601529116860151901b93820193909352600401614ebb565b600389510660018114614f2f5760028114614f5b57614f83565b7f3d3d000000000000000000000000000000000000000000000000000000000000600119830152614f83565b7f3d000000000000000000000000000000000000000000000000000000000000006000198301525b509398975050505050505050565b614f9b838361500f565b614fa860008484846149f8565b610cd85760405162461bcd60e51b815260206004820152603260248201527f4552433732313a207472616e7366657220746f206e6f6e20455243373231526560448201527131b2b4bb32b91034b6b83632b6b2b73a32b960711b6064820152608401610b86565b6001600160a01b0382166150655760405162461bcd60e51b815260206004820181905260248201527f4552433732313a206d696e7420746f20746865207a65726f20616464726573736044820152606401610b86565b6000818152606760205260409020546001600160a01b0316156150ca5760405162461bcd60e51b815260206004820152601c60248201527f4552433732313a20746f6b656e20616c7265616479206d696e746564000000006044820152606401610b86565b6001600160a01b03821660009081526068602052604081208054600192906150f3908490615d47565b909155505060008181526067602052604080822080546001600160a01b0319166001600160a01b03861690811790915590518392907fddf252ad1be2c89b69c2b068fc378daa952ba7f163c4a11628f55a4df523b3ef908290a45050565b82805461515d90615e4b565b90600052602060002090601f01602090048101928261517f57600085556151cc565b82601f1061519057805485556151cc565b828001600101855582156151cc57600052602060002091601f016020900482015b828111156151cc5782548255916001019190600101906151b1565b506151d892915061531e565b5090565b5080546151e890615e4b565b6000825580601f106151f8575050565b601f016020900490600052602060002090810190612b35919061531e565b8280548282559060005260206000209081019282156151cc576000526020600020918201828111156151cc5782548255916001019190600101906151b1565b82805461526190615e4b565b90600052602060002090601f01602090048101928261528357600085556151cc565b82601f1061529c57805160ff19168380011785556151cc565b828001600101855582156151cc579182015b828111156151cc5782518255916020019190600101906152ae565b8280548282559060005260206000209081019282156151cc579160200282015b828111156151cc57825182546001600160a01b0319166001600160a01b039091161782556020909201916001909101906152e9565b5b808211156151d8576000815560010161531f565b600067ffffffffffffffff8084111561534e5761534e615ee1565b604051601f8501601f19908116603f0116810190828211818310171561537657615376615ee1565b8160405280935085815286868601111561538f57600080fd5b858560208301376000602087830101525050509392505050565b80356001600160a01b03811681146153c057600080fd5b919050565b600082601f8301126153d5578081fd5b6153e483833560208501615333565b9392505050565b6000602082840312156153fc578081fd5b6153e4826153a9565b60008060408385031215615417578081fd5b615420836153a9565b915061542e602084016153a9565b90509250929050565b60008060006060848603121561544b578081fd5b615454846153a9565b9250615462602085016153a9565b9150604084013590509250925092565b60008060008060808587031215615487578081fd5b615490856153a9565b935061549e602086016153a9565b925060408501359150606085013567ffffffffffffffff8111156154c0578182fd5b8501601f810187136154d0578182fd5b6154df87823560208401615333565b91505092959194509250565b600080604083850312156154fd578182fd5b615506836153a9565b91506020830135801515811461551a578182fd5b809150509250929050565b60008060408385031215615537578182fd5b615540836153a9565b946020939093013593505050565b60006020828403121561555f578081fd5b81356153e481615ef7565b60006020828403121561557b578081fd5b81516153e481615ef7565b60008060408385031215615598578182fd5b50508035926020909101359150565b6000602082840312156155b8578081fd5b813567ffffffffffffffff8111156155ce578182fd5b614544848285016153c5565b600080604083850312156155ec578182fd5b823567ffffffffffffffff80821115615603578384fd5b61560f868387016153c5565b93506020850135915080821115615624578283fd5b50615631858286016153c5565b9150509250929050565b6000806040838503121561564d578182fd5b823567ffffffffffffffff811115615663578283fd5b61566f858286016153c5565b95602094909401359450505050565b60006020828403121561568f578081fd5b5035919050565b6000815180845260208085019450808401835b838110156156ce5781516001600160a01b0316875295820195908201906001016156a9565b509495945050505050565b600081518084526156f1816020860160208601615e01565b601f01601f19169290920160200192915050565b60008151615717818560208601615e01565b9290920192915050565b6000610120825184526020830151816020860152615741828601826156d9565b915050604083015161575e60408601826001600160a01b03169052565b50606083015160608501526080830151848203608086015261578082826156d9565b91505060a083015184820360a086015261579a8282615696565b91505060c083015184820360c08601526157b48282615696565b91505060e083015184820360e08601526157ce82826156d9565b91505061010080840151611757828701826001600160a01b03169052565b7f7b226e616d65223a225477656574202300000000000000000000000000000000815260008651615824816010850160208b01615e01565b7f222c20226465736372697074696f6e223a2200000000000000000000000000006010918401918201528651615861816022840160208b01615e01565b7f222c2022696d616765223a202200000000000000000000000000000000000000910160228101919091527f3c73766720786d6c6e733d22687474703a2f2f7777772e77332e6f72672f3230602f8201527f30302f73766722207072657365727665417370656374526174696f3d22784d69604f8201527f6e594d696e206d656574222076696577426f783d223020302033353020333530606f8201527f223e3c726563742077696474683d223130302522206865696768743d22313030608f8201527f25222066696c6c3d2223616162386332223e3c2f726563743e3c73776974636860af8201527f3e3c666f726569676e4f626a65637420783d22302220793d223022207769647460cf8201527f683d223130302522206865696768743d2231303025223e3c7020786d6c6e733d60ef8201527f22687474703a2f2f7777772e77332e6f72672f313939392f7868746d6c22206661010f8201527f6f6e742d73697a653d223132707822207374796c653d22666f6e742d73697a6561012f8201527f3a313070783b70616464696e673a3570783b223e00000000000000000000000061014f8201527f5477656574230000000000000000000000000000000000000000000000000000610163820152615b28615aff615ab0615aaa615a81615a7b615a5261016988018d615705565b7f3c62722f3e000000000000000000000000000000000000000000000000000000815260050190565b8a615705565b7f3c62722f3e3c696d67207372633d2200000000000000000000000000000000008152600f0190565b87615705565b7f222f3e3c2f703e3c2f666f726569676e4f626a6563743e3c2f7377697463683e81527f3c2f7376673e0000000000000000000000000000000000000000000000000000602082015260260190565b7f227d000000000000000000000000000000000000000000000000000000000000815260020190565b98975050505050505050565b7f646174613a6170706c69636174696f6e2f6a736f6e3b6261736536342c000000815260008251615b6c81601d850160208701615e01565b91909101601d0192915050565b60006001600160a01b03808716835280861660208401525083604083015260806060830152615bab60808301846156d9565b9695505050505050565b6001600160a01b038316815260406020820152600061454460408301846156d9565b6000602080830181845280855180835260408601915060408160051b8701019250838701855b82811015615c2b57603f19888603018452615c19858351615721565b94509285019290850190600101615bfd565b5092979650505050505050565b60006020808301818452808551808352604092508286019150828160051b870101848801865b83811015615ca657888303603f19018552815180516001600160a01b03168452870151878401879052615c93878501826156d9565b9588019593505090860190600101615c5e565b509098975050505050505050565b6020815260006153e460208301846156d9565b6020815260006153e46020830184615721565b87815260e060208201526000615cf360e08301896156d9565b6001600160a01b0380891660408501528760608501528382036080850152615d1b82886156d9565b915083820360a0850152615d2f82876156d9565b925080851660c0850152505098975050505050505050565b60008219821115615d5a57615d5a615eb5565b500190565b600082615d6e57615d6e615ecb565b500490565b6000816000190483118215151615615d8d57615d8d615eb5565b500290565b600080831283600160ff1b01831281151615615db057615db0615eb5565b837f7fffffffffffffffffffffffffffffffffffffffffffffffffffffffffffffff018313811615615de457615de4615eb5565b50500390565b600082821015615dfc57615dfc615eb5565b500390565b60005b83811015615e1c578181015183820152602001615e04565b838111156123c55750506000910152565b6000600160ff1b821415615e4357615e43615eb5565b506000190190565b600181811c90821680615e5f57607f821691505b60208210811415615e8057634e487b7160e01b600052602260045260246000fd5b50919050565b6000600019821415615e9a57615e9a615eb5565b5060010190565b600082615eb057615eb0615ecb565b500690565b634e487b7160e01b600052601160045260246000fd5b634e487b7160e01b600052601260045260246000fd5b634e487b7160e01b600052604160045260246000fd5b6001600160e01b031981168114612b3557600080fdfe4142434445464748494a4b4c4d4e4f505152535455565758595a6162636465666768696a6b6c6d6e6f707172737475767778797a303132333435363738392b2fa2646970667358221220cda03da14eb23d2de3cb305cd775f0c9541eb2675b2fbb58c1fe0585b635f2e564736f6c63430008040033496e697469616c697a61626c653a20636f6e747261637420697320616c726561",
  "linkReferences": {},
  "deployedLinkReferences": {}
}