{
  "_format": "hh-sol-artifact-1",
  "contractName": "TwitterV1",
  "sourceName": "contracts/TwitterV1.sol",
  "abi": [
    {
      "inputs": [],
      "stateMutability": "nonpayable",
      "type": "constructor"
    },
    {
      "anonymous": false,
      "inputs": [
        {
          "indexed": true,
          "internalType": "address",
          "name": "owner",
          "type": "address"
        },
        {
          "indexed": true,
          "internalType": "address",
          "name": "approved",
          "type": "address"
        },
        {
          "indexed": true,
          "internalType": "uint256",
          "name": "tokenId",
          "type": "uint256"
        }
      ],
      "name": "Approval",
      "type": "event"
    },
    {
      "anonymous": false,
      "inputs": [
        {
          "indexed": true,
          "internalType": "address",
          "name": "owner",
          "type": "address"
        },
        {
          "indexed": true,
          "internalType": "address",
          "name": "operator",
          "type": "address"
        },
        {
          "indexed": false,
          "internalType": "bool",
          "name": "approved",
          "type": "bool"
        }
      ],
      "name": "ApprovalForAll",
      "type": "event"
    },
    {
      "anonymous": false,
      "inputs": [
        {
          "indexed": true,
          "internalType": "address",
          "name": "sender",
          "type": "address"
        },
        {
          "indexed": false,
          "internalType": "string",
          "name": "tweet",
          "type": "string"
        }
      ],
      "name": "Commented",
      "type": "event"
    },
    {
      "anonymous": false,
      "inputs": [
        {
          "indexed": true,
          "internalType": "address",
          "name": "from",
          "type": "address"
        },
        {
          "indexed": true,
          "internalType": "address",
          "name": "to",
          "type": "address"
        },
        {
          "indexed": true,
          "internalType": "uint256",
          "name": "tokenId",
          "type": "uint256"
        }
      ],
      "name": "Transfer",
      "type": "event"
    },
    {
      "anonymous": false,
      "inputs": [
        {
          "indexed": true,
          "internalType": "address",
          "name": "sender",
          "type": "address"
        },
        {
          "indexed": false,
          "internalType": "string",
          "name": "tweet",
          "type": "string"
        }
      ],
      "name": "Tweeted",
      "type": "event"
    },
    {
      "inputs": [
        {
          "internalType": "uint256",
          "name": "_tokenId",
          "type": "uint256"
        }
      ],
      "name": "addLike",
      "outputs": [],
      "stateMutability": "nonpayable",
      "type": "function"
    },
    {
      "inputs": [
        {
          "internalType": "address",
          "name": "to",
          "type": "address"
        },
        {
          "internalType": "uint256",
          "name": "tokenId",
          "type": "uint256"
        }
      ],
      "name": "approve",
      "outputs": [],
      "stateMutability": "nonpayable",
      "type": "function"
    },
    {
      "inputs": [
        {
          "internalType": "address",
          "name": "owner",
          "type": "address"
        }
      ],
      "name": "balanceOf",
      "outputs": [
        {
          "internalType": "uint256",
          "name": "",
          "type": "uint256"
        }
      ],
      "stateMutability": "view",
      "type": "function"
    },
    {
      "inputs": [
        {
          "internalType": "uint256",
          "name": "_tokenId",
          "type": "uint256"
        }
      ],
      "name": "buildMetaData",
      "outputs": [
        {
          "internalType": "string",
          "name": "",
          "type": "string"
        }
      ],
      "stateMutability": "view",
      "type": "function"
    },
    {
      "inputs": [
        {
          "internalType": "string",
          "name": "_url",
          "type": "string"
        }
      ],
      "name": "changeIconUrl",
      "outputs": [],
      "stateMutability": "nonpayable",
      "type": "function"
    },
    {
      "inputs": [
        {
          "internalType": "uint256",
          "name": "",
          "type": "uint256"
        },
        {
          "internalType": "uint256",
          "name": "",
          "type": "uint256"
        }
      ],
      "name": "comments",
      "outputs": [
        {
          "internalType": "uint256",
          "name": "tokenId",
          "type": "uint256"
        },
        {
          "internalType": "string",
          "name": "content",
          "type": "string"
        },
        {
          "internalType": "address",
          "name": "author",
          "type": "address"
        },
        {
          "internalType": "uint256",
          "name": "timestamp",
          "type": "uint256"
        },
        {
          "internalType": "string",
          "name": "attachment",
          "type": "string"
        },
        {
          "internalType": "string",
          "name": "iconUrl",
          "type": "string"
        }
      ],
      "stateMutability": "view",
      "type": "function"
    },
    {
      "inputs": [
        {
          "internalType": "address",
          "name": "_address",
          "type": "address"
        }
      ],
      "name": "follow",
      "outputs": [],
      "stateMutability": "nonpayable",
      "type": "function"
    },
    {
      "inputs": [
        {
          "internalType": "address",
          "name": "",
          "type": "address"
        },
        {
          "internalType": "uint256",
          "name": "",
          "type": "uint256"
        }
      ],
      "name": "followers",
      "outputs": [
        {
          "internalType": "address",
          "name": "id",
          "type": "address"
        },
        {
          "internalType": "string",
          "name": "iconUrl",
          "type": "string"
        }
      ],
      "stateMutability": "view",
      "type": "function"
    },
    {
      "inputs": [
        {
          "internalType": "address",
          "name": "",
          "type": "address"
        },
        {
          "internalType": "uint256",
          "name": "",
          "type": "uint256"
        }
      ],
      "name": "followings",
      "outputs": [
        {
          "internalType": "address",
          "name": "id",
          "type": "address"
        },
        {
          "internalType": "string",
          "name": "iconUrl",
          "type": "string"
        }
      ],
      "stateMutability": "view",
      "type": "function"
    },
    {
      "inputs": [
        {
          "internalType": "uint256",
          "name": "tokenId",
          "type": "uint256"
        }
      ],
      "name": "getApproved",
      "outputs": [
        {
          "internalType": "address",
          "name": "",
          "type": "address"
        }
      ],
      "stateMutability": "view",
      "type": "function"
    },
    {
      "inputs": [
        {
          "internalType": "uint256",
          "name": "_tokenId",
          "type": "uint256"
        }
      ],
      "name": "getComments",
      "outputs": [
        {
          "components": [
            {
              "internalType": "uint256",
              "name": "tokenId",
              "type": "uint256"
            },
            {
              "internalType": "string",
              "name": "content",
              "type": "string"
            },
            {
              "internalType": "address",
              "name": "author",
              "type": "address"
            },
            {
              "internalType": "uint256",
              "name": "timestamp",
              "type": "uint256"
            },
            {
              "internalType": "string",
              "name": "attachment",
              "type": "string"
            },
            {
              "internalType": "address[]",
              "name": "likes",
              "type": "address[]"
            },
            {
              "internalType": "string",
              "name": "iconUrl",
              "type": "string"
            }
          ],
          "internalType": "struct TwitterV1.Tweet[]",
          "name": "",
          "type": "tuple[]"
        }
      ],
      "stateMutability": "view",
      "type": "function"
    },
    {
      "inputs": [
        {
          "internalType": "address",
          "name": "_address",
          "type": "address"
        }
      ],
      "name": "getFollowers",
      "outputs": [
        {
          "components": [
            {
              "internalType": "address",
              "name": "id",
              "type": "address"
            },
            {
              "internalType": "string",
              "name": "iconUrl",
              "type": "string"
            }
          ],
          "internalType": "struct TwitterV1.User[]",
          "name": "",
          "type": "tuple[]"
        }
      ],
      "stateMutability": "view",
      "type": "function"
    },
    {
      "inputs": [
        {
          "internalType": "address",
          "name": "_address",
          "type": "address"
        }
      ],
      "name": "getFollowings",
      "outputs": [
        {
          "components": [
            {
              "internalType": "address",
              "name": "id",
              "type": "address"
            },
            {
              "internalType": "string",
              "name": "iconUrl",
              "type": "string"
            }
          ],
          "internalType": "struct TwitterV1.User[]",
          "name": "",
          "type": "tuple[]"
        }
      ],
      "stateMutability": "view",
      "type": "function"
    },
    {
      "inputs": [
        {
          "internalType": "address",
          "name": "_address",
          "type": "address"
        }
      ],
      "name": "getLikes",
      "outputs": [
        {
          "components": [
            {
              "internalType": "uint256",
              "name": "tokenId",
              "type": "uint256"
            },
            {
              "internalType": "string",
              "name": "content",
              "type": "string"
            },
            {
              "internalType": "address",
              "name": "author",
              "type": "address"
            },
            {
              "internalType": "uint256",
              "name": "timestamp",
              "type": "uint256"
            },
            {
              "internalType": "string",
              "name": "attachment",
              "type": "string"
            },
            {
              "internalType": "address[]",
              "name": "likes",
              "type": "address[]"
            },
            {
              "internalType": "string",
              "name": "iconUrl",
              "type": "string"
            }
          ],
          "internalType": "struct TwitterV1.Tweet[]",
          "name": "",
          "type": "tuple[]"
        }
      ],
      "stateMutability": "view",
      "type": "function"
    },
    {
      "inputs": [
        {
          "internalType": "int256",
          "name": "offset",
          "type": "int256"
        },
        {
          "internalType": "int256",
          "name": "limit",
          "type": "int256"
        }
      ],
      "name": "getTimeline",
      "outputs": [
        {
          "components": [
            {
              "internalType": "uint256",
              "name": "tokenId",
              "type": "uint256"
            },
            {
              "internalType": "string",
              "name": "content",
              "type": "string"
            },
            {
              "internalType": "address",
              "name": "author",
              "type": "address"
            },
            {
              "internalType": "uint256",
              "name": "timestamp",
              "type": "uint256"
            },
            {
              "internalType": "string",
              "name": "attachment",
              "type": "string"
            },
            {
              "internalType": "address[]",
              "name": "likes",
              "type": "address[]"
            },
            {
              "internalType": "string",
              "name": "iconUrl",
              "type": "string"
            }
          ],
          "internalType": "struct TwitterV1.Tweet[]",
          "name": "",
          "type": "tuple[]"
        }
      ],
      "stateMutability": "view",
      "type": "function"
    },
    {
      "inputs": [
        {
          "internalType": "uint256",
          "name": "_tokenId",
          "type": "uint256"
        }
      ],
      "name": "getTweet",
      "outputs": [
        {
          "components": [
            {
              "internalType": "uint256",
              "name": "tokenId",
              "type": "uint256"
            },
            {
              "internalType": "string",
              "name": "content",
              "type": "string"
            },
            {
              "internalType": "address",
              "name": "author",
              "type": "address"
            },
            {
              "internalType": "uint256",
              "name": "timestamp",
              "type": "uint256"
            },
            {
              "internalType": "string",
              "name": "attachment",
              "type": "string"
            },
            {
              "internalType": "address[]",
              "name": "likes",
              "type": "address[]"
            },
            {
              "internalType": "string",
              "name": "iconUrl",
              "type": "string"
            }
          ],
          "internalType": "struct TwitterV1.Tweet",
          "name": "",
          "type": "tuple"
        }
      ],
      "stateMutability": "view",
      "type": "function"
    },
    {
      "inputs": [
        {
          "internalType": "address",
          "name": "_address",
          "type": "address"
        }
      ],
      "name": "getUserIcon",
      "outputs": [
        {
          "internalType": "string",
          "name": "",
          "type": "string"
        }
      ],
      "stateMutability": "view",
      "type": "function"
    },
    {
      "inputs": [
        {
          "internalType": "address",
          "name": "_address",
          "type": "address"
        }
      ],
      "name": "getUserTweets",
      "outputs": [
        {
          "components": [
            {
              "internalType": "uint256",
              "name": "tokenId",
              "type": "uint256"
            },
            {
              "internalType": "string",
              "name": "content",
              "type": "string"
            },
            {
              "internalType": "address",
              "name": "author",
              "type": "address"
            },
            {
              "internalType": "uint256",
              "name": "timestamp",
              "type": "uint256"
            },
            {
              "internalType": "string",
              "name": "attachment",
              "type": "string"
            },
            {
              "internalType": "address[]",
              "name": "likes",
              "type": "address[]"
            },
            {
              "internalType": "string",
              "name": "iconUrl",
              "type": "string"
            }
          ],
          "internalType": "struct TwitterV1.Tweet[]",
          "name": "",
          "type": "tuple[]"
        }
      ],
      "stateMutability": "view",
      "type": "function"
    },
    {
      "inputs": [],
      "name": "initialize",
      "outputs": [],
      "stateMutability": "nonpayable",
      "type": "function"
    },
    {
      "inputs": [
        {
          "internalType": "address",
          "name": "owner",
          "type": "address"
        },
        {
          "internalType": "address",
          "name": "operator",
          "type": "address"
        }
      ],
      "name": "isApprovedForAll",
      "outputs": [
        {
          "internalType": "bool",
          "name": "",
          "type": "bool"
        }
      ],
      "stateMutability": "view",
      "type": "function"
    },
    {
      "inputs": [
        {
          "internalType": "address",
          "name": "_address",
          "type": "address"
        }
      ],
      "name": "isFollowing",
      "outputs": [
        {
          "internalType": "bool",
          "name": "",
          "type": "bool"
        }
      ],
      "stateMutability": "view",
      "type": "function"
    },
    {
      "inputs": [
        {
          "internalType": "address",
          "name": "",
          "type": "address"
        },
        {
          "internalType": "uint256",
          "name": "",
          "type": "uint256"
        }
      ],
      "name": "likes",
      "outputs": [
        {
          "internalType": "uint256",
          "name": "tokenId",
          "type": "uint256"
        },
        {
          "internalType": "string",
          "name": "content",
          "type": "string"
        },
        {
          "internalType": "address",
          "name": "author",
          "type": "address"
        },
        {
          "internalType": "uint256",
          "name": "timestamp",
          "type": "uint256"
        },
        {
          "internalType": "string",
          "name": "attachment",
          "type": "string"
        },
        {
          "internalType": "string",
          "name": "iconUrl",
          "type": "string"
        }
      ],
      "stateMutability": "view",
      "type": "function"
    },
    {
      "inputs": [],
      "name": "name",
      "outputs": [
        {
          "internalType": "string",
          "name": "",
          "type": "string"
        }
      ],
      "stateMutability": "view",
      "type": "function"
    },
    {
      "inputs": [
        {
          "internalType": "uint256",
          "name": "tokenId",
          "type": "uint256"
        }
      ],
      "name": "ownerOf",
      "outputs": [
        {
          "internalType": "address",
          "name": "",
          "type": "address"
        }
      ],
      "stateMutability": "view",
      "type": "function"
    },
    {
      "inputs": [
        {
          "internalType": "address",
          "name": "from",
          "type": "address"
        },
        {
          "internalType": "address",
          "name": "to",
          "type": "address"
        },
        {
          "internalType": "uint256",
          "name": "tokenId",
          "type": "uint256"
        }
      ],
      "name": "safeTransferFrom",
      "outputs": [],
      "stateMutability": "nonpayable",
      "type": "function"
    },
    {
      "inputs": [
        {
          "internalType": "address",
          "name": "from",
          "type": "address"
        },
        {
          "internalType": "address",
          "name": "to",
          "type": "address"
        },
        {
          "internalType": "uint256",
          "name": "tokenId",
          "type": "uint256"
        },
        {
          "internalType": "bytes",
          "name": "_data",
          "type": "bytes"
        }
      ],
      "name": "safeTransferFrom",
      "outputs": [],
      "stateMutability": "nonpayable",
      "type": "function"
    },
    {
      "inputs": [
        {
          "internalType": "address",
          "name": "operator",
          "type": "address"
        },
        {
          "internalType": "bool",
          "name": "approved",
          "type": "bool"
        }
      ],
      "name": "setApprovalForAll",
      "outputs": [],
      "stateMutability": "nonpayable",
      "type": "function"
    },
    {
      "inputs": [
        {
          "internalType": "string",
          "name": "_comment",
          "type": "string"
        },
        {
          "internalType": "uint256",
          "name": "_tokenId",
          "type": "uint256"
        }
      ],
      "name": "setComment",
      "outputs": [],
      "stateMutability": "nonpayable",
      "type": "function"
    },
    {
      "inputs": [
        {
          "internalType": "string",
          "name": "_tweet",
          "type": "string"
        },
        {
          "internalType": "string",
          "name": "_imageData",
          "type": "string"
        }
      ],
      "name": "setTweet",
      "outputs": [],
      "stateMutability": "nonpayable",
      "type": "function"
    },
    {
      "inputs": [
        {
          "internalType": "bytes4",
          "name": "interfaceId",
          "type": "bytes4"
        }
      ],
      "name": "supportsInterface",
      "outputs": [
        {
          "internalType": "bool",
          "name": "",
          "type": "bool"
        }
      ],
      "stateMutability": "view",
      "type": "function"
    },
    {
      "inputs": [],
      "name": "symbol",
      "outputs": [
        {
          "internalType": "string",
          "name": "",
          "type": "string"
        }
      ],
      "stateMutability": "view",
      "type": "function"
    },
    {
      "inputs": [
        {
          "internalType": "uint256",
          "name": "index",
          "type": "uint256"
        }
      ],
      "name": "tokenByIndex",
      "outputs": [
        {
          "internalType": "uint256",
          "name": "",
          "type": "uint256"
        }
      ],
      "stateMutability": "view",
      "type": "function"
    },
    {
      "inputs": [
        {
          "internalType": "address",
          "name": "owner",
          "type": "address"
        },
        {
          "internalType": "uint256",
          "name": "index",
          "type": "uint256"
        }
      ],
      "name": "tokenOfOwnerByIndex",
      "outputs": [
        {
          "internalType": "uint256",
          "name": "",
          "type": "uint256"
        }
      ],
      "stateMutability": "view",
      "type": "function"
    },
    {
      "inputs": [
        {
          "internalType": "uint256",
          "name": "_tokenId",
          "type": "uint256"
        }
      ],
      "name": "tokenURI",
      "outputs": [
        {
          "internalType": "string",
          "name": "",
          "type": "string"
        }
      ],
      "stateMutability": "view",
      "type": "function"
    },
    {
      "inputs": [],
      "name": "totalSupply",
      "outputs": [
        {
          "internalType": "uint256",
          "name": "",
          "type": "uint256"
        }
      ],
      "stateMutability": "view",
      "type": "function"
    },
    {
      "inputs": [
        {
          "internalType": "address",
          "name": "from",
          "type": "address"
        },
        {
          "internalType": "address",
          "name": "to",
          "type": "address"
        },
        {
          "internalType": "uint256",
          "name": "tokenId",
          "type": "uint256"
        }
      ],
      "name": "transferFrom",
      "outputs": [],
      "stateMutability": "nonpayable",
      "type": "function"
    },
    {
      "inputs": [
        {
          "internalType": "uint256",
          "name": "",
          "type": "uint256"
        }
      ],
      "name": "tweets",
      "outputs": [
        {
          "internalType": "uint256",
          "name": "tokenId",
          "type": "uint256"
        },
        {
          "internalType": "string",
          "name": "content",
          "type": "string"
        },
        {
          "internalType": "address",
          "name": "author",
          "type": "address"
        },
        {
          "internalType": "uint256",
          "name": "timestamp",
          "type": "uint256"
        },
        {
          "internalType": "string",
          "name": "attachment",
          "type": "string"
        },
        {
          "internalType": "string",
          "name": "iconUrl",
          "type": "string"
        }
      ],
      "stateMutability": "view",
      "type": "function"
    },
    {
      "inputs": [
        {
          "internalType": "address",
          "name": "_address",
          "type": "address"
        }
      ],
      "name": "unfollow",
      "outputs": [],
      "stateMutability": "nonpayable",
      "type": "function"
    },
    {
      "inputs": [
        {
          "internalType": "address",
          "name": "",
          "type": "address"
        }
      ],
      "name": "users",
      "outputs": [
        {
          "internalType": "address",
          "name": "id",
          "type": "address"
        },
        {
          "internalType": "string",
          "name": "iconUrl",
          "type": "string"
        }
      ],
      "stateMutability": "view",
      "type": "function"
    }
  ],
  "bytecode": "0x60806040523480156200001157600080fd5b50600054610100900460ff16806200002c575060005460ff16155b620000845760405162461bcd60e51b815260206004820152602e602482015260008051602062005d6083398151915260448201526d191e481a5b9a5d1a585b1a5e995960921b60648201526084015b60405180910390fd5b600054610100900460ff16158015620000a7576000805461ffff19166101011790555b620000f76040518060400160405280600a8152602001690a8eed2e8e8cae48aa8960b31b815250604051806040016040528060048152602001635457544560e01b8152506200011160201b60201c565b80156200010a576000805461ff00191690555b5062000438565b600054610100900460ff16806200012b575060005460ff16155b6200017f5760405162461bcd60e51b815260206004820152602e602482015260008051602062005d6083398151915260448201526d191e481a5b9a5d1a585b1a5e995960921b60648201526084016200007b565b600054610100900460ff16158015620001a2576000805461ffff19166101011790555b620001ac620001da565b620001b6620001da565b620001c2838362000281565b8015620001d5576000805461ff00191690555b505050565b600054610100900460ff1680620001f4575060005460ff16155b620002485760405162461bcd60e51b815260206004820152602e602482015260008051602062005d6083398151915260448201526d191e481a5b9a5d1a585b1a5e995960921b60648201526084016200007b565b600054610100900460ff161580156200026b576000805461ffff19166101011790555b80156200027e576000805461ff00191690555b50565b600054610100900460ff16806200029b575060005460ff16155b620002ef5760405162461bcd60e51b815260206004820152602e602482015260008051602062005d6083398151915260448201526d191e481a5b9a5d1a585b1a5e995960921b60648201526084016200007b565b600054610100900460ff1615801562000312576000805461ffff19166101011790555b82516200032790606590602086019062000355565b5081516200033d90606690602085019062000355565b508015620001d5576000805461ff0019169055505050565b8280546200036390620003fb565b90600052602060002090601f016020900481019282620003875760008555620003d2565b82601f10620003a257805160ff1916838001178555620003d2565b82800160010185558215620003d2579182015b82811115620003d2578251825591602001919060010190620003b5565b50620003e0929150620003e4565b5090565b5b80821115620003e05760008155600101620003e5565b600181811c908216806200041057607f821691505b602082108114156200043257634e487b7160e01b600052602260045260246000fd5b50919050565b61591880620004486000396000f3fe608060405234801561001057600080fd5b50600436106102ad5760003560e01c80638129fc1c1161017b578063cc18513f116100d8578063e6a90da51161008c578063e985e9c511610071578063e985e9c5146105bf578063ebd009d3146105fb578063fc6c776f1461060e57600080fd5b8063e6a90da514610599578063e8d857b0146105ac57600080fd5b8063d8384b8a116100bd578063d8384b8a14610560578063de440e0e14610573578063dedf1b4a1461058657600080fd5b8063cc18513f1461053a578063cca22f791461054d57600080fd5b8063a87430ba1161012f578063c2fe202211610114578063c2fe2022146104e7578063c3ad5ecb14610507578063c87b56dd1461052757600080fd5b8063a87430ba146104b3578063b88d4fde146104d457600080fd5b806395d89b411161016057806395d89b4114610473578063a22cb4651461047b578063a2898a301461048e57600080fd5b80638129fc1c146104585780638d51cc281461046057600080fd5b80632f5899d711610229578063447d9369116101dd5780634f6ccce7116101c25780634f6ccce71461041f5780636352211e1461043257806370a082311461044557600080fd5b8063447d9369146103f95780634dbf27cc1461040c57600080fd5b8063378a35cd1161020e578063378a35cd146103c057806340c184af146103d357806342842e0e146103e657600080fd5b80632f5899d71461039a5780632f745c59146103ad57600080fd5b8063095ea7b31161028057806318160ddd1161026557806318160ddd1461035557806323b872dd1461036757806323edf6971461037a57600080fd5b8063095ea7b31461032f57806309d4d7961461034257600080fd5b8063015a4ead146102b257806301ffc9a7146102c757806306fdde03146102ef578063081812fc14610304575b600080fd5b6102c56102c0366004614fdd565b610621565b005b6102da6102d5366004615140565b610aa4565b60405190151581526020015b60405180910390f35b6102f7610ae8565b6040516102e69190615620565b610317610312366004615270565b610b7a565b6040516001600160a01b0390911681526020016102e6565b6102c561033d366004615117565b610c0f565b6102da610350366004614fdd565b610d41565b6099545b6040519081526020016102e6565b6102c5610375366004615029565b610ddb565b61038d610388366004615270565b610e62565b6040516102e69190615543565b61038d6103a8366004614fdd565b611117565b6103596103bb366004615117565b6115fd565b6102c56103ce366004615270565b6116a5565b61038d6103e1366004615178565b6118d3565b6102c56103f4366004615029565b611df5565b6102f7610407366004614fdd565b611e10565b6102c561041a366004614fdd565b611ebf565b61035961042d366004615270565b61235f565b610317610440366004615270565b612411565b610359610453366004614fdd565b61249c565b6102c5612536565b6102c561046e366004615199565b6125f8565b6102f761262d565b6102c56104893660046150dd565b61263c565b6104a161049c366004615117565b612647565b6040516102e696959493929190615646565b6104c66104c1366004614fdd565b612846565b6040516102e6929190615521565b6102c56104e2366004615064565b6128f5565b6104fa6104f5366004614fdd565b61297d565b6040516102e691906155a4565b61051a610515366004615270565b612a8e565b6040516102e69190615633565b6102f7610535366004615270565b612e0c565b61038d610548366004614fdd565b612ea2565b6104fa61055b366004614fdd565b61314f565b6102f761056e366004615270565b613260565b6102c56105813660046151cc565b613652565b6104c6610594366004615117565b613ad4565b6102c56105a736600461522d565b613b21565b6104a16105ba366004615270565b613e60565b6102da6105cd366004614ff7565b6001600160a01b039182166000908152606a6020908152604080832093909416825291909152205460ff1690565b6104c6610609366004615117565b613e95565b6104a161061c366004615178565b613eb1565b6001600160a01b03811633141561067f5760405162461bcd60e51b815260206004820152601d60248201527f596f752063616e6e6f7420756e666f6c6c6f7720796f757273656c662e00000060448201526064015b60405180910390fd5b60005b33600090815260cc602052604090205481101561087d5733600090815260cc6020526040902080546001600160a01b0384169190839081106106d457634e487b7160e01b600052603260045260246000fd5b60009182526020909120600290910201546001600160a01b0316141561086b57805b33600090815260cc60205260409020546107129060019061574a565b8110156108085733600090815260cc602052604090206107338260016156a7565b8154811061075157634e487b7160e01b600052603260045260246000fd5b906000526020600020906002020160cc6000336001600160a01b03166001600160a01b0316815260200190815260200160002082815481106107a357634e487b7160e01b600052603260045260246000fd5b60009182526020909120825460029092020180546001600160a01b0319166001600160a01b0390921691909117815560018083018054918301916107e6906157ab565b6107f1929190614d43565b509050508080610800906157e6565b9150506106f6565b5033600090815260cc6020526040902080548061083557634e487b7160e01b600052603160045260246000fd5b60008281526020812060026000199093019283020180546001600160a01b0319168155906108666001830182614dce565b505090555b80610875816157e6565b915050610682565b5060005b6001600160a01b038216600090815260cd6020526040902054811015610aa0576001600160a01b038216600090815260cd602052604090208054339190839081106108dc57634e487b7160e01b600052603260045260246000fd5b60009182526020909120600290910201546001600160a01b03161415610a8e57805b6001600160a01b038316600090815260cd60205260409020546109239060019061574a565b811015610a22576001600160a01b038316600090815260cd6020526040902061094d8260016156a7565b8154811061096b57634e487b7160e01b600052603260045260246000fd5b906000526020600020906002020160cd6000856001600160a01b03166001600160a01b0316815260200190815260200160002082815481106109bd57634e487b7160e01b600052603260045260246000fd5b60009182526020909120825460029092020180546001600160a01b0319166001600160a01b039092169190911781556001808301805491830191610a00906157ab565b610a0b929190614d43565b509050508080610a1a906157e6565b9150506108fe565b506001600160a01b038216600090815260cd60205260409020805480610a5857634e487b7160e01b600052603160045260246000fd5b60008281526020812060026000199093019283020180546001600160a01b031916815590610a896001830182614dce565b505090555b80610a98816157e6565b915050610881565b5050565b60006001600160e01b031982167f780e9d63000000000000000000000000000000000000000000000000000000001480610ae25750610ae282613ecd565b92915050565b606060658054610af7906157ab565b80601f0160208091040260200160405190810160405280929190818152602001828054610b23906157ab565b8015610b705780601f10610b4557610100808354040283529160200191610b70565b820191906000526020600020905b815481529060010190602001808311610b5357829003601f168201915b5050505050905090565b6000818152606760205260408120546001600160a01b0316610bf35760405162461bcd60e51b815260206004820152602c60248201527f4552433732313a20617070726f76656420717565727920666f72206e6f6e657860448201526b34b9ba32b73a103a37b5b2b760a11b6064820152608401610676565b506000908152606960205260409020546001600160a01b031690565b6000610c1a82612411565b9050806001600160a01b0316836001600160a01b03161415610ca45760405162461bcd60e51b815260206004820152602160248201527f4552433732313a20617070726f76616c20746f2063757272656e74206f776e6560448201527f72000000000000000000000000000000000000000000000000000000000000006064820152608401610676565b336001600160a01b0382161480610cc05750610cc081336105cd565b610d325760405162461bcd60e51b815260206004820152603860248201527f4552433732313a20617070726f76652063616c6c6572206973206e6f74206f7760448201527f6e6572206e6f7220617070726f76656420666f7220616c6c00000000000000006064820152608401610676565b610d3c8383613f68565b505050565b600080805b33600090815260cc6020526040902054811015610dd45733600090815260cc6020526040902080546001600160a01b038616919083908110610d9857634e487b7160e01b600052603260045260246000fd5b60009182526020909120600290910201546001600160a01b03161415610dc2575060019392505050565b80610dcc816157e6565b915050610d46565b5092915050565b610de53382613fd6565b610e575760405162461bcd60e51b815260206004820152603160248201527f4552433732313a207472616e736665722063616c6c6572206973206e6f74206f60448201527f776e6572206e6f7220617070726f7665640000000000000000000000000000006064820152608401610676565b610d3c8383836140cd565b606060cb6000838152602001908152602001600020805480602002602001604051908101604052809291908181526020016000905b8282101561110c57838290600052602060002090600702016040518060e001604052908160008201548152602001600182018054610ed4906157ab565b80601f0160208091040260200160405190810160405280929190818152602001828054610f00906157ab565b8015610f4d5780601f10610f2257610100808354040283529160200191610f4d565b820191906000526020600020905b815481529060010190602001808311610f3057829003601f168201915b505050918352505060028201546001600160a01b0316602082015260038201546040820152600482018054606090920191610f87906157ab565b80601f0160208091040260200160405190810160405280929190818152602001828054610fb3906157ab565b80156110005780601f10610fd557610100808354040283529160200191611000565b820191906000526020600020905b815481529060010190602001808311610fe357829003601f168201915b505050505081526020016005820180548060200260200160405190810160405280929190818152602001828054801561106257602002820191906000526020600020905b81546001600160a01b03168152600190910190602001808311611044575b5050505050815260200160068201805461107b906157ab565b80601f01602080910402602001604051908101604052809291908181526020018280546110a7906157ab565b80156110f45780601f106110c9576101008083540402835291602001916110f4565b820191906000526020600020905b8154815290600101906020018083116110d757829003601f168201915b50505050508152505081526020019060010190610e97565b505050509050919050565b60c954606090611199576040805160008082526020820190925290610dd4565b6111806040518060e00160405280600081526020016060815260200160006001600160a01b03168152602001600081526020016060815260200160608152602001606081525090565b8152602001906001900390816111375790505092915050565b6000805b60c95481101561121557836001600160a01b031660c982815481106111d257634e487b7160e01b600052603260045260246000fd5b60009182526020909120600260079092020101546001600160a01b0316141561120357816111ff816157e6565b9250505b8061120d816157e6565b91505061119d565b5060008167ffffffffffffffff81111561123f57634e487b7160e01b600052604160045260246000fd5b6040519080825280602002602001820160405280156112b957816020015b6112a66040518060e00160405280600081526020016060815260200160006001600160a01b03168152602001600081526020016060815260200160608152602001606081525090565b81526020019060019003908161125d5790505b509050600080600160c9805490506112d1919061574a565b90505b806000136115f357856001600160a01b031660c9828154811061130757634e487b7160e01b600052603260045260246000fd5b60009182526020909120600260079092020101546001600160a01b031614156115e15760c9818154811061134b57634e487b7160e01b600052603260045260246000fd5b90600052602060002090600702016040518060e00160405290816000820154815260200160018201805461137e906157ab565b80601f01602080910402602001604051908101604052809291908181526020018280546113aa906157ab565b80156113f75780601f106113cc576101008083540402835291602001916113f7565b820191906000526020600020905b8154815290600101906020018083116113da57829003601f168201915b505050918352505060028201546001600160a01b0316602082015260038201546040820152600482018054606090920191611431906157ab565b80601f016020809104026020016040519081016040528092919081815260200182805461145d906157ab565b80156114aa5780601f1061147f576101008083540402835291602001916114aa565b820191906000526020600020905b81548152906001019060200180831161148d57829003601f168201915b505050505081526020016005820180548060200260200160405190810160405280929190818152602001828054801561150c57602002820191906000526020600020905b81546001600160a01b031681526001909101906020018083116114ee575b50505050508152602001600682018054611525906157ab565b80601f0160208091040260200160405190810160405280929190818152602001828054611551906157ab565b801561159e5780601f106115735761010080835404028352916020019161159e565b820191906000526020600020905b81548152906001019060200180831161158157829003601f168201915b5050505050815250508383815181106115c757634e487b7160e01b600052603260045260246000fd5b602002602001018190525081806115dd906157e6565b9250505b806115eb8161578d565b9150506112d4565b5090949350505050565b60006116088361249c565b821061167c5760405162461bcd60e51b815260206004820152602b60248201527f455243373231456e756d657261626c653a206f776e657220696e646578206f7560448201527f74206f6620626f756e64730000000000000000000000000000000000000000006064820152608401610676565b506001600160a01b03919091166000908152609760209081526040808320938352929052205490565b60005b33600090815260ce602052604090205481101561171f5733600090815260ce602052604090208054839190839081106116f157634e487b7160e01b600052603260045260246000fd5b906000526020600020906007020160000154141561170d575050565b80611717816157e6565b9150506116a8565b5060005b60c954811015610aa0578160c9828154811061174f57634e487b7160e01b600052603260045260246000fd5b90600052602060002090600702016000015414156118c15760c9818154811061178857634e487b7160e01b600052603260045260246000fd5b6000918252602080832060056007909302019190910180546001810182559083528183200180546001600160a01b03191633908117909155825260ce90526040902060c98054839081106117ec57634e487b7160e01b600052603260045260246000fd5b600091825260208083208454600181810187559585529190932060079283029093018054919092029092019182558281018054919383019161182d906157ab565b611838929190614d43565b5060028281015490820180546001600160a01b0319166001600160a01b0390921691909117905560038083015490820155600480830180549183019161187d906157ab565b611888929190614d43565b506005828101805461189d9284019190614e08565b5060068201816006019080546118b2906157ab565b6118bd929190614d43565b5050505b806118cb816157e6565b915050611723565b6060600083121561194c5760405162461bcd60e51b815260206004820152602a60248201527f4f6666736574206d7573742062652067726561746572207468616e206f72206560448201527f7175616c20746f20302e000000000000000000000000000000000000000000006064820152608401610676565b60c9548311156119d05760408051600080825260208201909252906119c8565b6119b56040518060e00160405280600081526020016060815260200160006001600160a01b03168152602001600081526020016060815260200160608152602001606081525090565b81526020019060019003908161196c5790505b509050610ae2565b60c9546000836119e086846156f2565b136119f4576119ef85836156f2565b6119f6565b835b905060008167ffffffffffffffff811115611a2157634e487b7160e01b600052604160045260246000fd5b604051908082528060200260200182016040528015611a9b57816020015b611a886040518060e00160405280600081526020016060815260200160006001600160a01b03168152602001600081526020016060815260200160608152602001606081525090565b815260200190600190039081611a3f5790505b5090506000806001611aad89866156f2565b611ab791906156f2565b90505b8087611ac68a876156f2565b611ad091906156f2565b13611de9576001611ae189866156f2565b611aeb91906156f2565b8113158015611b0e57508087611b018a876156f2565b611b0b91906156f2565b13155b8015611b1b575060008112155b15611dd75760c98181548110611b4157634e487b7160e01b600052603260045260246000fd5b90600052602060002090600702016040518060e001604052908160008201548152602001600182018054611b74906157ab565b80601f0160208091040260200160405190810160405280929190818152602001828054611ba0906157ab565b8015611bed5780601f10611bc257610100808354040283529160200191611bed565b820191906000526020600020905b815481529060010190602001808311611bd057829003601f168201915b505050918352505060028201546001600160a01b0316602082015260038201546040820152600482018054606090920191611c27906157ab565b80601f0160208091040260200160405190810160405280929190818152602001828054611c53906157ab565b8015611ca05780601f10611c7557610100808354040283529160200191611ca0565b820191906000526020600020905b815481529060010190602001808311611c8357829003601f168201915b5050505050815260200160058201805480602002602001604051908101604052809291908181526020018280548015611d0257602002820191906000526020600020905b81546001600160a01b03168152600190910190602001808311611ce4575b50505050508152602001600682018054611d1b906157ab565b80601f0160208091040260200160405190810160405280929190818152602001828054611d47906157ab565b8015611d945780601f10611d6957610100808354040283529160200191611d94565b820191906000526020600020905b815481529060010190602001808311611d7757829003601f168201915b505050505081525050838381518110611dbd57634e487b7160e01b600052603260045260246000fd5b60200260200101819052508180611dd3906157e6565b9250505b80611de18161578d565b915050611aba565b50909695505050505050565b610d3c838383604051806020016040528060008152506128f5565b6001600160a01b038116600090815260ca60205260409020600101805460609190611e3a906157ab565b80601f0160208091040260200160405190810160405280929190818152602001828054611e66906157ab565b8015611eb35780601f10611e8857610100808354040283529160200191611eb3565b820191906000526020600020905b815481529060010190602001808311611e9657829003601f168201915b50505050509050919050565b6001600160a01b038116331415611f185760405162461bcd60e51b815260206004820152601b60248201527f596f752063616e6e6f7420666f6c6c6f7720796f757273656c662e00000000006044820152606401610676565b33600090815260ca6020526040902060010180546060918291611fc39190611f3f906157ab565b80601f0160208091040260200160405190810160405280929190818152602001828054611f6b906157ab565b8015611fb85780601f10611f8d57610100808354040283529160200191611fb8565b820191906000526020600020905b815481529060010190602001808311611f9b57829003601f168201915b505050505051151590565b156120665733600090815260ca602052604090206001018054611fe5906157ab565b80601f0160208091040260200160405190810160405280929190818152602001828054612011906157ab565b801561205e5780601f106120335761010080835404028352916020019161205e565b820191906000526020600020905b81548152906001019060200180831161204157829003601f168201915b505050505091505b6001600160a01b038316600090815260ca6020526040902060010180546120919190611f3f906157ab565b1561213d576001600160a01b038316600090815260ca6020526040902060010180546120bc906157ab565b80601f01602080910402602001604051908101604052809291908181526020018280546120e8906157ab565b80156121355780601f1061210a57610100808354040283529160200191612135565b820191906000526020600020905b81548152906001019060200180831161211857829003601f168201915b505050505090505b6000805b33600090815260cc60205260409020548110156121ca5733600090815260cc6020526040902080546001600160a01b03871691908390811061219357634e487b7160e01b600052603260045260246000fd5b60009182526020909120600290910201546001600160a01b031614156121b857600191505b806121c2816157e6565b915050612141565b50806122465733600090815260cc6020908152604080832081518083019092526001600160a01b03888116835282840187815282546001808201855593875295859020845160029097020180546001600160a01b03191696909216959095178155935180519294936122429392850192910190614e47565b5050505b506000805b6001600160a01b038516600090815260cd60205260409020548110156122dd576001600160a01b038516600090815260cd602052604090208054339190839081106122a657634e487b7160e01b600052603260045260246000fd5b60009182526020909120600290910201546001600160a01b031614156122cb57600191505b806122d5816157e6565b91505061224b565b5080612359576001600160a01b03848116600090815260cd60209081526040808320815180830190925233825281830188815281546001808201845592865294849020835160029096020180546001600160a01b03191695909616949094178555925180519194936123559390850192910190614e47565b5050505b50505050565b600061236a60995490565b82106123de5760405162461bcd60e51b815260206004820152602c60248201527f455243373231456e756d657261626c653a20676c6f62616c20696e646578206f60448201527f7574206f6620626f756e647300000000000000000000000000000000000000006064820152608401610676565b609982815481106123ff57634e487b7160e01b600052603260045260246000fd5b90600052602060002001549050919050565b6000818152606760205260408120546001600160a01b031680610ae25760405162461bcd60e51b815260206004820152602960248201527f4552433732313a206f776e657220717565727920666f72206e6f6e657869737460448201527f656e7420746f6b656e00000000000000000000000000000000000000000000006064820152608401610676565b60006001600160a01b03821661251a5760405162461bcd60e51b815260206004820152602a60248201527f4552433732313a2062616c616e636520717565727920666f7220746865207a6560448201527f726f2061646472657373000000000000000000000000000000000000000000006064820152608401610676565b506001600160a01b031660009081526068602052604090205490565b600054610100900460ff168061254f575060005460ff16155b6125c15760405162461bcd60e51b815260206004820152602e60248201527f496e697469616c697a61626c653a20636f6e747261637420697320616c72656160448201527f647920696e697469616c697a65640000000000000000000000000000000000006064820152608401610676565b600054610100900460ff161580156125e3576000805461ffff19166101011790555b80156125f5576000805461ff00191690555b50565b33600081815260ca6020908152604090912080546001600160a01b03191690921782558251610aa09260010191840190614e47565b606060668054610af7906157ab565b610aa03383836142a5565b60ce602052816000526040600020818154811061266357600080fd5b90600052602060002090600702016000915091505080600001549080600101805461268d906157ab565b80601f01602080910402602001604051908101604052809291908181526020018280546126b9906157ab565b80156127065780601f106126db57610100808354040283529160200191612706565b820191906000526020600020905b8154815290600101906020018083116126e957829003601f168201915b505050506002830154600384015460048501805494956001600160a01b039093169491935090612735906157ab565b80601f0160208091040260200160405190810160405280929190818152602001828054612761906157ab565b80156127ae5780601f10612783576101008083540402835291602001916127ae565b820191906000526020600020905b81548152906001019060200180831161279157829003601f168201915b5050505050908060060180546127c3906157ab565b80601f01602080910402602001604051908101604052809291908181526020018280546127ef906157ab565b801561283c5780601f106128115761010080835404028352916020019161283c565b820191906000526020600020905b81548152906001019060200180831161281f57829003601f168201915b5050505050905086565b60ca60205260009081526040902080546001820180546001600160a01b039092169291612872906157ab565b80601f016020809104026020016040519081016040528092919081815260200182805461289e906157ab565b80156128eb5780601f106128c0576101008083540402835291602001916128eb565b820191906000526020600020905b8154815290600101906020018083116128ce57829003601f168201915b5050505050905082565b6128ff3383613fd6565b6129715760405162461bcd60e51b815260206004820152603160248201527f4552433732313a207472616e736665722063616c6c6572206973206e6f74206f60448201527f776e6572206e6f7220617070726f7665640000000000000000000000000000006064820152608401610676565b61235984848484614374565b6001600160a01b038116600090815260cd60209081526040808320805482518185028101850190935280835260609492939192909184015b8282101561110c576000848152602090819020604080518082019091526002850290910180546001600160a01b0316825260018101805492939192918401916129fd906157ab565b80601f0160208091040260200160405190810160405280929190818152602001828054612a29906157ab565b8015612a765780601f10612a4b57610100808354040283529160200191612a76565b820191906000526020600020905b815481529060010190602001808311612a5957829003601f168201915b505050505081525050815260200190600101906129b5565b612ad76040518060e00160405280600081526020016060815260200160006001600160a01b03168152602001600081526020016060815260200160608152602001606081525090565b612b206040518060e00160405280600081526020016060815260200160006001600160a01b03168152602001600081526020016060815260200160608152602001606081525090565b60c954612b2d5792915050565b60005b60c954811015610dd4578360c98281548110612b5c57634e487b7160e01b600052603260045260246000fd5b9060005260206000209060070201600001541415612dfa5760c98181548110612b9557634e487b7160e01b600052603260045260246000fd5b90600052602060002090600702016040518060e001604052908160008201548152602001600182018054612bc8906157ab565b80601f0160208091040260200160405190810160405280929190818152602001828054612bf4906157ab565b8015612c415780601f10612c1657610100808354040283529160200191612c41565b820191906000526020600020905b815481529060010190602001808311612c2457829003601f168201915b505050918352505060028201546001600160a01b0316602082015260038201546040820152600482018054606090920191612c7b906157ab565b80601f0160208091040260200160405190810160405280929190818152602001828054612ca7906157ab565b8015612cf45780601f10612cc957610100808354040283529160200191612cf4565b820191906000526020600020905b815481529060010190602001808311612cd757829003601f168201915b5050505050815260200160058201805480602002602001604051908101604052809291908181526020018280548015612d5657602002820191906000526020600020905b81546001600160a01b03168152600190910190602001808311612d38575b50505050508152602001600682018054612d6f906157ab565b80601f0160208091040260200160405190810160405280929190818152602001828054612d9b906157ab565b8015612de85780601f10612dbd57610100808354040283529160200191612de8565b820191906000526020600020905b815481529060010190602001808311612dcb57829003601f168201915b50505050508152505092505050919050565b80612e04816157e6565b915050612b30565b6000818152606760205260409020546060906001600160a01b0316612e995760405162461bcd60e51b815260206004820152602f60248201527f4552433732314d657461646174613a2055524920717565727920666f72206e6f60448201527f6e6578697374656e7420746f6b656e00000000000000000000000000000000006064820152608401610676565b610ae282613260565b6001600160a01b038116600090815260ce60209081526040808320805482518185028101850190935280835260609492939192909184015b8282101561110c57838290600052602060002090600702016040518060e001604052908160008201548152602001600182018054612f17906157ab565b80601f0160208091040260200160405190810160405280929190818152602001828054612f43906157ab565b8015612f905780601f10612f6557610100808354040283529160200191612f90565b820191906000526020600020905b815481529060010190602001808311612f7357829003601f168201915b505050918352505060028201546001600160a01b0316602082015260038201546040820152600482018054606090920191612fca906157ab565b80601f0160208091040260200160405190810160405280929190818152602001828054612ff6906157ab565b80156130435780601f1061301857610100808354040283529160200191613043565b820191906000526020600020905b81548152906001019060200180831161302657829003601f168201915b50505050508152602001600582018054806020026020016040519081016040528092919081815260200182805480156130a557602002820191906000526020600020905b81546001600160a01b03168152600190910190602001808311613087575b505050505081526020016006820180546130be906157ab565b80601f01602080910402602001604051908101604052809291908181526020018280546130ea906157ab565b80156131375780601f1061310c57610100808354040283529160200191613137565b820191906000526020600020905b81548152906001019060200180831161311a57829003601f168201915b50505050508152505081526020019060010190612eda565b6001600160a01b038116600090815260cc60209081526040808320805482518185028101850190935280835260609492939192909184015b8282101561110c576000848152602090819020604080518082019091526002850290910180546001600160a01b0316825260018101805492939192918401916131cf906157ab565b80601f01602080910402602001604051908101604052809291908181526020018280546131fb906157ab565b80156132485780601f1061321d57610100808354040283529160200191613248565b820191906000526020600020905b81548152906001019060200180831161322b57829003601f168201915b50505050508152505081526020019060010190613187565b60606132ab6040518060e00160405280600081526020016060815260200160006001600160a01b03168152602001600081526020016060815260200160608152602001606081525090565b60005b60c954811015613584578360c982815481106132da57634e487b7160e01b600052603260045260246000fd5b90600052602060002090600702016000015414156135725760c9818154811061331357634e487b7160e01b600052603260045260246000fd5b90600052602060002090600702016040518060e001604052908160008201548152602001600182018054613346906157ab565b80601f0160208091040260200160405190810160405280929190818152602001828054613372906157ab565b80156133bf5780601f10613394576101008083540402835291602001916133bf565b820191906000526020600020905b8154815290600101906020018083116133a257829003601f168201915b505050918352505060028201546001600160a01b03166020820152600382015460408201526004820180546060909201916133f9906157ab565b80601f0160208091040260200160405190810160405280929190818152602001828054613425906157ab565b80156134725780601f1061344757610100808354040283529160200191613472565b820191906000526020600020905b81548152906001019060200180831161345557829003601f168201915b50505050508152602001600582018054806020026020016040519081016040528092919081815260200182805480156134d457602002820191906000526020600020905b81546001600160a01b031681526001909101906020018083116134b6575b505050505081526020016006820180546134ed906157ab565b80601f0160208091040260200160405190810160405280929190818152602001828054613519906157ab565b80156135665780601f1061353b57610100808354040283529160200191613566565b820191906000526020600020905b81548152906001019060200180831161354957829003601f168201915b50505050508152505091505b8061357c816157e6565b9150506132ae565b50805183146135d55760405162461bcd60e51b815260206004820152601060248201527f5477656574206e6f7420666f756e642e000000000000000000000000000000006044820152606401610676565b61362b6135e1846143f2565b826020015160405180606001604052806035815260200161586e6035913984608001516040516020016136179493929190615377565b604051602081830303815290604052614540565b60405160200161363b91906154a0565b604051602081830303815290604052915050919050565b600061365d60995490565b9050600061366c8260016156a7565b33600090815260ca6020526040902060010180549192506060916136949190611f3f906157ab565b156137375733600090815260ca6020526040902060010180546136b6906157ab565b80601f01602080910402602001604051908101604052809291908181526020018280546136e2906157ab565b801561372f5780601f106137045761010080835404028352916020019161372f565b820191906000526020600020905b81548152906001019060200180831161371257829003601f168201915b505050505090505b6137806040518060e00160405280600081526020016060815260200160006001600160a01b03168152602001600081526020016060815260200160608152602001606081525090565b8451156138c05782815260208082018781523360408401524260608401526080830187905260c0830184905260c9805460018101825560009190915283517f66be4f155c5ef2ebd3772b228f2f00681e4ed5826cdb3b1943cc11ad15ad1d28600790920291820190815591518051859461381e937f66be4f155c5ef2ebd3772b228f2f00681e4ed5826cdb3b1943cc11ad15ad1d2901920190614e47565b5060408201516002820180546001600160a01b0319166001600160a01b03909216919091179055606082015160038201556080820151805161386a916004840191602090910190614e47565b5060a08201518051613886916005840191602090910190614ebb565b5060c082015180516138a2916006840191602090910190614e47565b5050506138bb338560016138b691906156a7565b6146ed565b613a8b565b855161390e5760405162461bcd60e51b815260206004820152601260248201527f547765657420697320746f6f2073686f727400000000000000000000000000006044820152606401610676565b61391786614707565b6139635760405162461bcd60e51b815260206004820181905260248201527f5370616365206f6e6c79207477656574206973206e6f7420616c6c6f7765642e6044820152606401610676565b828152602080820187815233604084015242606084015260c0830184905260c9805460018101825560009190915283517f66be4f155c5ef2ebd3772b228f2f00681e4ed5826cdb3b1943cc11ad15ad1d2860079092029182019081559151805185946139f3937f66be4f155c5ef2ebd3772b228f2f00681e4ed5826cdb3b1943cc11ad15ad1d2901920190614e47565b5060408201516002820180546001600160a01b0319166001600160a01b039092169190911790556060820151600382015560808201518051613a3f916004840191602090910190614e47565b5060a08201518051613a5b916005840191602090910190614ebb565b5060c08201518051613a77916006840191602090910190614e47565b505050613a8b338560016138b691906156a7565b336001600160a01b03167fed917e0e51bb528b7fef2750065cd119dddd8e8fa54f38a656d4107e7c14f37a87604051613ac49190615620565b60405180910390a2505050505050565b60cc6020528160005260406000208181548110613af057600080fd5b6000918252602090912060029091020180546001820180546001600160a01b039092169450919250612872906157ab565b6000613b2c60995490565b905080821115613b7e5760405162461bcd60e51b815260206004820152601060248201527f496e76616c696420746f6b656e49642e000000000000000000000000000000006044820152606401610676565b33600090815260ca602052604090206001018054606091613ba291611f3f906157ab565b15613c455733600090815260ca602052604090206001018054613bc4906157ab565b80601f0160208091040260200160405190810160405280929190818152602001828054613bf0906157ab565b8015613c3d5780601f10613c1257610100808354040283529160200191613c3d565b820191906000526020600020905b815481529060010190602001808311613c2057829003601f168201915b505050505090505b613c8e6040518060e00160405280600081526020016060815260200160006001600160a01b03168152602001600081526020016060815260200160608152602001606081525090565b8451613cdc5760405162461bcd60e51b815260206004820152601260248201527f547765657420697320746f6f2073686f727400000000000000000000000000006044820152606401610676565b613ce585614707565b613d315760405162461bcd60e51b815260206004820181905260248201527f5370616365206f6e6c79207477656574206973206e6f7420616c6c6f7765642e6044820152606401610676565b83815260208082018681523360408085019190915242606085015260c08401859052600087815260cb84529081208054600181810183559183529184902085516007909302019182559151805185949293613d9193908501920190614e47565b5060408201516002820180546001600160a01b0319166001600160a01b039092169190911790556060820151600382015560808201518051613ddd916004840191602090910190614e47565b5060a08201518051613df9916005840191602090910190614ebb565b5060c08201518051613e15916006840191602090910190614e47565b505050336001600160a01b03167ffdcb852153cbf9348292a6cb481b3a56a14487bd6f4720a979c44bf17539aaf586604051613e519190615620565b60405180910390a25050505050565b60c98181548110613e7057600080fd5b6000918252602090912060079091020180546001820180549193509061268d906157ab565b60cd6020528160005260406000208181548110613af057600080fd5b60cb602052816000526040600020818154811061266357600080fd5b60006001600160e01b031982167f80ac58cd000000000000000000000000000000000000000000000000000000001480613f3057506001600160e01b031982167f5b5e139f00000000000000000000000000000000000000000000000000000000145b80610ae257507f01ffc9a7000000000000000000000000000000000000000000000000000000006001600160e01b0319831614610ae2565b600081815260696020526040902080546001600160a01b0319166001600160a01b0384169081179091558190613f9d82612411565b6001600160a01b03167f8c5be1e5ebec7d5bd14f71427d1e84f3dd0314c0f7b2291e5b200ac8c7c3b92560405160405180910390a45050565b6000818152606760205260408120546001600160a01b031661404f5760405162461bcd60e51b815260206004820152602c60248201527f4552433732313a206f70657261746f7220717565727920666f72206e6f6e657860448201526b34b9ba32b73a103a37b5b2b760a11b6064820152608401610676565b600061405a83612411565b9050806001600160a01b0316846001600160a01b031614806140955750836001600160a01b031661408a84610b7a565b6001600160a01b0316145b806140c557506001600160a01b038082166000908152606a602090815260408083209388168352929052205460ff165b949350505050565b826001600160a01b03166140e082612411565b6001600160a01b03161461415c5760405162461bcd60e51b815260206004820152602960248201527f4552433732313a207472616e73666572206f6620746f6b656e2074686174206960448201527f73206e6f74206f776e00000000000000000000000000000000000000000000006064820152608401610676565b6001600160a01b0382166141d75760405162461bcd60e51b8152602060048201526024808201527f4552433732313a207472616e7366657220746f20746865207a65726f2061646460448201527f72657373000000000000000000000000000000000000000000000000000000006064820152608401610676565b6141e28383836147ad565b6141ed600082613f68565b6001600160a01b038316600090815260686020526040812080546001929061421690849061574a565b90915550506001600160a01b03821660009081526068602052604081208054600192906142449084906156a7565b909155505060008181526067602052604080822080546001600160a01b0319166001600160a01b0386811691821790925591518493918716917fddf252ad1be2c89b69c2b068fc378daa952ba7f163c4a11628f55a4df523b3ef91a4505050565b816001600160a01b0316836001600160a01b031614156143075760405162461bcd60e51b815260206004820152601960248201527f4552433732313a20617070726f766520746f2063616c6c6572000000000000006044820152606401610676565b6001600160a01b038381166000818152606a6020908152604080832094871680845294825291829020805460ff191686151590811790915591519182527f17307eab39ab6107e8899845ad3d59bd9653f200f220920489ca2b5937696c31910160405180910390a3505050565b61437f8484846140cd565b61438b84848484614865565b6123595760405162461bcd60e51b815260206004820152603260248201527f4552433732313a207472616e7366657220746f206e6f6e20455243373231526560448201527131b2b4bb32b91034b6b83632b6b2b73a32b960711b6064820152608401610676565b60608161443257505060408051808201909152600181527f3000000000000000000000000000000000000000000000000000000000000000602082015290565b8160005b811561445c5780614446816157e6565b91506144559050600a836156bf565b9150614436565b60008167ffffffffffffffff81111561448557634e487b7160e01b600052604160045260246000fd5b6040519080825280601f01601f1916602001820160405280156144af576020820181803683370190505b5090505b84156140c5576144c460018361574a565b91506144d1600a86615801565b6144dc9060306156a7565b60f81b8183815181106144ff57634e487b7160e01b600052603260045260246000fd5b60200101907effffffffffffffffffffffffffffffffffffffffffffffffffffffffffffff1916908160001a905350614539600a866156bf565b94506144b3565b606081516000141561456057505060408051602081019091526000815290565b60006040518060600160405280604081526020016158a3604091399050600060038451600261458f91906156a7565b61459991906156bf565b6145a49060046156d3565b905060006145b38260206156a7565b67ffffffffffffffff8111156145d957634e487b7160e01b600052604160045260246000fd5b6040519080825280601f01601f191660200182016040528015614603576020820181803683370190505b509050818152600183018586518101602084015b818310156146715760039283018051603f601282901c811687015160f890811b8552600c83901c8216880151811b6001860152600683901c8216880151811b60028601529116860151901b93820193909352600401614617565b60038951066001811461468b57600281146146b7576146df565b7f3d3d0000000000000000000000000000000000000000000000000000000000006001198301526146df565b7f3d000000000000000000000000000000000000000000000000000000000000006000198301525b509398975050505050505050565b610aa08282604051806020016040528060008152506149bd565b60006001815b83518110156147a557600084828151811061473857634e487b7160e01b600052603260045260246000fd5b01602001517fff000000000000000000000000000000000000000000000000000000000000001690507f200000000000000000000000000000000000000000000000000000000000000081146147925760009250506147a5565b508061479d816157e6565b91505061470d565b501592915050565b6001600160a01b0383166148085761480381609980546000838152609a60205260408120829055600182018355919091527f72a152ddfb8e864297c917af52ea6c1c68aead0fee1a62673fcc7e0c94979d000155565b61482b565b816001600160a01b0316836001600160a01b03161461482b5761482b8382614a3b565b6001600160a01b03821661484257610d3c81614ad8565b826001600160a01b0316826001600160a01b031614610d3c57610d3c8282614bb1565b60006001600160a01b0384163b156149b257604051630a85bd0160e11b81526001600160a01b0385169063150b7a02906148a99033908990889088906004016154e5565b602060405180830381600087803b1580156148c357600080fd5b505af19250505080156148f3575060408051601f3d908101601f191682019092526148f09181019061515c565b60015b614998573d808015614921576040519150601f19603f3d011682016040523d82523d6000602084013e614926565b606091505b5080516149905760405162461bcd60e51b815260206004820152603260248201527f4552433732313a207472616e7366657220746f206e6f6e20455243373231526560448201527131b2b4bb32b91034b6b83632b6b2b73a32b960711b6064820152608401610676565b805181602001fd5b6001600160e01b031916630a85bd0160e11b1490506140c5565b506001949350505050565b6149c78383614bf5565b6149d46000848484614865565b610d3c5760405162461bcd60e51b815260206004820152603260248201527f4552433732313a207472616e7366657220746f206e6f6e20455243373231526560448201527131b2b4bb32b91034b6b83632b6b2b73a32b960711b6064820152608401610676565b60006001614a488461249c565b614a52919061574a565b600083815260986020526040902054909150808214614aa5576001600160a01b03841660009081526097602090815260408083208584528252808320548484528184208190558352609890915290208190555b5060009182526098602090815260408084208490556001600160a01b039094168352609781528383209183525290812055565b609954600090614aea9060019061574a565b6000838152609a602052604081205460998054939450909284908110614b2057634e487b7160e01b600052603260045260246000fd5b906000526020600020015490508060998381548110614b4f57634e487b7160e01b600052603260045260246000fd5b6000918252602080832090910192909255828152609a90915260408082208490558582528120556099805480614b9557634e487b7160e01b600052603160045260246000fd5b6001900381819060005260206000200160009055905550505050565b6000614bbc8361249c565b6001600160a01b039093166000908152609760209081526040808320868452825280832085905593825260989052919091209190915550565b6001600160a01b038216614c4b5760405162461bcd60e51b815260206004820181905260248201527f4552433732313a206d696e7420746f20746865207a65726f20616464726573736044820152606401610676565b6000818152606760205260409020546001600160a01b031615614cb05760405162461bcd60e51b815260206004820152601c60248201527f4552433732313a20746f6b656e20616c7265616479206d696e746564000000006044820152606401610676565b614cbc600083836147ad565b6001600160a01b0382166000908152606860205260408120805460019290614ce59084906156a7565b909155505060008181526067602052604080822080546001600160a01b0319166001600160a01b03861690811790915590518392907fddf252ad1be2c89b69c2b068fc378daa952ba7f163c4a11628f55a4df523b3ef908290a45050565b828054614d4f906157ab565b90600052602060002090601f016020900481019282614d715760008555614dbe565b82601f10614d825780548555614dbe565b82800160010185558215614dbe57600052602060002091601f016020900482015b82811115614dbe578254825591600101919060010190614da3565b50614dca929150614f10565b5090565b508054614dda906157ab565b6000825580601f10614dea575050565b601f0160209004906000526020600020908101906125f59190614f10565b828054828255906000526020600020908101928215614dbe57600052602060002091820182811115614dbe578254825591600101919060010190614da3565b828054614e53906157ab565b90600052602060002090601f016020900481019282614e755760008555614dbe565b82601f10614e8e57805160ff1916838001178555614dbe565b82800160010185558215614dbe579182015b82811115614dbe578251825591602001919060010190614ea0565b828054828255906000526020600020908101928215614dbe579160200282015b82811115614dbe57825182546001600160a01b0319166001600160a01b03909116178255602090920191600190910190614edb565b5b80821115614dca5760008155600101614f11565b600067ffffffffffffffff80841115614f4057614f40615841565b604051601f8501601f19908116603f01168101908282118183101715614f6857614f68615841565b81604052809350858152868686011115614f8157600080fd5b858560208301376000602087830101525050509392505050565b80356001600160a01b0381168114614fb257600080fd5b919050565b600082601f830112614fc7578081fd5b614fd683833560208501614f25565b9392505050565b600060208284031215614fee578081fd5b614fd682614f9b565b60008060408385031215615009578081fd5b61501283614f9b565b915061502060208401614f9b565b90509250929050565b60008060006060848603121561503d578081fd5b61504684614f9b565b925061505460208501614f9b565b9150604084013590509250925092565b60008060008060808587031215615079578081fd5b61508285614f9b565b935061509060208601614f9b565b925060408501359150606085013567ffffffffffffffff8111156150b2578182fd5b8501601f810187136150c2578182fd5b6150d187823560208401614f25565b91505092959194509250565b600080604083850312156150ef578182fd5b6150f883614f9b565b91506020830135801515811461510c578182fd5b809150509250929050565b60008060408385031215615129578182fd5b61513283614f9b565b946020939093013593505050565b600060208284031215615151578081fd5b8135614fd681615857565b60006020828403121561516d578081fd5b8151614fd681615857565b6000806040838503121561518a578182fd5b50508035926020909101359150565b6000602082840312156151aa578081fd5b813567ffffffffffffffff8111156151c0578182fd5b6140c584828501614fb7565b600080604083850312156151de578182fd5b823567ffffffffffffffff808211156151f5578384fd5b61520186838701614fb7565b93506020850135915080821115615216578283fd5b5061522385828601614fb7565b9150509250929050565b6000806040838503121561523f578182fd5b823567ffffffffffffffff811115615255578283fd5b61526185828601614fb7565b95602094909401359450505050565b600060208284031215615281578081fd5b5035919050565b600081518084526152a0816020860160208601615761565b601f01601f19169290920160200192915050565b80518252600060208083015160e0828601526152d360e0860182615288565b905060408401516001600160a01b0380821660408801526060860151606088015260808601519150868303608088015261530d8383615288565b60a087810151898303918a019190915280518083529086019450869350908501905b808410156153515784518316825293850193600193909301929085019061532f565b5060c0870151945087810360c089015261536b8186615288565b98975050505050505050565b7f7b226e616d65223a2254776565742023000000000000000000000000000000008152600085516153af816010850160208a01615761565b7f222c20226465736372697074696f6e223a22000000000000000000000000000060109184019182015285516153ec816022840160208a01615761565b7f222c2022696d616765223a20220000000000000000000000000000000000000060229290910191820152845161542a81602f840160208901615761565b7f222c2022696d6167655f64617461223a20220000000000000000000000000000602f92909101918201528351615468816041840160208801615761565b7f227d000000000000000000000000000000000000000000000000000000000000604192909101918201526043019695505050505050565b7f646174613a6170706c69636174696f6e2f6a736f6e3b6261736536342c0000008152600082516154d881601d850160208701615761565b91909101601d0192915050565b60006001600160a01b038087168352808616602084015250836040830152608060608301526155176080830184615288565b9695505050505050565b6001600160a01b03831681526040602082015260006140c56040830184615288565b6000602080830181845280855180835260408601915060408160051b8701019250838701855b8281101561559757603f198886030184526155858583516152b4565b94509285019290850190600101615569565b5092979650505050505050565b60006020808301818452808551808352604092508286019150828160051b870101848801865b8381101561561257888303603f19018552815180516001600160a01b031684528701518784018790526155ff87850182615288565b95880195935050908601906001016155ca565b509098975050505050505050565b602081526000614fd66020830184615288565b602081526000614fd660208301846152b4565b86815260c06020820152600061565f60c0830188615288565b6001600160a01b038716604084015285606084015282810360808401526156868186615288565b905082810360a084015261569a8185615288565b9998505050505050505050565b600082198211156156ba576156ba615815565b500190565b6000826156ce576156ce61582b565b500490565b60008160001904831182151516156156ed576156ed615815565b500290565b600080831283600160ff1b0183128115161561571057615710615815565b837f7fffffffffffffffffffffffffffffffffffffffffffffffffffffffffffffff01831381161561574457615744615815565b50500390565b60008282101561575c5761575c615815565b500390565b60005b8381101561577c578181015183820152602001615764565b838111156123595750506000910152565b6000600160ff1b8214156157a3576157a3615815565b506000190190565b600181811c908216806157bf57607f821691505b602082108114156157e057634e487b7160e01b600052602260045260246000fd5b50919050565b60006000198214156157fa576157fa615815565b5060010190565b6000826158105761581061582b565b500690565b634e487b7160e01b600052601160045260246000fd5b634e487b7160e01b600052601260045260246000fd5b634e487b7160e01b600052604160045260246000fd5b6001600160e01b0319811681146125f557600080fdfe697066733a2f2f516d57566647316d48635973345139484753484a59656468454566554d684551396d51484b4646545761793831754142434445464748494a4b4c4d4e4f505152535455565758595a6162636465666768696a6b6c6d6e6f707172737475767778797a303132333435363738392b2fa264697066735822122055807b7e3aae4c30e8758c07745067d280e6faee5fcdd966f9b252c11a61f57f64736f6c63430008040033496e697469616c697a61626c653a20636f6e747261637420697320616c726561",
  "linkReferences": {},
  "deployedLinkReferences": {}
}